{"abi":[{"type":"constructor","inputs":[{"name":"_registry","type":"address","internalType":"address"},{"name":"_accountImplementation","type":"address","internalType":"address"},{"name":"_salt","type":"bytes32","internalType":"bytes32"}],"stateMutability":"nonpayable"},{"type":"function","name":"accountImplementation","inputs":[],"outputs":[{"name":"","type":"address","internalType":"address"}],"stateMutability":"view"},{"type":"function","name":"addAuthorizedMinter","inputs":[{"name":"minter","type":"address","internalType":"address"}],"outputs":[],"stateMutability":"nonpayable"},{"type":"function","name":"approve","inputs":[{"name":"to","type":"address","internalType":"address"},{"name":"tokenId","type":"uint256","internalType":"uint256"}],"outputs":[],"stateMutability":"nonpayable"},{"type":"function","name":"authorizedMinters","inputs":[{"name":"","type":"address","internalType":"address"}],"outputs":[{"name":"","type":"bool","internalType":"bool"}],"stateMutability":"view"},{"type":"function","name":"balanceOf","inputs":[{"name":"owner","type":"address","internalType":"address"}],"outputs":[{"name":"","type":"uint256","internalType":"uint256"}],"stateMutability":"view"},{"type":"function","name":"burnTokensFromNode","inputs":[{"name":"nodeId","type":"bytes32","internalType":"bytes32"},{"name":"amount","type":"uint256","internalType":"uint256"},{"name":"reason","type":"string","internalType":"string"}],"outputs":[],"stateMutability":"nonpayable"},{"type":"function","name":"computeTokenBoundAccount","inputs":[{"name":"tokenId","type":"uint256","internalType":"uint256"}],"outputs":[{"name":"","type":"address","internalType":"address"}],"stateMutability":"view"},{"type":"function","name":"getApproved","inputs":[{"name":"tokenId","type":"uint256","internalType":"uint256"}],"outputs":[{"name":"","type":"address","internalType":"address"}],"stateMutability":"view"},{"type":"function","name":"getNodeContent","inputs":[{"name":"nodeId","type":"bytes32","internalType":"bytes32"}],"outputs":[{"name":"","type":"string","internalType":"string"}],"stateMutability":"view"},{"type":"function","name":"getNodeIdFromTokenId","inputs":[{"name":"tokenId","type":"uint256","internalType":"uint256"}],"outputs":[{"name":"","type":"bytes32","internalType":"bytes32"}],"stateMutability":"view"},{"type":"function","name":"getNodeTokenBalance","inputs":[{"name":"nodeId","type":"bytes32","internalType":"bytes32"}],"outputs":[{"name":"","type":"uint256","internalType":"uint256"}],"stateMutability":"view"},{"type":"function","name":"getNodeTokenContract","inputs":[{"name":"tokenId","type":"uint256","internalType":"uint256"}],"outputs":[{"name":"","type":"address","internalType":"address"}],"stateMutability":"view"},{"type":"function","name":"getNodeTokenContractByNodeId","inputs":[{"name":"nodeId","type":"bytes32","internalType":"bytes32"}],"outputs":[{"name":"","type":"address","internalType":"address"}],"stateMutability":"view"},{"type":"function","name":"getNodeTokenInfo","inputs":[{"name":"tokenId","type":"uint256","internalType":"uint256"}],"outputs":[{"name":"tokenContract","type":"address","internalType":"address"},{"name":"tokenBoundAccount","type":"address","internalType":"address"},{"name":"tokenBalance","type":"uint256","internalType":"uint256"},{"name":"tokenName","type":"string","internalType":"string"},{"name":"tokenSymbol","type":"string","internalType":"string"},{"name":"tokenSupply","type":"uint256","internalType":"uint256"}],"stateMutability":"view"},{"type":"function","name":"getTextContent","inputs":[{"name":"nodeId","type":"bytes32","internalType":"bytes32"}],"outputs":[{"name":"","type":"string","internalType":"string"}],"stateMutability":"view"},{"type":"function","name":"getTokenBoundAccount","inputs":[{"name":"tokenId","type":"uint256","internalType":"uint256"}],"outputs":[{"name":"","type":"address","internalType":"address"}],"stateMutability":"view"},{"type":"function","name":"getTokenBoundAccountByNodeId","inputs":[{"name":"nodeId","type":"bytes32","internalType":"bytes32"}],"outputs":[{"name":"","type":"address","internalType":"address"}],"stateMutability":"view"},{"type":"function","name":"getTokenIdFromNodeId","inputs":[{"name":"nodeId","type":"bytes32","internalType":"bytes32"}],"outputs":[{"name":"","type":"uint256","internalType":"uint256"}],"stateMutability":"view"},{"type":"function","name":"isApprovedForAll","inputs":[{"name":"owner","type":"address","internalType":"address"},{"name":"operator","type":"address","internalType":"address"}],"outputs":[{"name":"","type":"bool","internalType":"bool"}],"stateMutability":"view"},{"type":"function","name":"mintNodeNFT","inputs":[{"name":"to","type":"address","internalType":"address"},{"name":"nodeId","type":"bytes32","internalType":"bytes32"},{"name":"content","type":"string","internalType":"string"},{"name":"tokenName","type":"string","internalType":"string"},{"name":"tokenSymbol","type":"string","internalType":"string"},{"name":"tokenSupply","type":"uint256","internalType":"uint256"}],"outputs":[{"name":"","type":"uint256","internalType":"uint256"}],"stateMutability":"nonpayable"},{"type":"function","name":"mintTokensToNode","inputs":[{"name":"nodeId","type":"bytes32","internalType":"bytes32"},{"name":"amount","type":"uint256","internalType":"uint256"},{"name":"reason","type":"string","internalType":"string"}],"outputs":[],"stateMutability":"nonpayable"},{"type":"function","name":"name","inputs":[],"outputs":[{"name":"","type":"string","internalType":"string"}],"stateMutability":"view"},{"type":"function","name":"nodeIdToTokenId","inputs":[{"name":"","type":"bytes32","internalType":"bytes32"}],"outputs":[{"name":"","type":"uint256","internalType":"uint256"}],"stateMutability":"view"},{"type":"function","name":"nodeTokenContracts","inputs":[{"name":"","type":"uint256","internalType":"uint256"}],"outputs":[{"name":"","type":"address","internalType":"address"}],"stateMutability":"view"},{"type":"function","name":"nodeTokenNames","inputs":[{"name":"","type":"uint256","internalType":"uint256"}],"outputs":[{"name":"","type":"string","internalType":"string"}],"stateMutability":"view"},{"type":"function","name":"nodeTokenSupplies","inputs":[{"name":"","type":"uint256","internalType":"uint256"}],"outputs":[{"name":"","type":"uint256","internalType":"uint256"}],"stateMutability":"view"},{"type":"function","name":"nodeTokenSymbols","inputs":[{"name":"","type":"uint256","internalType":"uint256"}],"outputs":[{"name":"","type":"string","internalType":"string"}],"stateMutability":"view"},{"type":"function","name":"owner","inputs":[],"outputs":[{"name":"","type":"address","internalType":"address"}],"stateMutability":"view"},{"type":"function","name":"ownerOf","inputs":[{"name":"tokenId","type":"uint256","internalType":"uint256"}],"outputs":[{"name":"","type":"address","internalType":"address"}],"stateMutability":"view"},{"type":"function","name":"registry","inputs":[],"outputs":[{"name":"","type":"address","internalType":"contract IERC6551Registry"}],"stateMutability":"view"},{"type":"function","name":"removeAuthorizedMinter","inputs":[{"name":"minter","type":"address","internalType":"address"}],"outputs":[],"stateMutability":"nonpayable"},{"type":"function","name":"renounceOwnership","inputs":[],"outputs":[],"stateMutability":"nonpayable"},{"type":"function","name":"safeTransferFrom","inputs":[{"name":"from","type":"address","internalType":"address"},{"name":"to","type":"address","internalType":"address"},{"name":"tokenId","type":"uint256","internalType":"uint256"}],"outputs":[],"stateMutability":"nonpayable"},{"type":"function","name":"safeTransferFrom","inputs":[{"name":"from","type":"address","internalType":"address"},{"name":"to","type":"address","internalType":"address"},{"name":"tokenId","type":"uint256","internalType":"uint256"},{"name":"data","type":"bytes","internalType":"bytes"}],"outputs":[],"stateMutability":"nonpayable"},{"type":"function","name":"salt","inputs":[],"outputs":[{"name":"","type":"bytes32","internalType":"bytes32"}],"stateMutability":"view"},{"type":"function","name":"setApprovalForAll","inputs":[{"name":"operator","type":"address","internalType":"address"},{"name":"approved","type":"bool","internalType":"bool"}],"outputs":[],"stateMutability":"nonpayable"},{"type":"function","name":"supportsInterface","inputs":[{"name":"interfaceId","type":"bytes4","internalType":"bytes4"}],"outputs":[{"name":"","type":"bool","internalType":"bool"}],"stateMutability":"view"},{"type":"function","name":"symbol","inputs":[],"outputs":[{"name":"","type":"string","internalType":"string"}],"stateMutability":"view"},{"type":"function","name":"textContent","inputs":[{"name":"","type":"uint256","internalType":"uint256"}],"outputs":[{"name":"","type":"string","internalType":"string"}],"stateMutability":"view"},{"type":"function","name":"tokenBoundAccounts","inputs":[{"name":"","type":"uint256","internalType":"uint256"}],"outputs":[{"name":"","type":"address","internalType":"address"}],"stateMutability":"view"},{"type":"function","name":"tokenIdToNodeId","inputs":[{"name":"","type":"uint256","internalType":"uint256"}],"outputs":[{"name":"","type":"bytes32","internalType":"bytes32"}],"stateMutability":"view"},{"type":"function","name":"tokenURI","inputs":[{"name":"tokenId","type":"uint256","internalType":"uint256"}],"outputs":[{"name":"","type":"string","internalType":"string"}],"stateMutability":"view"},{"type":"function","name":"tokenURIs","inputs":[{"name":"","type":"uint256","internalType":"uint256"}],"outputs":[{"name":"","type":"string","internalType":"string"}],"stateMutability":"view"},{"type":"function","name":"totalSupply","inputs":[],"outputs":[{"name":"","type":"uint256","internalType":"uint256"}],"stateMutability":"view"},{"type":"function","name":"transferFrom","inputs":[{"name":"from","type":"address","internalType":"address"},{"name":"to","type":"address","internalType":"address"},{"name":"tokenId","type":"uint256","internalType":"uint256"}],"outputs":[],"stateMutability":"nonpayable"},{"type":"function","name":"transferOwnership","inputs":[{"name":"newOwner","type":"address","internalType":"address"}],"outputs":[],"stateMutability":"nonpayable"},{"type":"function","name":"updateTokenContent","inputs":[{"name":"nodeId","type":"bytes32","internalType":"bytes32"},{"name":"newContent","type":"string","internalType":"string"}],"outputs":[],"stateMutability":"nonpayable"},{"type":"event","name":"Approval","inputs":[{"name":"owner","type":"address","indexed":true,"internalType":"address"},{"name":"approved","type":"address","indexed":true,"internalType":"address"},{"name":"tokenId","type":"uint256","indexed":true,"internalType":"uint256"}],"anonymous":false},{"type":"event","name":"ApprovalForAll","inputs":[{"name":"owner","type":"address","indexed":true,"internalType":"address"},{"name":"operator","type":"address","indexed":true,"internalType":"address"},{"name":"approved","type":"bool","indexed":false,"internalType":"bool"}],"anonymous":false},{"type":"event","name":"NodeNFTMinted","inputs":[{"name":"tokenId","type":"uint256","indexed":true,"internalType":"uint256"},{"name":"nodeId","type":"bytes32","indexed":true,"internalType":"bytes32"},{"name":"owner","type":"address","indexed":true,"internalType":"address"},{"name":"content","type":"string","indexed":false,"internalType":"string"},{"name":"tokenBoundAccount","type":"address","indexed":false,"internalType":"address"},{"name":"nodeTokenContract","type":"address","indexed":false,"internalType":"address"}],"anonymous":false},{"type":"event","name":"NodeTokenCreated","inputs":[{"name":"tokenId","type":"uint256","indexed":true,"internalType":"uint256"},{"name":"nodeTokenContract","type":"address","indexed":true,"internalType":"address"},{"name":"tokenBoundAccount","type":"address","indexed":true,"internalType":"address"}],"anonymous":false},{"type":"event","name":"OwnershipTransferred","inputs":[{"name":"previousOwner","type":"address","indexed":true,"internalType":"address"},{"name":"newOwner","type":"address","indexed":true,"internalType":"address"}],"anonymous":false},{"type":"event","name":"TokenBoundAccountCreated","inputs":[{"name":"tokenId","type":"uint256","indexed":true,"internalType":"uint256"},{"name":"tokenBoundAccount","type":"address","indexed":true,"internalType":"address"}],"anonymous":false},{"type":"event","name":"Transfer","inputs":[{"name":"from","type":"address","indexed":true,"internalType":"address"},{"name":"to","type":"address","indexed":true,"internalType":"address"},{"name":"tokenId","type":"uint256","indexed":true,"internalType":"uint256"}],"anonymous":false},{"type":"error","name":"ERC721IncorrectOwner","inputs":[{"name":"sender","type":"address","internalType":"address"},{"name":"tokenId","type":"uint256","internalType":"uint256"},{"name":"owner","type":"address","internalType":"address"}]},{"type":"error","name":"ERC721InsufficientApproval","inputs":[{"name":"operator","type":"address","internalType":"address"},{"name":"tokenId","type":"uint256","internalType":"uint256"}]},{"type":"error","name":"ERC721InvalidApprover","inputs":[{"name":"approver","type":"address","internalType":"address"}]},{"type":"error","name":"ERC721InvalidOperator","inputs":[{"name":"operator","type":"address","internalType":"address"}]},{"type":"error","name":"ERC721InvalidOwner","inputs":[{"name":"owner","type":"address","internalType":"address"}]},{"type":"error","name":"ERC721InvalidReceiver","inputs":[{"name":"receiver","type":"address","internalType":"address"}]},{"type":"error","name":"ERC721InvalidSender","inputs":[{"name":"sender","type":"address","internalType":"address"}]},{"type":"error","name":"ERC721NonexistentToken","inputs":[{"name":"tokenId","type":"uint256","internalType":"uint256"}]},{"type":"error","name":"OwnableInvalidOwner","inputs":[{"name":"owner","type":"address","internalType":"address"}]},{"type":"error","name":"OwnableUnauthorizedAccount","inputs":[{"name":"account","type":"address","internalType":"address"}]}],"bytecode":{"object":"0x60e034620003f357601f1990601f906001600160401b03620049de38819003848101861684019190838311858410176200031557808592606094604052833981010312620003f357620000528262000417565b9360209160406200006584860162000417565b9401519162000073620003f7565b9560088752674c6f6f6d4e6f646560c01b8588015262000092620003f7565b60058152644c4e4f444560d81b86820152875184811162000315575f546001998a82811c92168015620003e8575b89831014620002f657818584931162000395575b50889085831160011462000335575f9262000329575b50505f19600383901b1c191690891b175f555b805193841162000315578754928884811c941680156200030a575b87851014620002f65783838695116200029f575b50869284116001146200023e57505f9262000232575b50505f19600383901b1c191690851b1784555b33156200021a5760068054336001600160a01b03198216811790925560405196600b95926001600160a01b039283167f8be0079c531659141344cd1fd0a4f28419497f9722a3daafe3b4186f6b6457e05f80a3866007551660805260a05260c052335f525260405f209060ff198254161790556145b190816200042d82396080518181816105c601528181611b410152611f9e015260a05181818161055801528181611ad70152612508015260c05181818161057f015281816113720152611b030152f35b604051631e4fbdf760e01b81525f6004820152602490fd5b015190505f8062000142565b88949291921691845f52865f20925f5b888282106200028857505084116200026f575b505050811b01845562000155565b01515f1960f88460031b161c191690555f808062000261565b8385015186558b979095019493840193016200024e565b9091929350885f52865f208480870160051c820192898810620002ec575b9187968c92969594930160051c01915b828110620002dd5750506200012c565b5f81558796508b9101620002cd565b92508192620002bd565b634e487b7160e01b5f52602260045260245ffd5b93607f169362000118565b634e487b7160e01b5f52604160045260245ffd5b015190505f80620000ea565b90868c9416915f80528a5f20925f5b8c8282106200037e575050841162000365575b505050811b015f55620000fd565b01515f1960f88460031b161c191690555f808062000357565b8385015186558f9790950194938401930162000344565b9091505f8052885f208580850160051c8201928b8610620003de575b918d91869594930160051c01915b828110620003cf575050620000d4565b5f81558594508d9101620003bf565b92508192620003b1565b91607f1691620000c0565b5f80fd5b60408051919082016001600160401b038111838210176200031557604052565b51906001600160a01b0382168203620003f35756fe6080604052600436101562000012575f80fd5b5f803560e01c806301814670146200278b57806301ffc9a7146200271657806306fdde031462002663578063081812fc1462002623578063095ea7b3146200253757806311464fbe14620024f157806318160ddd14620024b157806323b872dd146200249557806328a1850814620024615780633323463014620024195780633dc597f414620023ef57806342842e0e146200239d578063475ae03914620023565780635c534a8514620021815780635d3dd4e9146200213a5780635f710f5c14620020f05780636352211e14620020bb5780636bdf34861462001c935780636c8b703f146200208b57806370a08231146200202e578063715018a61462001fcd5780637b1039991462001f865780638d06fa6a1462001cea5780638da5cb5b1462001cbf57806392a224131462001c9357806395d89b411462001ba457806396f51a641462001aac578063a22cb4651462001a03578063a3fb540c14620014db578063aa2fe91b1462001498578063abb23f5b1462001451578063b4f771091462001404578063b88d4fde1462001395578063bfa0b1331462001358578063c6a8212f1462001323578063c87b56dd1462001292578063cc4a5aec146200113e578063ce8884eb146200110e578063cefd439714620010e2578063d0e1055d14620010b2578063d6b47acd14620002e7578063e0cbc7a81462001069578063e404af9214620003b8578063e985e9c51462000360578063ec710ca61462000313578063ed9494c114620002e75763f2fde38b146200024f575f80fd5b34620002e4576020366003190112620002e4576200026c6200281d565b62000276620030dd565b6001600160a01b03908116908115620002cb57600654826bffffffffffffffffffffffff60a01b821617600655167f8be0079c531659141344cd1fd0a4f28419497f9722a3daafe3b4186f6b6457e05f80a380f35b604051631e4fbdf760e01b815260048101849052602490fd5b80fd5b5034620002e4576020366003190112620002e45760406020916004358152600883522054604051908152f35b5034620002e4576020366003190112620002e45760209060043581526008825260408120546200034581151562002a6c565b8152600c8252604060018060a01b0391205416604051908152f35b5034620002e4576040366003190112620002e4576200037e6200281d565b60406200038a62002834565b9260018060a01b03809316815260056020522091165f52602052602060ff60405f2054166040519015158152f35b5034620002e45760c0366003190112620002e457620003d66200281d565b906044356001600160401b0381116200106557620003f99036906004016200292c565b6064356001600160401b03811162001061576200041b9036906004016200292c565b6084356001600160401b03811162000d7e576200043d9036906004016200292c565b92338152600b60205260ff60408220541680156200104c575b620004619062002ee8565b602435815260086020526040812054620010085760075492620004848462003093565b6007556001600160a01b0386161562000fef575f848152600260205260409020546001600160a01b03168062000fbb575b6001600160a01b0387165f818152600360209081526040808320805460010190558883526002909152812080546001600160a01b0319168317905586919083907fddf252ad1be2c89b69c2b068fc378daa952ba7f163c4a11628f55a4df523b3ef9080a462000fa2576024803580845260086020908152604080862088905587865260098252808620929092559051638a54c52f60e01b81526001600160a01b037f00000000000000000000000000000000000000000000000000000000000000001660048201527f00000000000000000000000000000000000000000000000000000000000000009281019290925246604483015230606483015260848201869052909590868060a481010381867f00000000000000000000000000000000000000000000000000000000000000006001600160a01b03165af195861562000f5f57839662000f6a575b50848352600c602052604080842080546001600160a01b0319166001600160a01b038916179055516001600160401b036110ed82019081119082111762000c4e576110ed6200348f823960606110ed82015280620006816200066a60606110ed84010188620027f6565b6110ed8301810360206110ed8501015284620027f6565b60a43560406110ed84010152039084f093841562000f5f57858452600d6020908152604080862080546001600160a01b0319166001600160a01b038916179055600e909152842081516001600160401b03811162000e9157620006e5825462002983565b601f811162000f19575b50806020601f821160011462000eb157879162000ea5575b508160011b915f199060031b1c19161790555b858452600f6020526040842082516001600160401b03811162000e915762000743825462002983565b601f811162000e4b575b50806020601f821160011462000de357879162000dd7575b508160011b915f199060031b1c19161790555b85845260106020908152604080862060a4359055516318160ddd60e01b815290816004816001600160a01b038a165afa90811562000d8f57859162000d9a575b5060405163a9059cbb60e01b81526001600160a01b0389166004820152602481019190915260208180604481010381886001600160a01b038b165af1801562000d8f57908493929162000d41575b5062000a079160b1916200081a8962003130565b91620008286024356200320f565b91620008348c6200337a565b620008486001600160a01b038c166200337a565b906200085660a43562003130565b94604051998a97727b226e616d65223a224c6f6f6d4e6f6465202360681b60208a01526200088f81518092602060338d019101620027d3565b8801701116113232b9b1b934b83a34b7b7111d1160791b6033820152620008c1825180936020604485019101620027d3565b016b1116113737b232a4b2111d1160a11b6044820152620008ed825180936020605085019101620027d3565b01761116113a37b5b2b72137bab73220b1b1b7bab73a111d1160491b605082015262000924825180936020606785019101620027d3565b01761116113737b232aa37b5b2b721b7b73a3930b1ba111d1160491b60678201526200095b825180936020607e85019101620027d3565b016e1116113a37b5b2b72730b6b2911d1160891b607e8201526200098a825180936020608d85019101620027d3565b01701116113a37b5b2b729bcb6b137b6111d1160791b608d820152620009bb825180936020609e85019101620027d3565b01701116113a37b5b2b729bab838363c911d1160791b609e820152620009ec82518093602060af85019101620027d3565b0161227d60f01b60af820152036091810184520182620028b3565b848352600a60205260408320908051906001600160401b03821162000d2d57819062000a34845462002983565b601f811162000cdb575b50602090601f831160011462000c6e57869262000c62575b50508160011b915f199060031b1c19161790555b838252601160205260408220958151966001600160401b03881162000c4e5762000a95815462002983565b601f811162000c04575b506020978089601f821160011462000ba057869162000b94575b508160011b915f199060031b1c19161790555b847fc8d11bd5e43cbe8a49197cd7df211e3d0ba299f25ec89b2090b06c03b7fd549562000b0560405194606086526060860190620027f6565b6001600160a01b03898116868c01528781166040870152909316936024359381900390a46040519383907fd4c36cc430dc42b3c38bda0912c1197f54566bd7422b6e2c29fac9e39415df0f906001600160a01b038116837fc4b8a8d86d64119f34964e927b7da67edd99b17cd62a7c5f1c00f27c3dfb68e88680a36001600160a01b0390811694169280a48152f35b90508401515f62000ab9565b8387528a87209150601f198316875b81811062000bec5750908360019493921062000bd3575b5050811b01905562000acc565b8601515f1960f88460031b161c191690555f8062000bc6565b91928c60018192868b01518155019401920162000baf565b81855260208520601f8a0160051c81019160208b1062000c43575b601f0160051c01905b81811062000c37575062000a9f565b85815560010162000c28565b909150819062000c1f565b634e487b7160e01b84526041600452602484fd5b015190505f8062000a56565b9250838652602086209086935b601f198416851062000cbf576001945083601f1981161062000ca6575b505050811b01905562000a6a565b01515f1960f88460031b161c191690555f808062000c98565b8181015183556020948501946001909301929091019062000c7b565b90915083865260208620601f840160051c81016020851062000d25575b90849392915b601f830160051c8201811062000d1657505062000a3e565b88815585945060010162000cfe565b508062000cf8565b634e487b7160e01b85526041600452602485fd5b909192506020813d60201162000d86575b8162000d6160209383620028b3565b8101031262000d8257518015150362000d7e579082915f62000806565b8380fd5b8480fd5b3d915062000d52565b6040513d87823e3d90fd5b90506020813d60201162000dce575b8162000db860209383620028b3565b8101031262000dca57516020620007b8565b5f80fd5b3d915062000da9565b90508401515f62000765565b91508287526020872087925b601f198316841062000e32576001935082601f1981161062000e19575b5050811b01905562000778565b8601515f1960f88460031b161c191690555f8062000e0c565b8681015182556020938401936001909201910162000def565b82875260208720601f830160051c81016020841062000e89575b601f830160051c8201811062000e7d5750506200074d565b88815560010162000e65565b508062000e65565b634e487b7160e01b86526041600452602486fd5b90508301515f62000707565b91508287526020872087925b601f198316841062000f00576001935082601f1981161062000ee7575b5050811b0190556200071a565b8501515f1960f88460031b161c191690555f8062000eda565b8581015182556020938401936001909201910162000ebd565b82875260208720601f830160051c81016020841062000f57575b601f830160051c8201811062000f4b575050620006ef565b88815560010162000f33565b508062000f33565b6040513d85823e3d90fd5b62000f9291965060203d60201162000f9a575b62000f898183620028b3565b81019062002ec7565b945f62000600565b503d62000f7d565b6040516339e3563760e11b815260048101839052602490fd5b5f85815260046020526040902080546001600160a01b0319169055805f52600360205260405f205f198154019055620004b5565b604051633250574960e11b815260048101839052602490fd5b606460405162461bcd60e51b815260206004820152602060248201527f4e465420616c72656164792065786973747320666f722074686973206e6f64656044820152fd5b506006546001600160a01b0316331462000456565b8280fd5b5080fd5b5034620002e4576020366003190112620002e457620010996040620010ae926004358152600f60205220620029be565b604051918291602083526020830190620027f6565b0390f35b5034620002e4576020366003190112620002e457620010996040620010ae926004358152601160205220620029be565b5034620002e4576020366003190112620002e45760406020916004358152601083522054604051908152f35b5034620002e4576020366003190112620002e457620010996040620010ae926004358152600e60205220620029be565b5034620002e45760209081600319360112620002e4576001600160a01b0390806004356200117a846200117183620030a2565b16151562002e83565b808352600d85528360408420541693600c865260408420541691600e8652620011a660408520620029be565b90828552600f8752620011bc60408620620029be565b928552601087526040852054948662001217575b5090620011fe916200120d946040519889988952880152604087015260c0606087015260c0860190620027f6565b908482036080860152620027f6565b9060a08301520390f35b90506040516370a0823160e01b815284600482015287816024818a5afa9182156200128657916200124e575b506200120d620011d0565b9190508682813d83116200127e575b620012698183620028b3565b8101031262000dca5790516200120d62001243565b503d6200125d565b604051903d90823e3d90fd5b5034620002e4576020366003190112620002e457600435906001600160a01b03620012bd83620030a2565b1615620012de57604081620010ae93620010999352600a60205220620029be565b60405162461bcd60e51b815260206004820152601f60248201527f55524920717565727920666f72206e6f6e6578697374656e7420746f6b656e006044820152606490fd5b5034620002e4576020366003190112620002e4576020906004358152600c8252604060018060a01b0391205416604051908152f35b5034620002e45780600319360112620002e45760206040517f00000000000000000000000000000000000000000000000000000000000000008152f35b5034620002e4576080366003190112620002e457620013b36200281d565b620013bd62002834565b606435916001600160401b03831162000d7e573660238401121562000d7e57620013f662001401933690602481600401359101620028f1565b916044359162002f2e565b80f35b5034620002e4576020366003190112620002e45760209060043581526008825260408120546200143681151562002a6c565b8152600d8252604060018060a01b0391205416604051908152f35b5034620002e4576020366003190112620002e4576020906001600160a01b039060409060043562001487846200117183620030a2565b8152600c8452205416604051908152f35b5034620002e4576020366003190112620002e45760209060ff906040906001600160a01b03620014c76200281d565b168152600b84522054166040519015158152f35b5034620002e4576040366003190112620002e4576001600160401b03906004356024358381116200106157620015169036906004016200292c565b9233835283602092600b845260ff6040862054168015620019ee575b6200153d9062002ee8565b808552600884526040852054906200155782151562002a6c565b818652600c8552600160a01b600190038060408820541690600d8752604088205416600e8752604088206200158c90620029be565b848952600f885260408920620015a290620029be565b91858a526010895260408a205490620015bb8762003130565b95620015c7906200320f565b94620015d3906200337a565b90620015df906200337a565b91620015eb9062003130565b948a604051998a98727b226e616d65223a224c6f6f6d4e6f6465202360681b838b0152805190818460338d019201916200162592620027d3565b890190701116113232b9b1b934b83a34b7b7111d1160791b603383015280518093604484019201916200165892620027d3565b016b1116113737b232a4b2111d1160a11b6044820152815191828d605084019201916200168592620027d3565b0160508101761116113a37b5b2b72137bab73220b1b1b7bab73a111d1160491b9052815191828c60678401920191620016be92620027d3565b0160678101761116113737b232aa37b5b2b721b7b73a3930b1ba111d1160491b9052815191828b607e8401920191620016f792620027d3565b016e1116113a37b5b2b72730b6b2911d1160891b607e820152815191828a608d84019201916200172792620027d3565b01701116113a37b5b2b729bcb6b137b6111d1160791b608d8201528151918289609e84019201916200175992620027d3565b01701116113a37b5b2b729bab838363c911d1160791b609e820152815191828860af84019201916200178b92620027d3565b0161227d60f01b60af8201520360918101835260b101620017ad9083620028b3565b808552600a8452604085208251848111620019da5780620017cf835462002983565b94601f9586811162001989575b5087908683116001146200192257899262001916575b50508160011b915f199060031b1c19161790555b8452601183526040842092855192831162000d2d5762001827845462002983565b828111620018d1575b50809183116001146200186c575083948293949262001860575b50508160011b915f199060031b1c191617905580f35b015190505f806200184a565b90601f198316958486528286209286905b888210620018b8575050836001959697106200189f575b505050811b01905580f35b01515f1960f88460031b161c191690555f808062001894565b806001859682949686015181550195019301906200187d565b8486528186208380860160051c8201928487106200190c575b0160051c01905b81811062001900575062001830565b868155600101620018f1565b92508192620018ea565b015190505f80620017f2565b848a52888a209250601f1984168a5b8a8282106200197257505090846001959493921062001959575b505050811b01905562001806565b01515f1960f88460031b161c191690555f80806200194b565b600185968293968601518155019501930162001931565b9091508389528789208680850160051c8201928a8610620019d0575b9085949392910160051c01905b818110620019c15750620017dc565b8a8155849350600101620019b2565b92508192620019a5565b634e487b7160e01b87526041600452602487fd5b506006546001600160a01b0316331462001532565b5034620002e4576040366003190112620002e45762001a216200281d565b6024359081151580920362001061576001600160a01b031690811562001a9357338352600560205260408320825f5260205260405f2060ff1981541660ff83161790556040519081527f17307eab39ab6107e8899845ad3d59bd9653f200f220920489ca2b5937696c3160203392a380f35b604051630b61174360e31b815260048101839052602490fd5b5034620002e4576020366003190112620002e45760405163246a002160e01b81526001600160a01b037f000000000000000000000000000000000000000000000000000000000000000081166004808401919091527f0000000000000000000000000000000000000000000000000000000000000000602484015246604484015230606484015235608483015260208260a4817f000000000000000000000000000000000000000000000000000000000000000085165afa91821562000f5f576020939262001b80575b5060405191168152f35b62001b9c919250833d851162000f9a5762000f898183620028b3565b905f62001b76565b5034620002e45780600319360112620002e4576040515f6001826001549262001bcd8462002983565b92838352602094856001821691825f1462001c7157505060011462001c12575b5062001bfc92500383620028b3565b620010ae604051928284938452830190620027f6565b84915060015f527fb10e2d527612073b26eecdfd717e6a320cf44b4afac2b0732d9fcbe2b7fa0cf6905f915b85831062001c5857505062001bfc93508201018562001bed565b8054838901850152879450869390920191810162001c3e565b60ff19168582015262001bfc95151560051b850101925087915062001bed9050565b5034620002e4576020366003190112620002e45760406020916004358152600983522054604051908152f35b5034620002e45780600319360112620002e4576006546040516001600160a01b039091168152602090f35b5034620002e45762001cfc366200294d565b9291825260209260088452604083205462001d1981151562002a6c565b338452600b855260ff604085205416801562001f71575b801562001f54575b1562001efa578352600d8452604080842054600c8652908420546001600160a01b0390811692911662001d6d81151562002dcc565b62001d7a83151562002e19565b60405193630cd3b5fd60e31b855260048501528584602481845afa93841562000d8f57859462001ec5575b506040516370a0823160e01b8152600481018490528681602481855afa90811562001eba57908591879162001e83575b501062001e3e57849550803b1562000d825762001e0d938580946040519687958694859363057d5c3760e21b85526004850162002e5d565b03925af1801562001e335762001e205750f35b62001e2b9062002883565b620002e45780f35b6040513d84823e3d90fd5b60405162461bcd60e51b815260048101879052601a60248201527f496e73756666696369656e7420746f6b656e2062616c616e63650000000000006044820152606490fd5b809250888092503d831162001eb2575b62001e9f8183620028b3565b8101031262000dca578490515f62001dd5565b503d62001e93565b6040513d88823e3d90fd5b9093508581813d831162001ef2575b62001ee08183620028b3565b8101031262000dca5751925f62001da5565b503d62001ed4565b60405162461bcd60e51b815260048101869052602c60248201527f4e6f7420617574686f72697a656420746f206275726e20746f6b656e7320667260448201526b6f6d2074686973206e6f646560a01b6064820152608490fd5b506001600160a01b0362001f6882620030a2565b16331462001d38565b506006546001600160a01b0316331462001d30565b5034620002e45780600319360112620002e4576040517f00000000000000000000000000000000000000000000000000000000000000006001600160a01b03168152602090f35b5034620002e45780600319360112620002e45762001fea620030dd565b600680546001600160a01b031981169091555f906001600160a01b03167f8be0079c531659141344cd1fd0a4f28419497f9722a3daafe3b4186f6b6457e08280a380f35b5034620002e4576020366003190112620002e4576001600160a01b03620020546200281d565b16801562002072578160409160209352600383522054604051908152f35b6040516322718ad960e21b815260048101839052602490fd5b5034620002e4576020366003190112620002e457620010996040620010ae926004358152600a60205220620029be565b5034620002e4576020366003190112620002e4576020620020de600435620030a2565b6040516001600160a01b039091168152f35b5034620002e4576020366003190112620002e4576200210e6200281d565b62002118620030dd565b6001600160a01b03168152600b60205260408120805460ff1916600117905580f35b5034620002e4576020366003190112620002e4576020906001600160a01b039060409060043562002170846200117183620030a2565b8152600d8452205416604051908152f35b503462000dca5762002193366200294d565b915f526020916008835260405f2054620021af81151562002a6c565b335f52600b845260ff60405f205416801562002341575b801562002324575b15620022cc575f52600d835260018060a01b038060405f20541690600c855260405f205416926200220182151562002dcc565b6200220e84151562002e19565b60405190630cd3b5fd60e31b825260048201528481602481855afa9485156200228b575f9562002296575b5050803b1562000dca5762002269935f8094604051968795869485936334ff261960e21b85526004850162002e5d565b03925af180156200228b576200227d575080f35b62002289915062002883565b005b6040513d5f823e3d90fd5b9080929550813d8311620022c4575b620022b18183620028b3565b8101031262000dca5751925f8062002239565b503d620022a5565b60405162461bcd60e51b815260048101859052602a60248201527f4e6f7420617574686f72697a656420746f206d696e7420746f6b656e7320746f6044820152692074686973206e6f646560b01b6064820152608490fd5b506001600160a01b036200233882620030a2565b163314620021ce565b506006546001600160a01b03163314620021c6565b3462000dca57602036600319011262000dca57620023736200281d565b6200237d620030dd565b6001600160a01b03165f908152600b60205260409020805460ff19169055005b3462000dca57620023ae366200284b565b6040519160208301938385106001600160401b03861117620023db5762002289946040525f845262002f2e565b634e487b7160e01b5f52604160045260245ffd5b3462000dca57602036600319011262000dca5760206200241160043562002c64565b604051908152f35b3462000dca57602036600319011262000dca576004355f52600860205260405f20546200244881151562002a6c565b5f526011602052620010ae6200109960405f20620029be565b3462000dca57602036600319011262000dca576004355f52600d602052602060018060a01b0360405f205416604051908152f35b3462000dca5762002289620024aa366200284b565b9162002ab9565b3462000dca575f36600319011262000dca576007545f198101908111620024dd57602090604051908152f35b634e487b7160e01b5f52601160045260245ffd5b3462000dca575f36600319011262000dca576040517f00000000000000000000000000000000000000000000000000000000000000006001600160a01b03168152602090f35b3462000dca57604036600319011262000dca57620025546200281d565b6024356200256281620030a2565b331515806200260f575b80620025e5575b620025cd576001600160a01b039283169282918491167f8c5be1e5ebec7d5bd14f71427d1e84f3dd0314c0f7b2291e5b200ac8c7c3b9255f80a45f90815260046020526040902080546001600160a01b0319169091179055005b60405163a9fbf51f60e01b8152336004820152602490fd5b5060018060a01b0381165f52600560205260405f20335f5260205260ff60405f2054161562002573565b506001600160a01b0381163314156200256c565b3462000dca57602036600319011262000dca576004356200264481620030a2565b505f526004602052602060018060a01b0360405f205416604051908152f35b3462000dca575f36600319011262000dca576040515f80549082620026888362002983565b91828252602093600190856001821691825f1462001c71575050600114620026b9575062001bfc92500383620028b3565b5f808052859250907f290decd9548b62a8d60345a988386fc84ba6bc95484008f6362f93160ef3e5635b858310620026fd57505062001bfc93508201018562001bed565b80548389018501528794508693909201918101620026e3565b3462000dca57602036600319011262000dca5760043563ffffffff60e01b811680910362000dca576020906380ac58cd60e01b811490811562002779575b811562002767575b506040519015158152f35b6301ffc9a760e01b149050826200275c565b635b5e139f60e01b8114915062002754565b3462000dca57602036600319011262000dca576004355f52600860205260405f2054620027ba81151562002a6c565b5f52600a602052620010ae6200109960405f20620029be565b5f5b838110620027e55750505f910152565b8181015183820152602001620027d5565b906020916200281181518092818552858086019101620027d3565b601f01601f1916010190565b600435906001600160a01b038216820362000dca57565b602435906001600160a01b038216820362000dca57565b606090600319011262000dca576001600160a01b0390600435828116810362000dca5791602435908116810362000dca579060443590565b6001600160401b038111620023db57604052565b606081019081106001600160401b03821117620023db57604052565b90601f801991011681019081106001600160401b03821117620023db57604052565b6001600160401b038111620023db57601f01601f191660200190565b929192620028ff82620028d5565b916200290f6040519384620028b3565b82948184528183011162000dca578281602093845f960137010152565b9080601f8301121562000dca578160206200294a93359101620028f1565b90565b606060031982011262000dca576004359160243591604435906001600160401b03821162000dca576200294a916004016200292c565b90600182811c92168015620029b3575b60208310146200299f57565b634e487b7160e01b5f52602260045260245ffd5b91607f169162002993565b9060405191825f8254620029d28162002983565b908184526020946001916001811690815f1462002a48575060011462002a06575b50505062002a0492500383620028b3565b565b5f90815285812095935091905b81831062002a2f57505062002a0493508201015f8080620029f3565b8554888401850152948501948794509183019162002a13565b9250505062002a0494925060ff191682840152151560051b8201015f8080620029f3565b1562002a7457565b60405162461bcd60e51b815260206004820152601d60248201527f4e6f20746f6b656e2065786973747320666f722074686973206e6f64650000006044820152606490fd5b6001600160a01b03918216929091831562002c4c57815f52602092600284528260409583875f205416953315158062002baf575b506002908762002b7d575b825f5260038152885f2060018154019055835f5252865f20816bffffffffffffffffffffffff60a01b825416179055857fddf252ad1be2c89b69c2b068fc378daa952ba7f163c4a11628f55a4df523b3ef5f80a4169283830362002b5c5750505050565b6064945051926364283d7b60e01b8452600484015260248301526044820152fd5b5f84815260046020526040812080546001600160a01b03191690558881526003825289902080545f1901905562002af8565b919250908062002c07575b1562002bca579084915f62002aed565b86858762002be8576024915190637e27328960e01b82526004820152fd5b905163177e802f60e01b81523360048201526024810191909152604490fd5b50338614801562002c2f575b8062002bba5750845f52600481523384885f2054161462002bba565b50855f5260058152865f20335f52815260ff875f20541662002c13565b604051633250574960e11b81525f6004820152602490fd5b5f52602060088152604090815f205462002c8081151562002a6c565b5f52600d815260018060a01b039182815f20541692600c8352815f205416918315801562002dc3575b62002dbb578151926370a0823160e01b845260048401528083602481875afa92831562002db1575f9362002d7c575b50806004939483519485809263313ce56760e01b82525afa91821562002d7357505f9162002d33575b5060ff915016604d8111620024dd57600a0a90811562002d1f570490565b634e487b7160e01b5f52601260045260245ffd5b905081813d831162002d6b575b62002d4c8183620028b3565b8101031262000dca575160ff8116810362000dca5760ff905f62002d01565b503d62002d40565b513d5f823e3d90fd5b92508083813d831162002da9575b62002d968183620028b3565b8101031262000dca579151918062002cd8565b503d62002d8a565b82513d5f823e3d90fd5b505050505f90565b50821562002ca9565b1562002dd457565b60405162461bcd60e51b815260206004820152601f60248201527f4e6f20746f6b656e20636f6e747261637420666f722074686973206e6f6465006044820152606490fd5b1562002e2157565b60405162461bcd60e51b81526020600482015260146024820152734e6f2054424120666f722074686973206e6f646560601b6044820152606490fd5b6200294a939260609260018060a01b0316825260208201528160408201520190620027f6565b1562002e8b57565b60405162461bcd60e51b8152602060048201526014602482015273151bdad95b88191bd95cc81b9bdd08195e1a5cdd60621b6044820152606490fd5b9081602091031262000dca57516001600160a01b038116810362000dca5790565b1562002ef057565b60405162461bcd60e51b8152602060048201526016602482015275139bdd08185d5d1a1bdc9a5e9959081d1bc81b5a5b9d60521b6044820152606490fd5b919262002f3d84838562002ab9565b813b62002f4b575b50505050565b604051630a85bd0160e11b8082523360048301526001600160a01b0394851660248301526044820195909552608060648201526020959390921693919085908290819062002f9e906084830190620027f6565b03815f885af15f91816200304c575b5062003014575050503d5f146200300b573d9162002fcb83620028d5565b9262002fdb6040519485620028b3565b83523d5f8285013e5b825192836200300657604051633250574960e11b815260048101849052602490fd5b019050fd5b60609162002fe4565b9193506001600160e01b0319909116036200303457505f80808062002f45565b60249060405190633250574960e11b82526004820152fd5b9091508581813d83116200308b575b620030678183620028b3565b8101031262000dca57516001600160e01b03198116810362000dca57905f62002fad565b503d6200305b565b5f198114620024dd5760010190565b5f818152600260205260409020546001600160a01b0316908115620030c5575090565b60249060405190637e27328960e01b82526004820152fd5b6006546001600160a01b03163303620030f257565b60405163118cdaa760e01b8152336004820152602490fd5b9081518110156200311c570160200190565b634e487b7160e01b5f52603260045260245ffd5b8015620031e05780815f925b620031c757506200314d82620028d5565b916200315d6040519384620028b3565b80835281601f196200316f83620028d5565b013660208601375b6200318157505090565b5f198101908111620024dd578091600a9160308383068101809111620024dd5760f81b6001600160f81b0319165f1a90620031bd90866200310a565b5304908162003177565b9091620031d6600a9162003093565b929104806200313c565b50604051604081018181106001600160401b03821117620023db5760405260018152600360fc1b602082015290565b604051906200321e8262002897565b60408252602090602083019160403684375f5b8181106200327757505050602262003266926200294a9260405194859261060f60f31b602085015251809285850190620027d3565b8101036002810184520182620028b3565b601f818103908111620024dd57600381901b906001600160fd1b03811603620024dd576004908181018082116200336757908591600f9283911c16926010918285101562003341576f181899199a1a9b1b9c1cb0b131b232b360811b9360019187831b96888804600214891517156200335457908c620032fc89898e951a926200310a565b531c1692831015620033415784018094116200332e5750600193929162003326911a91886200310a565b530162003231565b601190634e487b7160e01b5f525260245ffd5b603282634e487b7160e01b5f525260245ffd5b601185634e487b7160e01b5f525260245ffd5b601183634e487b7160e01b5f525260245ffd5b604051906001600160a01b0316620033928262002897565b60288252602082019060403683375f5b60148110620033d7575050602262003266926200294a9260405194859261060f60f31b602085015251809285850190620027d3565b6013818103908111620024dd57600381901b906001600160fd1b03811603620024dd576004908181018082116200336757908491600f9283911c16926010918285101562003341576f181899199a1a9b1b9c1cb0b131b232b360811b9360019187831b96888804600214891517156200335457908b6200345c89898d951a926200310a565b531c1692831015620033415784018094116200332e5750600193929162003486911a91876200310a565b5301620033a256fe60406080815234620003e557620010ed803803806200001e81620003e9565b9283398101606082820312620003e55781516001600160401b039290838111620003e55782620000509183016200040f565b60209283830151858111620003e55786916200006e9185016200040f565b920151938151818111620002f0576003908154906001948583811c93168015620003da575b88841014620003c6578190601f9384811162000373575b50889084831160011462000310575f9262000304575b50505f1982851b1c191690851b1782555b8451928311620002f05760049485548581811c91168015620002e5575b88821014620002d2578281116200028a575b508691841160011462000223579383949184925f9562000217575b50501b925f19911b1c19161781555b3315620002015760058054336001600160a01b0319821681179092556001600160a01b03167f8be0079c531659141344cd1fd0a4f28419497f9722a3daafe3b4186f6b6457e05f80a3670de0b6b3a764000092838102938185041490151715620001ee578260065560025490838201809211620001ee57505f917fddf252ad1be2c89b69c2b068fc378daa952ba7f163c4a11628f55a4df523b3ef9160025533835282815284832084815401905584519384523393a351610c6d9081620004808239f35b601190634e487b7160e01b5f525260245ffd5b6024905f855191631e4fbdf760e01b8352820152fd5b015193505f806200011b565b9190601f19841692865f5284885f20945f5b8a8983831062000272575050501062000258575b50505050811b0181556200012a565b01519060f8845f19921b161c191690555f80808062000249565b86860151895590970196948501948893500162000235565b865f52875f208380870160051c8201928a8810620002c8575b0160051c019086905b828110620002bc57505062000100565b5f8155018690620002ac565b92508192620002a3565b602287634e487b7160e01b5f525260245ffd5b90607f1690620000ee565b634e487b7160e01b5f52604160045260245ffd5b015190505f80620000c0565b90879350601f19831691865f528a5f20925f5b8c8282106200035c575050841162000344575b505050811b018255620000d1565b01515f1983871b60f8161c191690555f808062000336565b8385015186558b9790950194938401930162000323565b909150845f52885f208480850160051c8201928b8610620003bc575b918991869594930160051c01915b828110620003ad575050620000aa565b5f81558594508991016200039d565b925081926200038f565b634e487b7160e01b5f52602260045260245ffd5b92607f169262000093565b5f80fd5b6040519190601f01601f191682016001600160401b03811183821017620002f057604052565b919080601f84011215620003e55782516001600160401b038111620002f05760209062000445601f8201601f19168301620003e9565b92818452828287010111620003e5575f5b8181106200046b5750825f9394955001015290565b85810183015184820184015282016200045656fe608060409080825260049081361015610016575f80fd5b5f3560e01c90816306fdde03146108bf57508063095ea7b31461081657806315f570dc1461068a57806318160ddd1461066c57806323b872dd1461057b578063313ce56714610560578063378dc3dc14610542578063669dafe8146104f657806370a08231146104c0578063715018a6146104655780638da5cb5b1461043d57806395d89b4114610323578063a9059cbb146102f3578063d3fc9864146101db578063dd62ed3e14610192578063e65d15221461016c5763f2fde38b146100db575f80fd5b34610168576020366003190112610168576100f46109fb565b906100fd610b31565b6001600160a01b03918216928315610152575050600554826bffffffffffffffffffffffff60a01b821617600555167f8be0079c531659141344cd1fd0a4f28419497f9722a3daafe3b4186f6b6457e05f80a3005b905f6024925191631e4fbdf760e01b8352820152fd5b5f80fd5b503461016857602036600319011261016857670de0b6b3a7640000602092519135048152f35b82346101685780600319360112610168576020906101ae6109fb565b6101b6610a11565b9060018060a01b038091165f5260018452825f2091165f528252805f20549051908152f35b5034610168576101ea36610a5d565b93916101f4610b31565b6001600160a01b03169283156102b05761020f821515610ae5565b6002549082820180921161029d57507f9d89e36eadf856db0ad9ffb5a569e07f95634dddd9501141ecf04820484ad0dc939461029891600255855f525f602052835f20838154019055855f7fddf252ad1be2c89b69c2b068fc378daa952ba7f163c4a11628f55a4df523b3ef60208751878152a3835193849384528060208501528301906109bd565b0390a2005b601190634e487b7160e01b5f525260245ffd5b606490602084519162461bcd60e51b8352820152601b60248201527f43616e6e6f74206d696e7420746f207a65726f206164647265737300000000006044820152fd5b823461016857806003193601126101685760209061031c6103126109fb565b6024359033610b5d565b5160018152f35b509034610168575f366003190112610168578051905f9083549160018360011c9060018516968715610433575b602095868410891461042057868899858a98999a5291825f146103f957505060011461039d575b505050610399929161038a910385610a27565b519282849384528301906109bd565b0390f35b5f90815286935091907f8a35acfbc15ff81a39ae7d344fd709f28e8600b4aa8c65c6b64bfe7fe36bd19b5b8284106103e1575050508201018161038a610399610377565b8054848a0186015288955087949093019281016103c8565b60ff19168782015293151560051b8601909301935084925061038a91506103999050610377565b602282634e487b7160e01b5f525260245ffd5b91607f1691610350565b8234610168575f3660031901126101685760055490516001600160a01b039091168152602090f35b34610168575f3660031901126101685761047d610b31565b600580546001600160a01b031981169091555f906001600160a01b03167f8be0079c531659141344cd1fd0a4f28419497f9722a3daafe3b4186f6b6457e08280a3005b8234610168576020366003190112610168576020906001600160a01b036104e56109fb565b165f525f8252805f20549051908152f35b50903461016857602036600319011261016857670de0b6b3a764000082358181029291811591840414171561052f576020925051908152f35b601183634e487b7160e01b5f525260245ffd5b8234610168575f366003190112610168576020906006549051908152f35b8234610168575f366003190112610168576020905160128152f35b5034610168576060366003190112610168576105956109fb565b61059d610a11565b906044359260018060a01b038216805f526001602052855f20335f52602052855f2054915f1983106105d8575b60208761031c888888610b5d565b85831061064057811561062a57331561061457505f9081526001602090815286822033835281529086902091859003909155829061031c6105ca565b6024905f885191634a1406b160e11b8352820152fd5b6024905f88519163e602df0560e01b8352820152fd5b8651637dc7a0d960e11b8152339181019182526020820193909352604081018690528291506060010390fd5b8234610168575f366003190112610168576020906002549051908152f35b50346101685761069936610a5d565b936106a2610b31565b6001600160a01b0383169384156107d4576106be831515610ae5565b845f526020935f855283835f20541061079257855f525f8552825f20549184831061075e57505094610298918386977ffad31924d655455395c87544c8aa1ffdb5a7505a22a3c2e03f28003b6556a75f975f525f875203815f205583600254036002555f877fddf252ad1be2c89b69c2b068fc378daa952ba7f163c4a11628f55a4df523b3ef878451888152a380805195869586528501528301906109bd565b835163391434e360e21b81526001600160a01b03909216908201908152602081018390526040810185905281906060010390fd5b5083606492519162461bcd60e51b8352820152601c60248201527f496e73756666696369656e742062616c616e636520746f206275726e000000006044820152fd5b6020606492519162461bcd60e51b8352820152601d60248201527f43616e6e6f74206275726e2066726f6d207a65726f20616464726573730000006044820152fd5b5090346101685780600319360112610168576108306109fb565b6024359033156108a9576001600160a01b03169081156108935760209350335f5260018452825f20825f52845280835f205582519081527f8c5be1e5ebec7d5bd14f71427d1e84f3dd0314c0f7b2291e5b200ac8c7c3b925843392a35160018152f35b8251634a1406b160e11b81525f81860152602490fd5b825163e602df0560e01b81525f81860152602490fd5b90508234610168575f366003190112610168575f906003549160018360011c90600185169485156109b3575b60209586841081146109a05783885287949392918790821561097e575050600114610923575b5050610399929161038a910385610a27565b9085925060035f527fc2575a0e9e593c00f959f8c92f12db2869c3395a3b0502d05e2516446f71f85b915f925b828410610966575050508201018161038a610911565b8054848a018601528895508794909301928101610950565b60ff19168682015292151560051b8501909201925083915061038a9050610911565b602289634e487b7160e01b5f525260245ffd5b91607f16916108eb565b91908251928382525f5b8481106109e7575050825f602080949584010152601f8019910116010190565b6020818301810151848301820152016109c7565b600435906001600160a01b038216820361016857565b602435906001600160a01b038216820361016857565b90601f8019910116810190811067ffffffffffffffff821117610a4957604052565b634e487b7160e01b5f52604160045260245ffd5b6060600319820112610168576004356001600160a01b038116810361016857916024359167ffffffffffffffff6044358181116101685782602382011215610168578060040135918211610a495760405192610ac3601f8401601f191660200185610a27565b8284526024838301011161016857815f92602460209301838601378301015290565b15610aec57565b60405162461bcd60e51b815260206004820152601d60248201527f416d6f756e74206d7573742062652067726561746572207468616e20300000006044820152606490fd5b6005546001600160a01b03163303610b4557565b60405163118cdaa760e01b8152336004820152602490fd5b916001600160a01b03808416928315610c1f5716928315610c0757825f525f60205260405f205490828210610bd55750817fddf252ad1be2c89b69c2b068fc378daa952ba7f163c4a11628f55a4df523b3ef92602092855f525f84520360405f2055845f5260405f20818154019055604051908152a3565b60405163391434e360e21b81526001600160a01b03919091166004820152602481019190915260448101829052606490fd5b60405163ec442f0560e01b81525f6004820152602490fd5b604051634b637e8f60e11b81525f6004820152602490fdfea264697066735822122044331042eba9aeacf012920601a85181d7d19980b04811393b499030531fee4c64736f6c63430008180033a2646970667358221220e16b5cf9c8404fae806851928d7a6eee7fbf173fc2cbd4d5f20d2f0a7520dc5a64736f6c63430008180033","linkReferences":{}},"methodIdentifiers":{"accountImplementation()":"11464fbe","addAuthorizedMinter(address)":"5f710f5c","approve(address,uint256)":"095ea7b3","authorizedMinters(address)":"aa2fe91b","balanceOf(address)":"70a08231","burnTokensFromNode(bytes32,uint256,string)":"8d06fa6a","computeTokenBoundAccount(uint256)":"96f51a64","getApproved(uint256)":"081812fc","getNodeContent(bytes32)":"01814670","getNodeIdFromTokenId(uint256)":"92a22413","getNodeTokenBalance(bytes32)":"3dc597f4","getNodeTokenContract(uint256)":"5d3dd4e9","getNodeTokenContractByNodeId(bytes32)":"b4f77109","getNodeTokenInfo(uint256)":"cc4a5aec","getTextContent(bytes32)":"33234630","getTokenBoundAccount(uint256)":"abb23f5b","getTokenBoundAccountByNodeId(bytes32)":"ec710ca6","getTokenIdFromNodeId(bytes32)":"ed9494c1","isApprovedForAll(address,address)":"e985e9c5","mintNodeNFT(address,bytes32,string,string,string,uint256)":"e404af92","mintTokensToNode(bytes32,uint256,string)":"5c534a85","name()":"06fdde03","nodeIdToTokenId(bytes32)":"d6b47acd","nodeTokenContracts(uint256)":"28a18508","nodeTokenNames(uint256)":"ce8884eb","nodeTokenSupplies(uint256)":"cefd4397","nodeTokenSymbols(uint256)":"e0cbc7a8","owner()":"8da5cb5b","ownerOf(uint256)":"6352211e","registry()":"7b103999","removeAuthorizedMinter(address)":"475ae039","renounceOwnership()":"715018a6","safeTransferFrom(address,address,uint256)":"42842e0e","safeTransferFrom(address,address,uint256,bytes)":"b88d4fde","salt()":"bfa0b133","setApprovalForAll(address,bool)":"a22cb465","supportsInterface(bytes4)":"01ffc9a7","symbol()":"95d89b41","textContent(uint256)":"d0e1055d","tokenBoundAccounts(uint256)":"c6a8212f","tokenIdToNodeId(uint256)":"6bdf3486","tokenURI(uint256)":"c87b56dd","tokenURIs(uint256)":"6c8b703f","totalSupply()":"18160ddd","transferFrom(address,address,uint256)":"23b872dd","transferOwnership(address)":"f2fde38b","updateTokenContent(bytes32,string)":"a3fb540c"},"id":3}