{"abi":[{"type":"constructor","inputs":[{"name":"","type":"string","internalType":"string"},{"name":"owner","type":"address","internalType":"address"},{"name":"nftContractAddress","type":"address","internalType":"address"}],"stateMutability":"nonpayable"},{"type":"function","name":"addNode","inputs":[{"name":"parentId","type":"bytes32","internalType":"bytes32"},{"name":"content","type":"string","internalType":"string"},{"name":"ipfsHash","type":"string","internalType":"string"},{"name":"createNFT","type":"bool","internalType":"bool"},{"name":"modelId","type":"string","internalType":"string"},{"name":"author","type":"address","internalType":"address"}],"outputs":[{"name":"","type":"bytes32","internalType":"bytes32"}],"stateMutability":"nonpayable"},{"type":"function","name":"addNodeWithToken","inputs":[{"name":"parentId","type":"bytes32","internalType":"bytes32"},{"name":"content","type":"string","internalType":"string"},{"name":"ipfsHash","type":"string","internalType":"string"},{"name":"tokenName","type":"string","internalType":"string"},{"name":"tokenSymbol","type":"string","internalType":"string"},{"name":"modelId","type":"string","internalType":"string"},{"name":"author","type":"address","internalType":"address"}],"outputs":[{"name":"","type":"bytes32","internalType":"bytes32"}],"stateMutability":"nonpayable"},{"type":"function","name":"allNodes","inputs":[{"name":"","type":"uint256","internalType":"uint256"}],"outputs":[{"name":"","type":"bytes32","internalType":"bytes32"}],"stateMutability":"view"},{"type":"function","name":"factory","inputs":[],"outputs":[{"name":"","type":"address","internalType":"address"}],"stateMutability":"view"},{"type":"function","name":"getAllNodes","inputs":[],"outputs":[{"name":"","type":"bytes32[]","internalType":"bytes32[]"}],"stateMutability":"view"},{"type":"function","name":"getChildren","inputs":[{"name":"nodeId","type":"bytes32","internalType":"bytes32"}],"outputs":[{"name":"","type":"bytes32[]","internalType":"bytes32[]"}],"stateMutability":"view"},{"type":"function","name":"getNFTContract","inputs":[],"outputs":[{"name":"","type":"address","internalType":"address"}],"stateMutability":"view"},{"type":"function","name":"getNode","inputs":[{"name":"nodeId","type":"bytes32","internalType":"bytes32"}],"outputs":[{"name":"id","type":"bytes32","internalType":"bytes32"},{"name":"parentId","type":"bytes32","internalType":"bytes32"},{"name":"children","type":"bytes32[]","internalType":"bytes32[]"},{"name":"author","type":"address","internalType":"address"},{"name":"timestamp","type":"uint256","internalType":"uint256"},{"name":"isRoot","type":"bool","internalType":"bool"},{"name":"modelId","type":"string","internalType":"string"}],"stateMutability":"view"},{"type":"function","name":"getNodeContent","inputs":[{"name":"nodeId","type":"bytes32","internalType":"bytes32"}],"outputs":[{"name":"","type":"string","internalType":"string"}],"stateMutability":"view"},{"type":"function","name":"getNodeCount","inputs":[],"outputs":[{"name":"","type":"uint256","internalType":"uint256"}],"stateMutability":"view"},{"type":"function","name":"getNodeMetadata","inputs":[{"name":"nodeId","type":"bytes32","internalType":"bytes32"},{"name":"key","type":"string","internalType":"string"}],"outputs":[{"name":"","type":"string","internalType":"string"}],"stateMutability":"view"},{"type":"function","name":"getNodeMetadataKeys","inputs":[{"name":"nodeId","type":"bytes32","internalType":"bytes32"}],"outputs":[{"name":"","type":"string[]","internalType":"string[]"}],"stateMutability":"view"},{"type":"function","name":"getNodeModelId","inputs":[{"name":"nodeId","type":"bytes32","internalType":"bytes32"}],"outputs":[{"name":"","type":"string","internalType":"string"}],"stateMutability":"view"},{"type":"function","name":"getRootId","inputs":[],"outputs":[{"name":"","type":"bytes32","internalType":"bytes32"}],"stateMutability":"view"},{"type":"function","name":"initializeRootNodeWithToken","inputs":[{"name":"rootContent","type":"string","internalType":"string"},{"name":"ipfsHash","type":"string","internalType":"string"},{"name":"tokenSupply","type":"uint256","internalType":"uint256"},{"name":"modelId","type":"string","internalType":"string"}],"outputs":[],"stateMutability":"nonpayable"},{"type":"function","name":"nftContract","inputs":[],"outputs":[{"name":"","type":"address","internalType":"contract LoomNodeNFT"}],"stateMutability":"view"},{"type":"function","name":"nodeHasNFT","inputs":[{"name":"nodeId","type":"bytes32","internalType":"bytes32"}],"outputs":[{"name":"","type":"bool","internalType":"bool"}],"stateMutability":"view"},{"type":"function","name":"nodes","inputs":[{"name":"","type":"bytes32","internalType":"bytes32"}],"outputs":[{"name":"id","type":"bytes32","internalType":"bytes32"},{"name":"parentId","type":"bytes32","internalType":"bytes32"},{"name":"author","type":"address","internalType":"address"},{"name":"timestamp","type":"uint256","internalType":"uint256"},{"name":"isRoot","type":"bool","internalType":"bool"},{"name":"content","type":"string","internalType":"string"},{"name":"ipfsHash","type":"string","internalType":"string"},{"name":"hasNFT","type":"bool","internalType":"bool"},{"name":"modelId","type":"string","internalType":"string"}],"stateMutability":"view"},{"type":"function","name":"rootId","inputs":[],"outputs":[{"name":"","type":"bytes32","internalType":"bytes32"}],"stateMutability":"view"},{"type":"function","name":"setNodeMetadata","inputs":[{"name":"nodeId","type":"bytes32","internalType":"bytes32"},{"name":"key","type":"string","internalType":"string"},{"name":"value","type":"string","internalType":"string"}],"outputs":[],"stateMutability":"nonpayable"},{"type":"function","name":"treeOwner","inputs":[],"outputs":[{"name":"","type":"address","internalType":"address"}],"stateMutability":"view"},{"type":"function","name":"updateNodeContent","inputs":[{"name":"nodeId","type":"bytes32","internalType":"bytes32"},{"name":"newContent","type":"string","internalType":"string"},{"name":"ipfsHash","type":"string","internalType":"string"},{"name":"author","type":"address","internalType":"address"}],"outputs":[],"stateMutability":"nonpayable"},{"type":"event","name":"MetadataSet","inputs":[{"name":"nodeId","type":"bytes32","indexed":true,"internalType":"bytes32"},{"name":"key","type":"string","indexed":false,"internalType":"string"},{"name":"value","type":"string","indexed":false,"internalType":"string"}],"anonymous":false},{"type":"event","name":"NodeCreated","inputs":[{"name":"nodeId","type":"bytes32","indexed":true,"internalType":"bytes32"},{"name":"parentId","type":"bytes32","indexed":true,"internalType":"bytes32"},{"name":"author","type":"address","indexed":true,"internalType":"address"},{"name":"timestamp","type":"uint256","indexed":false,"internalType":"uint256"},{"name":"hasNFT","type":"bool","indexed":false,"internalType":"bool"},{"name":"modelId","type":"string","indexed":false,"internalType":"string"},{"name":"content","type":"string","indexed":false,"internalType":"string"},{"name":"ipfsHash","type":"string","indexed":false,"internalType":"string"},{"name":"tokenId","type":"uint256","indexed":false,"internalType":"uint256"},{"name":"tokenBoundAccount","type":"address","indexed":false,"internalType":"address"},{"name":"nodeTokenContract","type":"address","indexed":false,"internalType":"address"}],"anonymous":false},{"type":"event","name":"NodeUpdated","inputs":[{"name":"nodeId","type":"bytes32","indexed":true,"internalType":"bytes32"},{"name":"author","type":"address","indexed":true,"internalType":"address"},{"name":"modelId","type":"string","indexed":false,"internalType":"string"},{"name":"content","type":"string","indexed":false,"internalType":"string"},{"name":"ipfsHash","type":"string","indexed":false,"internalType":"string"}],"anonymous":false}],"bytecode":{"object":"0x608060405234620001075762001e5c803803806200001d816200011f565b9283398101606082820312620001075781516001600160401b0390818111620001075783019180601f84011215620001075782519182116200010b5760209262000070601f8401601f191685016200011f565b9183835284848301011162000107575f5b838110620000f35785620000ac6040620000a4885f818a8a010152840162000145565b920162000145565b600380546001600160a01b03199081166001600160a01b0394851617909155600480548216331790556005805490911691909216179055604051611d0190816200015b8239f35b818101850151838201860152840162000081565b5f80fd5b634e487b7160e01b5f52604160045260245ffd5b6040519190601f01601f191682016001600160401b038111838210176200010b57604052565b51906001600160a01b0382168203620001075756fe60406080815260049081361015610014575f80fd5b5f9160e05f35811c908163018146701461105e57816306d48e671461102b5781630b333cbe146110035781630ed04f8714610be75781632947ef38146102d15781632b1f4ad614610264578163381064a114610ac057816339bf397e14610aa05781633d6b00ff14610a0157816350c946fe146109565781635ef268d1146108ca57816363d0e0e4146108a05781637a5f4f3614610616578163954ca52a146104a6578163a1174e7d14610419578163aa0980c914610319578163c45a0155146102f1578163cc7bed3f146102d1578163d37684ff14610292578163d56d229d14610264578163d86e697d14610165575063fe72ae1314610113575f80fd5b346101615760203660031901126101615735600154811015610161576020925060015f527fb10e2d527612073b26eecdfd717e6a320cf44b4afac2b0732d9fcbe2b7fa0cf601549051908152f35b8280fd5b90508284346102615760203660031901126102615760096020936102488461025d9561023a958935815280895220948591825460018401549a60018060a01b036003860154169085015460ff600587015416918451946101d3866101cc8160068c0161120f565b0387611122565b61020f60ff600883519a6101f58c6101ee816007850161120f565b038d611122565b0154169c6102088351809e81930161120f565b038c611122565b80519e8f9e8f61012097815201528d015260608c0152151560808b01528060a08b015289019061109f565b9087820360c089015261109f565b9215159085015283820361010085015261109f565b0390f35b80fd5b5050503461028e578160031936011261028e5760055490516001600160a01b039091168152602090f35b5080fd5b5050346101615760203660031901126101615760028261025d946102be93358152806020522001611820565b90519182916020835260208301906111a4565b5050503461028e578160031936011261028e576020906002549051908152f35b5050346101615782600319360112610161575490516001600160a01b03909116815260209150f35b8385843461028e57602090816003193601126101615780358352828252600b84842001918254916001600160401b03831161040657509290845190610363858260051b0183611122565b8082528482018094845285842084915b8383106103d457505050508451938085019181865251809252858501958260051b8601019392955b8287106103a85785850386f35b9091929382806103c4600193603f198a8203018652885161109f565b960192019601959291909261039b565b60018881928b9a97989a516103f4816103ed818961120f565b0382611122565b81520192019201919096949396610373565b634e487b7160e01b855260419052602484fd5b838534610261578060031936011261026157508051600180548083525f828152602080850195937fb10e2d527612073b26eecdfd717e6a320cf44b4afac2b0732d9fcbe2b7fa0cf693909290915b8282106104915761025d878761047f828c0383611122565b519182916020835260208301906111a4565b84548852968701969383019390830190610467565b9050839134610161576080366003190112610161576001600160401b03918135838111610612576104da903690840161115e565b9260243581811161060e576104f2903690850161115e565b9060643590811161060e5761050a903690850161115e565b926002546105cb5780546001600160a01b03919082163303610588575090610582959691600354169180519561053f876110eb565b888752602087015285015260016060850152608084015261055e6115ca565b60a084015261056b6115ca565b60c08401526044359083015261010082015261197f565b60025580f35b606490602089519162461bcd60e51b8352820152601b60248201527f4f6e6c7920666163746f72792063616e20696e697469616c697a6500000000006044820152fd5b606490602088519162461bcd60e51b8352820152601d60248201527f526f6f74206e6f646520616c726561647920696e697469616c697a65640000006044820152fd5b8580fd5b8480fd5b505082346102615760603660031901126102615781356001600160401b0360243581811161089c5761064b903690860161115e565b9060443590811161089c57610663903690860161115e565b94828452602084815261067a828620541515611414565b83855284815281852060030154336001600160a01b039182161490811561088e575b501561084157828101969495869590865b868852878452600b858920018054821015610833576106de6106d2836103ed936112a0565b5087519283809261120f565b84815191012086518b20146106f5576001016106ad565b50909192939495965060015b15610789575b5081816107636107839361075587968c600a7f357e5cb1694f912c3cfad0ec2ce0efd019b52b7b8f94154f0ca7a607a2337e349b9a8e8e815280855220018951809481938d5192839161107e565b820190815203019020611456565b610776845195858796875286019061109f565b918483039085015261109f565b0390a280f35b96858752868352600b84882001805490600160401b82101561082057906107b5916001820181556112a0565b61080e578798508261075585610783969594600a898c9d7f357e5cb1694f912c3cfad0ec2ce0efd019b52b7b8f94154f0ca7a607a2337e349d6107fb8e6107639a611456565b505050509b9a9950505092935050610707565b634e487b7160e01b8852878952602488fd5b634e487b7160e01b895260418a52602489fd5b505090919293949596610701565b8590608492519162461bcd60e51b8352820152602260248201527f4e6f7420617574686f72697a656420746f207570646174652074686973206e6f604482015261646560f01b6064820152fd5b90506003541633148861069c565b8380fd5b5050913461026157602036600319011261026157506108c160209235611870565b90519015158152f35b5050346101615781600319360112610161576024356001600160401b03811161089c5761092960208493600a61093d9661025d9861090e610944973690860161115e565b9335815280855220018286519483868095519384920161107e565b82019081520301902082519384809261120f565b0383611122565b5191829160208352602083019061109f565b9293905034610261576020366003190112610261579060098461025d93833581528060205220948554946109e260018801549760018060a01b0360038201541695810154928060ff600584015416956109cb6109b460028601611820565b946109c48351809b81930161120f565b0389611122565b80519b8c9b8c5260208c01528a01528801906111a4565b9360608701526080860152151560a085015283820360c085015261109f565b5050346101615760c0366003190112610161576001600160401b0360243581811161061257610a33903690840161115e565b9360443582811161028e57610a4b903690850161115e565b91606435918215158303610261576084359182116102615750610a71903690850161115e565b60a435929091906001600160a01b0384168403610a9c57602096610a9595356115fa565b9051908152f35b5f80fd5b5050503461028e578160031936011261028e576020906001549051908152f35b90503461089c578060031936011261089c578135906001600160401b0390602435828111610be357610af5903690860161115e565b90604435838111610bdf57610b0d903690870161115e565b94606435848111610bdb57610b25903690830161115e565b93608435818111610bd757610b3d903690840161115e565b9160a435918211610bd757610b549136910161115e565b9360c4356001600160a01b03811690819003610a9c5789610a95988860209c52818c528a82205415801590610bcf575b610b8d9061157e565b610b9687611890565b968b5199610ba38b6110eb565b8a528c8a01528a8901526060880152608087015260a086015260c085015283015261010082015261197f565b508815610b84565b8980fd5b8880fd5b8780fd5b8680fd5b50509034610a9c576080366003190112610a9c578135906001600160401b0360248035828111610a9c57610c1e903690870161115e565b91604435908111610a9c57610c36903690870161115e565b906064359560018060a01b03808816809803610a9c57865f526020925f8452610c63875f20541515611414565b875f525f845288826003895f2001541603610fb257845115610fab5786516434b833399d60d91b85820152610cb56025828851610ca5818484018b8d0161107e565b8101036005810184520182611122565b915b885f525f8552610ccc8660078a5f2001611456565b885f525f8552875f2060ff6008820154165f14610f65575080600554168851630332346360e41b81528a868201525f818581855afa908115610f5b578d969594939291610d20915f91610f39575b50611890565b610d298a611890565b81811115610e8e57610d3b925061155d565b816005541690813b15610be357869060a48d838e519586948593635c534a8560e01b85528c8501528984015260606044840152601160648401527021b7b73a32b73a1032bc3830b739b4b7b760791b60848401525af18015610e8457908691610e70575b50505b60055416803b156106125789858a95610dd982968851988997889687956328fed50360e21b8752860152840152604483019061109f565b03925af18015610e6657610e4c575b50507fdc0a1d972427c3825b553fd18d4b73f971928c6aab575e0d1184b63af61e2e1093610e399392610776610e46935b888b528a81526009848c200195845197889760608952606089019061120f565b918783039088015261109f565b0390a380f35b610e58909493946110c4565b610be357865f939293610de8565b86513d84823e3d90fd5b610e79906110c4565b61061257845f610d9f565b8a513d88823e3d90fd5b90808210610e9f575b505050610da2565b610eae9293949596975061155d565b813b15610a9c575f9060a48c838d5195869485936346837d3560e11b85528c8501528984015260606044840152601160648401527021b7b73a32b73a103932b23ab1ba34b7b760791b60848401525af18015610f2f57610f16575b9081808d96959493610e97565b610f24919493929b506110c4565b5f999091925f610f09565b89513d5f823e3d90fd5b610f5591503d805f833e610f4d8183611122565b8101906112c9565b5f610d1a565b8a513d5f823e3d90fd5b7fdc0a1d972427c3825b553fd18d4b73f971928c6aab575e0d1184b63af61e2e109894506107769250610e46959150610e399796936006610fa69201611456565b610e19565b8591610cb7565b6027915060849387519362461bcd60e51b85528401528201527f417574686f7220706172616d65746572206d757374206d61746368206e6f64656044820152661030baba3437b960c91b6064820152fd5b8334610a9c575f366003190112610a9c5760035490516001600160a01b039091168152602090f35b828434610a9c576020366003190112610a9c5761104b61025d92356113d7565b905191829160208352602083019061109f565b828434610a9c576020366003190112610a9c5761104b61025d923561132a565b5f5b83811061108f5750505f910152565b8181015183820152602001611080565b906020916110b88151809281855285808601910161107e565b601f01601f1916010190565b6001600160401b0381116110d757604052565b634e487b7160e01b5f52604160045260245ffd5b61012081019081106001600160401b038211176110d757604052565b602081019081106001600160401b038211176110d757604052565b90601f801991011681019081106001600160401b038211176110d757604052565b6001600160401b0381116110d757601f01601f191660200190565b81601f82011215610a9c5780359061117582611143565b926111836040519485611122565b82845260208383010111610a9c57815f926020809301838601378301015290565b9081518082526020808093019301915f5b8281106111c3575050505090565b8351855293810193928101926001016111b5565b90600182811c92168015611205575b60208310146111f157565b634e487b7160e01b5f52602260045260245ffd5b91607f16916111e6565b80545f939261121d826111d7565b918282526020936001916001811690815f146112815750600114611243575b5050505050565b90939495505f92919252835f2092845f945b83861061126d57505050500101905f8080808061123c565b805485870183015294019385908201611255565b60ff19168685015250505090151560051b010191505f8080808061123c565b80548210156112b5575f5260205f2001905f90565b634e487b7160e01b5f52603260045260245ffd5b602081830312610a9c578051906001600160401b038211610a9c570181601f82011215610a9c5780516112fb81611143565b926113096040519485611122565b81845260208284010111610a9c57611327916020808501910161107e565b90565b805f525f602052604090815f2054156113c657805f525f602052815f2060ff6008820154165f146113b057506005548251630332346360e41b815260048101929092525f90829060249082906001600160a01b03165afa9182156113a757505f91611393575090565b61132791503d805f833e610f4d8183611122565b513d5f823e3d90fd5b61132791506103ed60069351809481930161120f565b50516113d181611107565b5f815290565b805f525f60205260405f205415611407575f525f6020526103ed611327600960405f20016040519283809261120f565b506040516113d181611107565b1561141b57565b60405162461bcd60e51b8152602060048201526013602482015272139bd91948191bd95cc81b9bdd08195e1a5cdd606a1b6044820152606490fd5b91909182516001600160401b0381116110d75761147382546111d7565b601f8111611518575b50602080601f83116001146114b75750819293945f926114ac575b50508160011b915f199060031b1c1916179055565b015190505f80611497565b90601f19831695845f5260205f20925f905b888210611500575050836001959697106114e8575b505050811b019055565b01515f1960f88460031b161c191690555f80806114de565b806001859682949686015181550195019301906114c9565b825f5260205f20601f830160051c81019160208410611553575b601f0160051c01905b818110611548575061147c565b5f815560010161153b565b9091508190611532565b9190820391821161156a57565b634e487b7160e01b5f52601160045260245ffd5b1561158557565b60405162461bcd60e51b815260206004820152601a60248201527f506172656e74206e6f646520646f6573206e6f742065786973740000000000006044820152606490fd5b60405190604082018281106001600160401b038211176110d75760405260048252634e4f444560e01b6020830152565b939291949094845f526020925f8452604090815f205415801590611818575b6116229061157e565b15611687578661163461132798611890565b94825197611641896110eb565b88528701528501525f60608501526001600160a01b031660808401526116656115ca565b60a08401526116726115ca565b60c084015260e083015261010082015261197f565b6117da83969594926117cc6117be997fe89ecc3525af4a916e471dd1e3af5a8a6f18b5841c5c5c408deae049648636919685516116dd816116cf8d868c8401964290886118aa565b03601f198101835282611122565b5190209a8b98895f525f8852611792875f208b81558c6001820155600381019d60018060a01b03169d8e6001600160601b0360a01b8254161790554260048201556005810160ff1990818154169055600882019081541690556117438360098301611456565b6117508760078301611456565b888a88805115155f1461180c576025610ca59261178a926006955194826434b833399d60d91b87948501528251928391868601910161107e565b915b01611456565b61179b8a6118e5565b8a6117f2575b5f8751988998610100928392428c528b015289015287019061109f565b90858203606087015261109f565b90838203608085015261109f565b5f60a08301525f60c08301525f60e08301520390a490565b8a5f525f88526118078a6002895f200161192c565b6117a1565b5050506006859161178c565b508615611619565b90604051918281549182825260209260208301915f5260205f20935f905b8282106118565750505061185492500383611122565b565b85548452600195860195889550938101939091019061183e565b5f525f60205260405f2080541561188b576008015460ff1690565b505f90565b5180156118a4576003900480156118a45790565b50600190565b909160549493926001600160601b03199060601b16825260148201526118da82518093602060348501910161107e565b019060348201520190565b600154600160401b8110156110d75760018101806001558110156112b55760015f527fb10e2d527612073b26eecdfd717e6a320cf44b4afac2b0732d9fcbe2b7fa0cf60155565b8054600160401b8110156110d757611949916001820181556112a0565b819291549060031b91821b915f19901b1916179055565b90816020910312610a9c57516001600160a01b0381168103610a9c5790565b608081019060018060a01b039182815116602080840180519285516119b46040956116cf8751938492888401964290886118aa565b51902095865f525f8352835f2095878755805160018801558186511660038801906001600160601b0360a01b8254161790554260048801556060810180511515906005890160ff199260ff84835416911617905561010091600160088486019b611a228d5160098301611456565b8d8b880195611a35875160078501611456565b611a3e826118e5565b511580611cc1575b611ca5575b500180549092161790558051805115611c9c57611a866025895180936434b833399d60d91b8b830152610ca5815180928d868601910161107e565b945b86856005541696868b5116978d60a0880151998c60c08a015160e08b015191519c8d968795869563720257c960e11b8752600487015260248601526044850160c0905260c48501611ad89161109f565b906003199182868203016064870152611af09161109f565b90848203016084850152611b039161109f565b9060a483015203915a905f91f1958615611c92575f96611c63575b50600554885163abb23f5b60e01b815260048101889052949086168886602481845afa958615610f5b5760249695949392918a915f97611c44575b508b5197888092635d3dd4e960e01b82528c60048301525afa958615610f5b579187969593918e9b9a999895935f97611c13575b508590519c51169c519051915192808b519b8c9b428d528c01600190528b01528901611bb89161109f565b88810360608a0152611bc99161109f565b8781036080890152611bda9161109f565b9460a08701521660c08501521660e0830152037fe89ecc3525af4a916e471dd1e3af5a8a6f18b5841c5c5c408deae0496486369191a490565b86919750611c36908b3d8d11611c3d575b611c2e8183611122565b810190611960565b9690611b8d565b503d611c24565b611c5c919750823d8411611c3d57611c2e8183611122565b955f611b59565b9095508681813d8311611c8b575b611c7b8183611122565b81010312610a9c5751945f611b1e565b503d611c71565b88513d5f823e3d90fd5b50845194611a88565b611cbb9088515f525f8c5260028d5f200161192c565b8d611a4b565b5087511515611a4656fea2646970667358221220a26fbf9713ca47f112965c0f3a2d60cb302d7aa7575540ce7ed668550455f88664736f6c63430008180033","linkReferences":{}},"methodIdentifiers":{"addNode(bytes32,string,string,bool,string,address)":"3d6b00ff","addNodeWithToken(bytes32,string,string,string,string,string,address)":"381064a1","allNodes(uint256)":"fe72ae13","factory()":"c45a0155","getAllNodes()":"a1174e7d","getChildren(bytes32)":"d37684ff","getNFTContract()":"2b1f4ad6","getNode(bytes32)":"50c946fe","getNodeContent(bytes32)":"01814670","getNodeCount()":"39bf397e","getNodeMetadata(bytes32,string)":"5ef268d1","getNodeMetadataKeys(bytes32)":"aa0980c9","getNodeModelId(bytes32)":"06d48e67","getRootId()":"2947ef38","initializeRootNodeWithToken(string,string,uint256,string)":"954ca52a","nftContract()":"d56d229d","nodeHasNFT(bytes32)":"63d0e0e4","nodes(bytes32)":"d86e697d","rootId()":"cc7bed3f","setNodeMetadata(bytes32,string,string)":"7a5f4f36","treeOwner()":"0b333cbe","updateNodeContent(bytes32,string,string,address)":"0ed04f87"},"id":4}