{"abi":[{"type":"constructor","inputs":[],"stateMutability":"nonpayable"},{"type":"function","name":"SALT","inputs":[],"outputs":[{"name":"","type":"bytes32","internalType":"bytes32"}],"stateMutability":"view"},{"type":"function","name":"allTrees","inputs":[{"name":"","type":"uint256","internalType":"uint256"}],"outputs":[{"name":"","type":"bytes32","internalType":"bytes32"}],"stateMutability":"view"},{"type":"function","name":"createTree","inputs":[{"name":"rootContent","type":"string","internalType":"string"},{"name":"rootTokenSupply","type":"uint256","internalType":"uint256"},{"name":"modelId","type":"string","internalType":"string"},{"name":"creator","type":"address","internalType":"address"}],"outputs":[{"name":"","type":"address","internalType":"address"}],"stateMutability":"nonpayable"},{"type":"function","name":"getAllTrees","inputs":[],"outputs":[{"name":"","type":"bytes32[]","internalType":"bytes32[]"}],"stateMutability":"view"},{"type":"function","name":"getNFTFactory","inputs":[],"outputs":[{"name":"","type":"address","internalType":"address"}],"stateMutability":"view"},{"type":"function","name":"getSalt","inputs":[],"outputs":[{"name":"","type":"bytes32","internalType":"bytes32"}],"stateMutability":"pure"},{"type":"function","name":"getTree","inputs":[{"name":"treeId","type":"bytes32","internalType":"bytes32"}],"outputs":[{"name":"","type":"address","internalType":"address"}],"stateMutability":"view"},{"type":"function","name":"getTreeCount","inputs":[],"outputs":[{"name":"","type":"uint256","internalType":"uint256"}],"stateMutability":"view"},{"type":"function","name":"getTreeNFTContract","inputs":[{"name":"treeId","type":"bytes32","internalType":"bytes32"}],"outputs":[{"name":"","type":"address","internalType":"address"}],"stateMutability":"view"},{"type":"function","name":"getUserTrees","inputs":[{"name":"user","type":"address","internalType":"address"}],"outputs":[{"name":"","type":"bytes32[]","internalType":"bytes32[]"}],"stateMutability":"view"},{"type":"function","name":"nftFactory","inputs":[],"outputs":[{"name":"","type":"address","internalType":"contract LoomNFTFactory"}],"stateMutability":"view"},{"type":"function","name":"treeNFTContracts","inputs":[{"name":"","type":"bytes32","internalType":"bytes32"}],"outputs":[{"name":"","type":"address","internalType":"address"}],"stateMutability":"view"},{"type":"function","name":"trees","inputs":[{"name":"","type":"bytes32","internalType":"bytes32"}],"outputs":[{"name":"","type":"address","internalType":"address"}],"stateMutability":"view"},{"type":"function","name":"userTrees","inputs":[{"name":"","type":"address","internalType":"address"},{"name":"","type":"uint256","internalType":"uint256"}],"outputs":[{"name":"","type":"bytes32","internalType":"bytes32"}],"stateMutability":"view"},{"type":"event","name":"TreeCreated","inputs":[{"name":"treeId","type":"bytes32","indexed":true,"internalType":"bytes32"},{"name":"treeAddress","type":"address","indexed":true,"internalType":"address"},{"name":"nftContractAddress","type":"address","indexed":true,"internalType":"address"},{"name":"creator","type":"address","indexed":false,"internalType":"address"},{"name":"rootContent","type":"string","indexed":false,"internalType":"string"}],"anonymous":false}],"bytecode":{"object":"0x608060409080825234610107576001600160401b03906101fd818101838111838210176100e9578291612589833903905ff09081156100df578251610823808201828110848211176100e957829161753e833903905ff080156100fd5783516001600160a01b03939092614db891828501918211858310176100e957606093868092879561278687391683521660208201527f01336ddc137491ae7d4bc039ac3e7d3c3918b3c6ed95a9f36d46fe9d5e20da64868201520301905ff080156100df571660018060a01b031960045416176004555161247d908161010c8239f35b82513d5f823e3d90fd5b634e487b7160e01b5f52604160045260245ffd5b83513d5f823e3d90fd5b5f80fdfe6080604081815260049182361015610015575f80fd5b5f925f3560e01c91826313a9589c146106d3575081632167fc89146104d85781632b8645ab146105b7578163483fdd551461067c5781635028f70b1461065e5781635bcde5c5146105e65781636934b6e7146105b75781637fb345f2146104ff5781638f8a210014610567578163ba9a91a51461052d578163c473e933146104ff578163d63843cd146104d8578163f7076a6114610148575063f9ddc348146100bc575f80fd5b34610144576020906020600319360112610140576001600160a01b036100e061070b565b168352600260205280832092815180936020865492838152019583526020832092905b82821061012957610125868661011b828b03836107ad565b519182918261074a565b0390f35b835487529586019560019384019390910190610103565b8280fd5b5080fd5b90503461048257600319916080368401126104825767ffffffffffffffff9382358581116104825761017d90369085016107cf565b6024946044358781116104825761019790369087016107cf565b946064359660018060a01b039485891693848a036104825787519960209a8b8101916bffffffffffffffffffffffff199060601b1682524260348201528088518d8160548401918c01916101ea92610825565b81010360348101825260540161020090826107ad565b51902096838b828754168b5192838092635363f49160e11b82528d8b8301525a905f91f1908115610486575f916104a2575b50895190611bdc8083019e8f90848210911117610490579c809e848d9e9f938b61026b8e889761086c8939606086526060860190610846565b94840152169c8d91015203905ff08015610486571699883b156104825789516317dc43d760e21b81528581018c90525f818681838e5af1801561047857610465575b508a3b1561014057868b606085886102fa8f9783976102e59951998a9889978896630e5c222b60e41b88528701526064860190610846565b918c358d860152848303016044850152610846565b03925af1801561045b5790899291610440575b50868152808b528181206bffffffffffffffffffffffff60a01b908b8282541617905560018c52888383209182541617905584815260028b522091825468010000000000000000938482101561042e579061036d91600182018155610721565b81549060031b9088821b915f19901b19161790556003549283101561041d57600183018060035583101561040c575050917f1589938c18f4610dfb4cf743862d012abe13cc16505ae7fdef46672b8096a536918488959460035f527fc2575a0e9e593c00f959f8c92f12db2869c3395a3b0502d05e2516446f71f85b015561040387519283928352888b84015288830190610846565b0390a451908152f35b603290634e487b7160e01b5f52525ffd5b604190634e487b7160e01b5f52525ffd5b83604184634e487b7160e01b5f52525ffd5b81925061044c90610785565b6104585787905f61030d565b80fd5b89513d84823e3d90fd5b610470919350610785565b5f915f6102ad565b8b513d5f823e3d90fd5b5f80fd5b8a513d5f823e3d90fd5b86604189634e487b7160e01b5f52525ffd5b90508b81813d83116104d1575b6104b981836107ad565b8101031261048257518181168103610482575f610232565b503d6104af565b8234610482575f36600319011261048257905490516001600160a01b039091168152602090f35b823461048257602036600319011261048257602091355f525f825260018060a01b03815f2054169051908152f35b8234610482575f36600319011261048257602090517f01336ddc137491ae7d4bc039ac3e7d3c3918b3c6ed95a9f36d46fe9d5e20da648152f35b9050346104825760203660031901126104825735906003548210156104825760209160035f527fc2575a0e9e593c00f959f8c92f12db2869c3395a3b0502d05e2516446f71f85b01549051908152f35b823461048257602036600319011261048257602091355f526001825260018060a01b03815f2054169051908152f35b8234610482575f366003190112610482578051600380548083525f918252602080840194927fc2575a0e9e593c00f959f8c92f12db2869c3395a3b0502d05e2516446f71f85b92915b82821061064757610125868661011b828b03836107ad565b83548752958601956001938401939091019061062f565b8234610482575f366003190112610482576020906003549051908152f35b823461048257806003193601126104825761069561070b565b6001600160a01b03165f90815260026020528190208054602435929190831015610482576020926106c591610721565b91905490519160031b1c8152f35b34610482575f36600319011261048257807f01336ddc137491ae7d4bc039ac3e7d3c3918b3c6ed95a9f36d46fe9d5e20da6460209252f35b600435906001600160a01b038216820361048257565b8054821015610736575f5260205f2001905f90565b634e487b7160e01b5f52603260045260245ffd5b60209060206040818301928281528551809452019301915f5b828110610771575050505090565b835185529381019392810192600101610763565b67ffffffffffffffff811161079957604052565b634e487b7160e01b5f52604160045260245ffd5b90601f8019910116810190811067ffffffffffffffff82111761079957604052565b81601f820112156104825780359067ffffffffffffffff82116107995760405192610804601f8401601f1916602001856107ad565b8284526020838301011161048257815f926020809301838601378301015290565b5f5b8381106108365750505f910152565b8181015183820152602001610827565b9060209161085f81518092818552858086019101610825565b601f01601f191601019056fe608060405234620001075762001bdc803803806200001d816200011f565b9283398101606082820312620001075781516001600160401b0390818111620001075783019180601f84011215620001075782519182116200010b5760209262000070601f8401601f191685016200011f565b9183835284848301011162000107575f5b838110620000f35785620000ac6040620000a4885f818a8a010152840162000145565b920162000145565b600380546001600160a01b03199081166001600160a01b0394851617909155600480548216331790556005805490911691909216179055604051611a8190816200015b8239f35b818101850151838201860152840162000081565b5f80fd5b634e487b7160e01b5f52604160045260245ffd5b6040519190601f01601f191682016001600160401b038111838210176200010b57604052565b51906001600160a01b0382168203620001075756fe60406080815260049081361015610014575f80fd5b5f9160e05f35811c9081630181467014610e2557816306d48e6714610df257816307dde77714610d795781630b333cbe14610d515781632947ef38146107035781632b1f4ad61461069c57816339bf397e14610d3357816350c946fe14610c905781635ef268d114610c2757816363d0e0e414610bff5781636773234714610afe5781637a5f4f36146108d1578163a1174e7d14610846578163aa0980c914610749578163c45a015514610721578163cc7bed3f14610703578163d37684ff146106c4578163d56d229d1461069c578163d86e697d146105d1578163e5c222b01461048c57508063f8a45447146101655763fe72ae1314610113575f80fd5b346101615760203660031901126101615735600154811015610161576020925060015f527fb10e2d527612073b26eecdfd717e6a320cf44b4afac2b0732d9fcbe2b7fa0cf601549051908152f35b8280fd5b5090346104145761017536610f9e565b815f939293526020935f855261018f835f205415156114a7565b5f848152808652839020600301546001600160a01b039081163314801561047f575b6101ba906114e9565b845f525f8652835f2060ff6007820154165f14610444575080600554168451630332346360e41b815286848201525f81602481855afa90811561043a5789959493929161020e915f91610418575b50611723565b61021785611723565b8181111561036b576102299250611647565b816005541690813b1561036757859160a4839289519485938492635c534a8560e01b84528d8a850152602484015260606044840152601160648401527021b7b73a32b73a1032bc3830b739b4b7b760791b60848401525af1801561035d57908591610349575b50505b6005541691823b1561033b576102cc92868580948851968795869485936328fed50360e21b85528401528a60248401526044830190610e66565b03925af1801561033f57610327575b50506103217faff940cfa0fa5ad5a3bc6eee72da83064accfb42081dc9a0e11c7bfedddf5131915b83865285855260088187200190519182918683523396830190611008565b0390a380f35b61033090610ebb565b61033b57835f6102db565b8380fd5b83513d84823e3d90fd5b61035290610ebb565b61033b57835f61028f565b86513d87823e3d90fd5b8580fd5b9080821061037c575b505050610292565b61038a929394959650611647565b813b15610414575f9160a48392885194859384926346837d3560e11b84528c8a850152602484015260606044840152601160648401527021b7b73a32b73a103932b23ab1ba34b7b760791b60848401525af1801561040a576103f3575b90818089959493610374565b6104009193929750610ebb565b5f9590915f6103e7565b85513d5f823e3d90fd5b5f80fd5b61043491503d805f833e61042c8183610ee9565b8101906110c2565b5f610208565b86513d5f823e3d90fd5b7faff940cfa0fa5ad5a3bc6eee72da83064accfb42081dc9a0e11c7bfedddf513194925061047a91509260066103219401611540565b610303565b50600354811633146101b1565b91905034610414576060366003190112610414576001600160401b03918135838111610414576104bf9036908401610f25565b92604435908111610414576104d79036908401610f25565b9160025461058e5780546001600160a01b0391908216330361054b575093600161054695600354169180519561050c87610e8b565b5f875260208701528501526060840152610524611256565b6080840152610531611256565b60a084015260243560c084015282015261175b565b600255005b606490602087519162461bcd60e51b8352820152601b60248201527f4f6e6c7920666163746f72792063616e20696e697469616c697a6500000000006044820152fd5b606490602086519162461bcd60e51b8352820152601d60248201527f526f6f74206e6f646520616c726561647920696e697469616c697a65640000006044820152fd5b905034610414576020366003190112610414578260086106989284355f525f602052610684835f20805460018201549760018060a01b036003840154169083015460ff60058501541691610657895195610639876106328160068501611008565b0388610ee9565b61065060ff6007830154169b51809b819301611008565b0389610ee9565b8b519b8c9b610100958d5260208d01528b015260608a0152151560808901528060a0890152870190610e66565b92151560c086015284830390850152610e66565b0390f35b8334610414575f3660031901126104145760055490516001600160a01b039091168152602090f35b8284346104145760203660031901126104145761069891355f525f6020526106f06002825f2001611437565b9051918291602083526020830190610f6b565b8334610414575f366003190112610414576020906002549051908152f35b828434610414575f36600319011261041457905490516001600160a01b039091168152602090f35b50503461041457602090816003193601126104145780355f525f8252600a835f2001908154906001600160401b038211610833575091835192610791828260051b0185610ee9565b80845281840180935f52825f205f915b83831061080357505050508351928184019082855251809152848401948160051b85010192915f955b8287106107d75785850386f35b9091929382806107f3600193603f198a82030186528851610e66565b96019201960195929190926107ca565b60018581928a999799516108228161081b8189611008565b0382610ee9565b8152019201920191909593956107a1565b604190634e487b7160e01b5f525260245ffd5b8334610414575f366003190112610414578051600180548083525f828152602080850195937fb10e2d527612073b26eecdfd717e6a320cf44b4afac2b0732d9fcbe2b7fa0cf693909290915b8282106108bc5761069887876108aa828c0383610ee9565b51918291602083526020830190610f6b565b84548852968701969383019390830190610892565b5050346104145760603660031901126104145780356001600160401b03602435818111610414576109059036908501610f25565b906044359081116104145761091d9036908501610f25565b93825f526020945f8652610935825f205415156114a7565b5f8481528087528290206003015461096290336001600160a01b0391821614908115610af0575b506114e9565b5f9483870190865b865f525f8952600a855f20018054821015610ae35761099b61098f8361081b93611099565b50875192838092611008565b89815191012086518420146109b25760010161096a565b509091929394955060015b15610a43575b509481610a1e610a3e93610a1084899a7f357e5cb1694f912c3cfad0ec2ce0efd019b52b7b8f94154f0ca7a607a2337e349a5f525f82526009895f20018951809481938d51928391610e45565b820190815203019020611540565b610a318451958587968752860190610e66565b9184830390850152610e66565b0390a2005b855f525f8752600a845f2001805490600160401b821015610ad05790610a6e91600182018155611099565b919091610abe575091610a1e81610a10897f357e5cb1694f912c3cfad0ec2ce0efd019b52b7b8f94154f0ca7a607a2337e34999a95610ab08a610a3e99611540565b9550999850509350506109c3565b5f90634e487b7160e01b82525260245ffd5b604183634e487b7160e01b5f525260245ffd5b50509091929394956109bd565b90506003541633148861095c565b8383346104145760c0366003190112610414578035602435936001600160401b039485811161041457610b349036908501610f25565b9060443586811161041457610b4c9036908601610f25565b9560643581811161041457610b649036908701610f25565b9460843591821161041457610b7b91369101610f25565b9160a4359460018060a01b03861680960361041457602097610bf096865f525f8a52885f205415801590610bf7575b610bb39061120a565b610bbc84611723565b93895197610bc989610e8b565b88528a8801525f898801526060870152608086015260a085015260c084015282015261175b565b9051908152f35b508615610baa565b82843461041457602036600319011261041457610c1e60209235611487565b90519015158152f35b833461041457610c7761069891610c7e610c636020610c4536610f9e565b905f525f82526009855f200182865194838680955193849201610e45565b820190815203019020825193848092611008565b0383610ee9565b51918291602083526020830190610e66565b91905034610414576020366003190112610414578061069891355f525f6020526008845f2094855494610d1460018801549760018060a01b0360038201541695810154928060ff60058401541695610cfd610ced60028601611437565b946106508351809b819301611008565b80519b8c9b8c5260208c01528a0152880190610f6b565b9360608701526080860152151560a085015283820360c0850152610e66565b8334610414575f366003190112610414576020906001549051908152f35b8334610414575f3660031901126104145760035490516001600160a01b039091168152602090f35b8284346104145760a0366003190112610414576001600160401b039160243583811161041457610dac9036908301610f25565b926044359081151582036104145760643590811161041457610dd19036908401610f25565b608435916001600160a01b038316830361041457602095610bf09435611286565b82843461041457602036600319011261041457610e1261069892356111cd565b9051918291602083526020830190610e66565b82843461041457602036600319011261041457610e126106989235611120565b5f5b838110610e565750505f910152565b8181015183820152602001610e47565b90602091610e7f81518092818552858086019101610e45565b601f01601f1916010190565b61010081019081106001600160401b03821117610ea757604052565b634e487b7160e01b5f52604160045260245ffd5b6001600160401b038111610ea757604052565b602081019081106001600160401b03821117610ea757604052565b90601f801991011681019081106001600160401b03821117610ea757604052565b6001600160401b038111610ea757601f01601f191660200190565b81601f8201121561041457803590610f3c82610f0a565b92610f4a6040519485610ee9565b8284526020838301011161041457815f926020809301838601378301015290565b9081518082526020808093019301915f5b828110610f8a575050505090565b835185529381019392810192600101610f7c565b9060406003198301126104145760043591602435906001600160401b03821161041457610fcd91600401610f25565b90565b90600182811c92168015610ffe575b6020831014610fea57565b634e487b7160e01b5f52602260045260245ffd5b91607f1691610fdf565b80545f939261101682610fd0565b918282526020936001916001811690815f1461107a575060011461103c575b5050505050565b90939495505f92919252835f2092845f945b83861061106657505050500101905f80808080611035565b80548587018301529401938590820161104e565b60ff19168685015250505090151560051b010191505f80808080611035565b80548210156110ae575f5260205f2001905f90565b634e487b7160e01b5f52603260045260245ffd5b602081830312610414578051906001600160401b038211610414570181601f820112156104145780516110f481610f0a565b926111026040519485610ee9565b8184526020828401011161041457610fcd9160208085019101610e45565b805f525f602052604090815f2054156111bc57805f525f602052815f2060ff6007820154165f146111a657506005548251630332346360e41b815260048101929092525f90829060249082906001600160a01b03165afa91821561119d57505f91611189575090565b610fcd91503d805f833e61042c8183610ee9565b513d5f823e3d90fd5b610fcd915061081b600693518094819301611008565b50516111c781610ece565b5f815290565b805f525f60205260405f2054156111fd575f525f60205261081b610fcd600860405f200160405192838092611008565b506040516111c781610ece565b1561121157565b60405162461bcd60e51b815260206004820152601a60248201527f506172656e74206e6f646520646f6573206e6f742065786973740000000000006044820152606490fd5b60405190604082018281106001600160401b03821117610ea75760405260048252634e4f444560e01b6020830152565b929193835f526020915f8352604095865f20541580159061142f575b6112ab9061120a565b1561130b57610fcd95816112bf5f93611723565b948251976112cc89610e8b565b88528701528501526001600160a01b031660608401526112ea611256565b60808401526112f7611256565b60a084015260c083015260e082015261175b565b915f906113fd8560c0896113d68a99887f263caaab456acf4cc2344c2de129b8f7303103355f0e198a120bdd6983cb59a0999c61136760089f6113598e91519384928d840196429088611668565b03601f198101835282610ee9565b519020808952888852838920818155600181018d90556003810180546001600160a01b0319166001600160a01b03909f169e8f17905542600482015560058101805460ff19908116909155919e8f9c9092906113c69060068401611540565b6007820190815416905501611540565b6113df886116a8565b88611415575b805195869542875286015284015260c0830190610e66565b5f60608301525f60808301525f60a08301520390a490565b88865285855261142a886002838920016116ef565b6113e5565b5085156112a2565b90604051918281549182825260209260208301915f5260205f20935f905b82821061146d5750505061146b92500383610ee9565b565b855484526001958601958895509381019390910190611455565b5f525f60205260405f208054156114a2576007015460ff1690565b505f90565b156114ae57565b60405162461bcd60e51b8152602060048201526013602482015272139bd91948191bd95cc81b9bdd08195e1a5cdd606a1b6044820152606490fd5b156114f057565b60405162461bcd60e51b815260206004820152602260248201527f4e6f7420617574686f72697a656420746f207570646174652074686973206e6f604482015261646560f01b6064820152608490fd5b91909182516001600160401b038111610ea75761155d8254610fd0565b601f8111611602575b50602080601f83116001146115a15750819293945f92611596575b50508160011b915f199060031b1c1916179055565b015190505f80611581565b90601f19831695845f5260205f20925f905b8882106115ea575050836001959697106115d2575b505050811b019055565b01515f1960f88460031b161c191690555f80806115c8565b806001859682949686015181550195019301906115b3565b825f5260205f20601f830160051c8101916020841061163d575b601f0160051c01905b8181106116325750611566565b5f8155600101611625565b909150819061161c565b9190820391821161165457565b634e487b7160e01b5f52601160045260245ffd5b909160549493926bffffffffffffffffffffffff199060601b168252601482015261169d825180936020603485019101610e45565b019060348201520190565b600154600160401b811015610ea75760018101806001558110156110ae5760015f527fb10e2d527612073b26eecdfd717e6a320cf44b4afac2b0732d9fcbe2b7fa0cf60155565b8054600160401b811015610ea75761170c91600182018155611099565b819291549060031b91821b915f19901b1916179055565b5180156117365760021c80156117365790565b50600190565b9081602091031261041457516001600160a01b03811681036104145790565b6118066060820160018060a01b0392611878848351169460209283810196848851918351611799604094611359865193849287840196429088611668565b51902098895f525f8252825f208a8155845160018201558589511660038201906bffffffffffffffffffffffff60a01b82541617905542600482015560016007858701928d84511515946005830160ff199660ff88835416911617905560e08a019e8f5160088501611540565b61180f826116a8565b511580611a41575b611a25575b50019182541617905584600554168a5f878b5116935193608088015161189a60a08a01519160c08b01519261188b8b519e8f9a8b998a9863720257c960e11b8a5260048a0152602489015260c0604489015260c4880190610e66565b6003199384888303016064890152610e66565b91858303016084860152610e66565b9060a483015203925af1938415611a1b575f946119ec575b50600554815163abb23f5b60e01b815260048101869052929084168684602481845afa9384156119e25760249493929188915f956119c3575b50835195868092635d3dd4e960e01b82528a60048301525afa9384156119b957947f263caaab456acf4cc2344c2de129b8f7303103355f0e198a120bdd6983cb59a0969381938c9996936001985f9561197f575b509060c08461196793519d51169d519180519a8b9a428c528b015289015260c0880190610e66565b9460608701521660808501521660a08301520390a490565b61196792919550846119a860c0928b3d8d116119b2575b6119a08183610ee9565b81019061173c565b969293505061193f565b503d611996565b82513d5f823e3d90fd5b6119db919550823d84116119b2576119a08183610ee9565b935f6118eb565b83513d5f823e3d90fd5b9093508481813d8311611a14575b611a048183610ee9565b810103126104145751925f6118b2565b503d6119fa565b50513d5f823e3d90fd5b611a3b9089515f525f88526002895f20016116ef565b8d61181c565b508851151561181756fea2646970667358221220c112180793fd146238bb6ac9e6109b24368c06abb6d97c6b10f4b34add43d9b864736f6c63430008180033a264697066735822122009bcf596f1288f6a3b34fb937385e29e3388f7e7666ff207aa421e8bc4d04ef264736f6c6343000818003360808060405234610016576101e2908161001b8239f35b5f80fdfe60806040526004361015610011575f80fd5b5f3560e01c8063246a00211461003457638a54c52f1461002f575f80fd5b6100e5565b346100a457610042366100a8565b5050509060806024608c376e5af43d82803e903d91602b57fd5bf3606c52605d52733d60ad80600a3d3981f3363d3d373d3d3d363d7360495260ff5f5360b76055206035523060601b60015260155260018060a01b0360555f20165f5260205ff35b5f80fd5b60a09060031901126100a4576001600160a01b039060043582811681036100a45791602435916044359160643590811681036100a4579060843590565b346100a4576100f3366100a8565b929390915060806024608c376e5af43d82803e903d91602b57fd5bf3606c5280605d52733d60ad80600a3d3981f3363d3d373d3d3d363d7360495260ff5f5360b76055206035523060601b6001528360155260555f2093843b15610164576001600160a01b0385165f908152602090f35b60b760555ff5801561019f57606c527f79f19b3655ee38b1ce526556b7731a20c8f218fbda4a3990b6cc4172fdf887226060606ca46020606cf35b6320188a595f526004601cfdfea264697066735822122067ce9f3da39ba8de45cdce3b02ad4d09db3301c400603e878c77a0374d8089bd64736f6c6343000818003360e0346100a957601f614db838819003918201601f19168301916001600160401b038311848410176100ad578084926060946040528339810103126100a957610047816100c1565b906040610056602083016100c1565b9101516001600160a01b0390921660805260a05260c052604051614ce290816100d6823960805181818160d001526101fb015260a05181818160f5015261023c015260c0518181816061015261011c0152f35b5f80fd5b634e487b7160e01b5f52604160045260245ffd5b51906001600160a01b03821682036100a95756fe608060408181526004361015610013575f80fd5b5f915f3560e01c90816311464fbe1461022a575080637b103999146101e7578063a6c7e922146100885763bfa0b1331461004b575f80fd5b34610084578160031936011261008457602090517f00000000000000000000000000000000000000000000000000000000000000008152f35b5080fd5b5090346101e35760203660031901126101e357815167ffffffffffffffff92906001600160a01b0390614a4180820190868211838310176101c557606091839161026c8339847f0000000000000000000000000000000000000000000000000000000000000000168152847f00000000000000000000000000000000000000000000000000000000000000001660208201527f0000000000000000000000000000000000000000000000000000000000000000868201520301905ff080156101d9571690813b156101e357805163f2fde38b60e01b8152336004820152935f8560248183875af180156101d9576101af575b5060209350519160043590827f2b7b0a64995bd089dbe815890bd92b42e90d4a3e6b2aab84b4427f3b92247f81339280a48152f35b90925083116101c55760209282525f915f61017a565b634e487b7160e01b5f52604160045260245ffd5b82513d5f823e3d90fd5b5f80fd5b50346101e3575f3660031901126101e357517f00000000000000000000000000000000000000000000000000000000000000006001600160a01b03168152602090f35b346101e3575f3660031901126101e3577f00000000000000000000000000000000000000000000000000000000000000006001600160a01b03168152602090f3fe60e034620003f357601f1990601f906001600160401b0362004a4138819003848101861684019190838311858410176200031557808592606094604052833981010312620003f357620000528262000417565b9360209160406200006584860162000417565b9401519162000073620003f7565b9560088752674c6f6f6d4e6f646560c01b8588015262000092620003f7565b60058152644c4e4f444560d81b86820152875184811162000315575f546001998a82811c92168015620003e8575b89831014620002f657818584931162000395575b50889085831160011462000335575f9262000329575b50505f19600383901b1c191690891b175f555b805193841162000315578754928884811c941680156200030a575b87851014620002f65783838695116200029f575b50869284116001146200023e57505f9262000232575b50505f19600383901b1c191690851b1784555b33156200021a5760068054336001600160a01b03198216811790925560405196600b95926001600160a01b039283167f8be0079c531659141344cd1fd0a4f28419497f9722a3daafe3b4186f6b6457e05f80a3866007551660805260a05260c052335f525260405f209060ff1982541617905561461490816200042d82396080518181816105c601528181611ba40152612001015260a05181818161055801528181611b3a015261256b015260c05181818161057f015281816113720152611b660152f35b604051631e4fbdf760e01b81525f6004820152602490fd5b015190505f8062000142565b88949291921691845f52865f20925f5b888282106200028857505084116200026f575b505050811b01845562000155565b01515f1960f88460031b161c191690555f808062000261565b8385015186558b979095019493840193016200024e565b9091929350885f52865f208480870160051c820192898810620002ec575b9187968c92969594930160051c01915b828110620002dd5750506200012c565b5f81558796508b9101620002cd565b92508192620002bd565b634e487b7160e01b5f52602260045260245ffd5b93607f169362000118565b634e487b7160e01b5f52604160045260245ffd5b015190505f80620000ea565b90868c9416915f80528a5f20925f5b8c8282106200037e575050841162000365575b505050811b015f55620000fd565b01515f1960f88460031b161c191690555f808062000357565b8385015186558f9790950194938401930162000344565b9091505f8052885f208580850160051c8201928b8610620003de575b918d91869594930160051c01915b828110620003cf575050620000d4565b5f81558594508d9101620003bf565b92508192620003b1565b91607f1691620000c0565b5f80fd5b60408051919082016001600160401b038111838210176200031557604052565b51906001600160a01b0382168203620003f35756fe6080604052600436101562000012575f80fd5b5f803560e01c80630181467014620027ee57806301ffc9a7146200277957806306fdde0314620026c6578063081812fc1462002686578063095ea7b3146200259a57806311464fbe146200255457806318160ddd146200251457806323b872dd14620024f857806328a1850814620024c457806333234630146200247c5780633dc597f4146200245257806342842e0e1462002400578063475ae03914620023b95780635c534a8514620021e45780635d3dd4e9146200219d5780635f710f5c14620021535780636352211e146200211e5780636bdf34861462001cf65780636c8b703f14620020ee57806370a082311462002091578063715018a614620020305780637b1039991462001fe95780638d06fa6a1462001d4d5780638da5cb5b1462001d2257806392a224131462001cf657806395d89b411462001c0757806396f51a641462001b0f578063a22cb4651462001a66578063a3fb540c14620014db578063aa2fe91b1462001498578063abb23f5b1462001451578063b4f771091462001404578063b88d4fde1462001395578063bfa0b1331462001358578063c6a8212f1462001323578063c87b56dd1462001292578063cc4a5aec146200113e578063ce8884eb146200110e578063cefd439714620010e2578063d0e1055d14620010b2578063d6b47acd14620002e7578063e0cbc7a81462001069578063e404af9214620003b8578063e985e9c51462000360578063ec710ca61462000313578063ed9494c114620002e75763f2fde38b146200024f575f80fd5b34620002e4576020366003190112620002e4576200026c62002880565b6200027662003140565b6001600160a01b03908116908115620002cb57600654826bffffffffffffffffffffffff60a01b821617600655167f8be0079c531659141344cd1fd0a4f28419497f9722a3daafe3b4186f6b6457e05f80a380f35b604051631e4fbdf760e01b815260048101849052602490fd5b80fd5b5034620002e4576020366003190112620002e45760406020916004358152600883522054604051908152f35b5034620002e4576020366003190112620002e45760209060043581526008825260408120546200034581151562002acf565b8152600c8252604060018060a01b0391205416604051908152f35b5034620002e4576040366003190112620002e4576200037e62002880565b60406200038a62002897565b9260018060a01b03809316815260056020522091165f52602052602060ff60405f2054166040519015158152f35b5034620002e45760c0366003190112620002e457620003d662002880565b906044356001600160401b0381116200106557620003f99036906004016200298f565b6064356001600160401b03811162001061576200041b9036906004016200298f565b6084356001600160401b03811162000d7e576200043d9036906004016200298f565b92338152600b60205260ff60408220541680156200104c575b620004619062002f4b565b6024358152600860205260408120546200100857600754926200048484620030f6565b6007556001600160a01b0386161562000fef575f848152600260205260409020546001600160a01b03168062000fbb575b6001600160a01b0387165f818152600360209081526040808320805460010190558883526002909152812080546001600160a01b0319168317905586919083907fddf252ad1be2c89b69c2b068fc378daa952ba7f163c4a11628f55a4df523b3ef9080a462000fa2576024803580845260086020908152604080862088905587865260098252808620929092559051638a54c52f60e01b81526001600160a01b037f00000000000000000000000000000000000000000000000000000000000000001660048201527f00000000000000000000000000000000000000000000000000000000000000009281019290925246604483015230606483015260848201869052909590868060a481010381867f00000000000000000000000000000000000000000000000000000000000000006001600160a01b03165af195861562000f5f57839662000f6a575b50848352600c602052604080842080546001600160a01b0319166001600160a01b038916179055516001600160401b036110ed82019081119082111762000c4e576110ed620034f2823960606110ed82015280620006816200066a60606110ed8401018862002859565b6110ed8301810360206110ed850101528462002859565b60a43560406110ed84010152039084f093841562000f5f57858452600d6020908152604080862080546001600160a01b0319166001600160a01b038916179055600e909152842081516001600160401b03811162000e9157620006e58254620029e6565b601f811162000f19575b50806020601f821160011462000eb157879162000ea5575b508160011b915f199060031b1c19161790555b858452600f6020526040842082516001600160401b03811162000e9157620007438254620029e6565b601f811162000e4b575b50806020601f821160011462000de357879162000dd7575b508160011b915f199060031b1c19161790555b85845260106020908152604080862060a4359055516318160ddd60e01b815290816004816001600160a01b038a165afa90811562000d8f57859162000d9a575b5060405163a9059cbb60e01b81526001600160a01b0389166004820152602481019190915260208180604481010381886001600160a01b038b165af1801562000d8f57908493929162000d41575b5062000a079160b1916200081a8962003193565b916200082860243562003272565b91620008348c620033dd565b620008486001600160a01b038c16620033dd565b906200085660a43562003193565b94604051998a97727b226e616d65223a224c6f6f6d4e6f6465202360681b60208a01526200088f81518092602060338d01910162002836565b8801701116113232b9b1b934b83a34b7b7111d1160791b6033820152620008c182518093602060448501910162002836565b016b1116113737b232a4b2111d1160a11b6044820152620008ed82518093602060508501910162002836565b01761116113a37b5b2b72137bab73220b1b1b7bab73a111d1160491b60508201526200092482518093602060678501910162002836565b01761116113737b232aa37b5b2b721b7b73a3930b1ba111d1160491b60678201526200095b825180936020607e8501910162002836565b016e1116113a37b5b2b72730b6b2911d1160891b607e8201526200098a825180936020608d8501910162002836565b01701116113a37b5b2b729bcb6b137b6111d1160791b608d820152620009bb825180936020609e8501910162002836565b01701116113a37b5b2b729bab838363c911d1160791b609e820152620009ec82518093602060af8501910162002836565b0161227d60f01b60af82015203609181018452018262002916565b848352600a60205260408320908051906001600160401b03821162000d2d57819062000a348454620029e6565b601f811162000cdb575b50602090601f831160011462000c6e57869262000c62575b50508160011b915f199060031b1c19161790555b838252601160205260408220958151966001600160401b03881162000c4e5762000a958154620029e6565b601f811162000c04575b506020978089601f821160011462000ba057869162000b94575b508160011b915f199060031b1c19161790555b847fc8d11bd5e43cbe8a49197cd7df211e3d0ba299f25ec89b2090b06c03b7fd549562000b056040519460608652606086019062002859565b6001600160a01b03898116868c01528781166040870152909316936024359381900390a46040519383907fd4c36cc430dc42b3c38bda0912c1197f54566bd7422b6e2c29fac9e39415df0f906001600160a01b038116837fc4b8a8d86d64119f34964e927b7da67edd99b17cd62a7c5f1c00f27c3dfb68e88680a36001600160a01b0390811694169280a48152f35b90508401515f62000ab9565b8387528a87209150601f198316875b81811062000bec5750908360019493921062000bd3575b5050811b01905562000acc565b8601515f1960f88460031b161c191690555f8062000bc6565b91928c60018192868b01518155019401920162000baf565b81855260208520601f8a0160051c81019160208b1062000c43575b601f0160051c01905b81811062000c37575062000a9f565b85815560010162000c28565b909150819062000c1f565b634e487b7160e01b84526041600452602484fd5b015190505f8062000a56565b9250838652602086209086935b601f198416851062000cbf576001945083601f1981161062000ca6575b505050811b01905562000a6a565b01515f1960f88460031b161c191690555f808062000c98565b8181015183556020948501946001909301929091019062000c7b565b90915083865260208620601f840160051c81016020851062000d25575b90849392915b601f830160051c8201811062000d1657505062000a3e565b88815585945060010162000cfe565b508062000cf8565b634e487b7160e01b85526041600452602485fd5b909192506020813d60201162000d86575b8162000d616020938362002916565b8101031262000d8257518015150362000d7e579082915f62000806565b8380fd5b8480fd5b3d915062000d52565b6040513d87823e3d90fd5b90506020813d60201162000dce575b8162000db86020938362002916565b8101031262000dca57516020620007b8565b5f80fd5b3d915062000da9565b90508401515f62000765565b91508287526020872087925b601f198316841062000e32576001935082601f1981161062000e19575b5050811b01905562000778565b8601515f1960f88460031b161c191690555f8062000e0c565b8681015182556020938401936001909201910162000def565b82875260208720601f830160051c81016020841062000e89575b601f830160051c8201811062000e7d5750506200074d565b88815560010162000e65565b508062000e65565b634e487b7160e01b86526041600452602486fd5b90508301515f62000707565b91508287526020872087925b601f198316841062000f00576001935082601f1981161062000ee7575b5050811b0190556200071a565b8501515f1960f88460031b161c191690555f8062000eda565b8581015182556020938401936001909201910162000ebd565b82875260208720601f830160051c81016020841062000f57575b601f830160051c8201811062000f4b575050620006ef565b88815560010162000f33565b508062000f33565b6040513d85823e3d90fd5b62000f9291965060203d60201162000f9a575b62000f89818362002916565b81019062002f2a565b945f62000600565b503d62000f7d565b6040516339e3563760e11b815260048101839052602490fd5b5f85815260046020526040902080546001600160a01b0319169055805f52600360205260405f205f198154019055620004b5565b604051633250574960e11b815260048101839052602490fd5b606460405162461bcd60e51b815260206004820152602060248201527f4e465420616c72656164792065786973747320666f722074686973206e6f64656044820152fd5b506006546001600160a01b0316331462000456565b8280fd5b5080fd5b5034620002e4576020366003190112620002e457620010996040620010ae926004358152600f6020522062002a21565b60405191829160208352602083019062002859565b0390f35b5034620002e4576020366003190112620002e457620010996040620010ae92600435815260116020522062002a21565b5034620002e4576020366003190112620002e45760406020916004358152601083522054604051908152f35b5034620002e4576020366003190112620002e457620010996040620010ae926004358152600e6020522062002a21565b5034620002e45760209081600319360112620002e4576001600160a01b0390806004356200117a84620011718362003105565b16151562002ee6565b808352600d85528360408420541693600c865260408420541691600e8652620011a66040852062002a21565b90828552600f8752620011bc6040862062002a21565b928552601087526040852054948662001217575b5090620011fe916200120d946040519889988952880152604087015260c0606087015260c086019062002859565b90848203608086015262002859565b9060a08301520390f35b90506040516370a0823160e01b815284600482015287816024818a5afa9182156200128657916200124e575b506200120d620011d0565b9190508682813d83116200127e575b62001269818362002916565b8101031262000dca5790516200120d62001243565b503d6200125d565b604051903d90823e3d90fd5b5034620002e4576020366003190112620002e457600435906001600160a01b03620012bd8362003105565b1615620012de57604081620010ae93620010999352600a6020522062002a21565b60405162461bcd60e51b815260206004820152601f60248201527f55524920717565727920666f72206e6f6e6578697374656e7420746f6b656e006044820152606490fd5b5034620002e4576020366003190112620002e4576020906004358152600c8252604060018060a01b0391205416604051908152f35b5034620002e45780600319360112620002e45760206040517f00000000000000000000000000000000000000000000000000000000000000008152f35b5034620002e4576080366003190112620002e457620013b362002880565b620013bd62002897565b606435916001600160401b03831162000d7e573660238401121562000d7e57620013f66200140193369060248160040135910162002954565b916044359162002f91565b80f35b5034620002e4576020366003190112620002e45760209060043581526008825260408120546200143681151562002acf565b8152600d8252604060018060a01b0391205416604051908152f35b5034620002e4576020366003190112620002e4576020906001600160a01b03906040906004356200148784620011718362003105565b8152600c8452205416604051908152f35b5034620002e4576020366003190112620002e45760209060ff906040906001600160a01b03620014c762002880565b168152600b84522054166040519015158152f35b5034620002e4576040366003190112620002e4576001600160401b036024358181116200106157620015129036906004016200298f565b90338352602091600b835260ff604085205416801562001a51575b620015389062002f4b565b600435845260088352620016276040852054926200155884151562002acf565b838652600c85526200179760b160018060a01b038060408a20541690600d895260408a20541690600e89526200159160408b2062002a21565b888b52600f8a52620015a660408c2062002a21565b90898c5260108b5260408c2054620015be8b62003193565b948c620016b6620015f2620015eb620015e4620015dd60043562003272565b99620033dd565b94620033dd565b9462003193565b968d60336040519e8f809c727b226e616d65223a224c6f6f6d4e6f6465202360681b8883015287815194859301910162002836565b8a01701116113232b9b1b934b83a34b7b7111d1160791b603382015262001658825180938760448501910162002836565b016b1116113737b232a4b2111d1160a11b604482015262001683825180938660508501910162002836565b0191761116113a37b5b2b72137bab73220b1b1b7bab73a111d1160491b6050840152835193849160678501910162002836565b01761116113737b232aa37b5b2b721b7b73a3930b1ba111d1160491b6067820152620016ed8d8351938491607e8501910162002836565b016e1116113a37b5b2b72730b6b2911d1160891b607e8201526200171c8c8351938491608d8501910162002836565b01701116113a37b5b2b729bcb6b137b6111d1160791b608d8201526200174c825180938d609e8501910162002836565b01701116113a37b5b2b729bab838363c911d1160791b609e8201526200177c825180938c60af8501910162002836565b0161227d60f01b60af82015203609181018552018362002916565b838652600a855260408620825182811162001a3d5780620017b98354620029e6565b94601f95868111620019ec575b50889086831160011462001985578a9262001979575b50508160011b915f199060031b1c19161790555b83865260118552604086209183519182116200196557620018128354620029e6565b81811162001920575b5085908211600114620018955791817ff113a05953f920899132958aed3722b7dbe533d617abaf4d2ca095c4bfb1469894926200188394899162001889575b508160011b915f199060031b1c19161790555b6040519182918683526004359683019062002859565b0390a380f35b90508301515f6200185a565b82875285872090601f198316885b888282106200190957505092620018839492600192827ff113a05953f920899132958aed3722b7dbe533d617abaf4d2ca095c4bfb14698989610620018f0575b5050811b0190556200186d565b8501515f1960f88460031b161c191690555f80620018e3565b600184958293958a015181550194019201620018a3565b8388528688208280850160051c8201928986106200195b575b0160051c01905b8181106200194f57506200181b565b88815560010162001940565b9250819262001939565b634e487b7160e01b87526041600452602487fd5b015190505f80620017dc565b848b52898b209250601f1984168b5b8b828210620019d5575050908460019594939210620019bc575b505050811b019055620017f0565b01515f1960f88460031b161c191690555f8080620019ae565b600185968293968601518155019501930162001994565b909150838a52888a208680850160051c8201928b861062001a33575b9085949392910160051c01905b81811062001a245750620017c6565b8b815584935060010162001a15565b9250819262001a08565b634e487b7160e01b88526041600452602488fd5b506006546001600160a01b031633146200152d565b5034620002e4576040366003190112620002e45762001a8462002880565b6024359081151580920362001061576001600160a01b031690811562001af657338352600560205260408320825f5260205260405f2060ff1981541660ff83161790556040519081527f17307eab39ab6107e8899845ad3d59bd9653f200f220920489ca2b5937696c3160203392a380f35b604051630b61174360e31b815260048101839052602490fd5b5034620002e4576020366003190112620002e45760405163246a002160e01b81526001600160a01b037f000000000000000000000000000000000000000000000000000000000000000081166004808401919091527f0000000000000000000000000000000000000000000000000000000000000000602484015246604484015230606484015235608483015260208260a4817f000000000000000000000000000000000000000000000000000000000000000085165afa91821562000f5f576020939262001be3575b5060405191168152f35b62001bff919250833d851162000f9a5762000f89818362002916565b905f62001bd9565b5034620002e45780600319360112620002e4576040515f6001826001549262001c3084620029e6565b92838352602094856001821691825f1462001cd457505060011462001c75575b5062001c5f9250038362002916565b620010ae60405192828493845283019062002859565b84915060015f527fb10e2d527612073b26eecdfd717e6a320cf44b4afac2b0732d9fcbe2b7fa0cf6905f915b85831062001cbb57505062001c5f93508201018562001c50565b8054838901850152879450869390920191810162001ca1565b60ff19168582015262001c5f95151560051b850101925087915062001c509050565b5034620002e4576020366003190112620002e45760406020916004358152600983522054604051908152f35b5034620002e45780600319360112620002e4576006546040516001600160a01b039091168152602090f35b5034620002e45762001d5f36620029b0565b9291825260209260088452604083205462001d7c81151562002acf565b338452600b855260ff604085205416801562001fd4575b801562001fb7575b1562001f5d578352600d8452604080842054600c8652908420546001600160a01b0390811692911662001dd081151562002e2f565b62001ddd83151562002e7c565b60405193630cd3b5fd60e31b855260048501528584602481845afa93841562000d8f57859462001f28575b506040516370a0823160e01b8152600481018490528681602481855afa90811562001f1d57908591879162001ee6575b501062001ea157849550803b1562000d825762001e70938580946040519687958694859363057d5c3760e21b85526004850162002ec0565b03925af1801562001e965762001e835750f35b62001e8e90620028e6565b620002e45780f35b6040513d84823e3d90fd5b60405162461bcd60e51b815260048101879052601a60248201527f496e73756666696369656e7420746f6b656e2062616c616e63650000000000006044820152606490fd5b809250888092503d831162001f15575b62001f02818362002916565b8101031262000dca578490515f62001e38565b503d62001ef6565b6040513d88823e3d90fd5b9093508581813d831162001f55575b62001f43818362002916565b8101031262000dca5751925f62001e08565b503d62001f37565b60405162461bcd60e51b815260048101869052602c60248201527f4e6f7420617574686f72697a656420746f206275726e20746f6b656e7320667260448201526b6f6d2074686973206e6f646560a01b6064820152608490fd5b506001600160a01b0362001fcb8262003105565b16331462001d9b565b506006546001600160a01b0316331462001d93565b5034620002e45780600319360112620002e4576040517f00000000000000000000000000000000000000000000000000000000000000006001600160a01b03168152602090f35b5034620002e45780600319360112620002e4576200204d62003140565b600680546001600160a01b031981169091555f906001600160a01b03167f8be0079c531659141344cd1fd0a4f28419497f9722a3daafe3b4186f6b6457e08280a380f35b5034620002e4576020366003190112620002e4576001600160a01b03620020b762002880565b168015620020d5578160409160209352600383522054604051908152f35b6040516322718ad960e21b815260048101839052602490fd5b5034620002e4576020366003190112620002e457620010996040620010ae926004358152600a6020522062002a21565b5034620002e4576020366003190112620002e45760206200214160043562003105565b6040516001600160a01b039091168152f35b5034620002e4576020366003190112620002e4576200217162002880565b6200217b62003140565b6001600160a01b03168152600b60205260408120805460ff1916600117905580f35b5034620002e4576020366003190112620002e4576020906001600160a01b0390604090600435620021d384620011718362003105565b8152600d8452205416604051908152f35b503462000dca57620021f636620029b0565b915f526020916008835260405f20546200221281151562002acf565b335f52600b845260ff60405f2054168015620023a4575b801562002387575b156200232f575f52600d835260018060a01b038060405f20541690600c855260405f205416926200226482151562002e2f565b6200227184151562002e7c565b60405190630cd3b5fd60e31b825260048201528481602481855afa948515620022ee575f95620022f9575b5050803b1562000dca57620022cc935f8094604051968795869485936334ff261960e21b85526004850162002ec0565b03925af18015620022ee57620022e0575080f35b620022ec9150620028e6565b005b6040513d5f823e3d90fd5b9080929550813d831162002327575b62002314818362002916565b8101031262000dca5751925f806200229c565b503d62002308565b60405162461bcd60e51b815260048101859052602a60248201527f4e6f7420617574686f72697a656420746f206d696e7420746f6b656e7320746f6044820152692074686973206e6f646560b01b6064820152608490fd5b506001600160a01b036200239b8262003105565b16331462002231565b506006546001600160a01b0316331462002229565b3462000dca57602036600319011262000dca57620023d662002880565b620023e062003140565b6001600160a01b03165f908152600b60205260409020805460ff19169055005b3462000dca576200241136620028ae565b6040519160208301938385106001600160401b038611176200243e57620022ec946040525f845262002f91565b634e487b7160e01b5f52604160045260245ffd5b3462000dca57602036600319011262000dca5760206200247460043562002cc7565b604051908152f35b3462000dca57602036600319011262000dca576004355f52600860205260405f2054620024ab81151562002acf565b5f526011602052620010ae6200109960405f2062002a21565b3462000dca57602036600319011262000dca576004355f52600d602052602060018060a01b0360405f205416604051908152f35b3462000dca57620022ec6200250d36620028ae565b9162002b1c565b3462000dca575f36600319011262000dca576007545f1981019081116200254057602090604051908152f35b634e487b7160e01b5f52601160045260245ffd5b3462000dca575f36600319011262000dca576040517f00000000000000000000000000000000000000000000000000000000000000006001600160a01b03168152602090f35b3462000dca57604036600319011262000dca57620025b762002880565b602435620025c58162003105565b3315158062002672575b8062002648575b62002630576001600160a01b039283169282918491167f8c5be1e5ebec7d5bd14f71427d1e84f3dd0314c0f7b2291e5b200ac8c7c3b9255f80a45f90815260046020526040902080546001600160a01b0319169091179055005b60405163a9fbf51f60e01b8152336004820152602490fd5b5060018060a01b0381165f52600560205260405f20335f5260205260ff60405f20541615620025d6565b506001600160a01b038116331415620025cf565b3462000dca57602036600319011262000dca57600435620026a78162003105565b505f526004602052602060018060a01b0360405f205416604051908152f35b3462000dca575f36600319011262000dca576040515f80549082620026eb83620029e6565b91828252602093600190856001821691825f1462001cd45750506001146200271c575062001c5f9250038362002916565b5f808052859250907f290decd9548b62a8d60345a988386fc84ba6bc95484008f6362f93160ef3e5635b8583106200276057505062001c5f93508201018562001c50565b8054838901850152879450869390920191810162002746565b3462000dca57602036600319011262000dca5760043563ffffffff60e01b811680910362000dca576020906380ac58cd60e01b8114908115620027dc575b8115620027ca575b506040519015158152f35b6301ffc9a760e01b14905082620027bf565b635b5e139f60e01b81149150620027b7565b3462000dca57602036600319011262000dca576004355f52600860205260405f20546200281d81151562002acf565b5f52600a602052620010ae6200109960405f2062002a21565b5f5b838110620028485750505f910152565b818101518382015260200162002838565b90602091620028748151809281855285808601910162002836565b601f01601f1916010190565b600435906001600160a01b038216820362000dca57565b602435906001600160a01b038216820362000dca57565b606090600319011262000dca576001600160a01b0390600435828116810362000dca5791602435908116810362000dca579060443590565b6001600160401b0381116200243e57604052565b606081019081106001600160401b038211176200243e57604052565b90601f801991011681019081106001600160401b038211176200243e57604052565b6001600160401b0381116200243e57601f01601f191660200190565b929192620029628262002938565b9162002972604051938462002916565b82948184528183011162000dca578281602093845f960137010152565b9080601f8301121562000dca57816020620029ad9335910162002954565b90565b606060031982011262000dca576004359160243591604435906001600160401b03821162000dca57620029ad916004016200298f565b90600182811c9216801562002a16575b602083101462002a0257565b634e487b7160e01b5f52602260045260245ffd5b91607f1691620029f6565b9060405191825f825462002a3581620029e6565b908184526020946001916001811690815f1462002aab575060011462002a69575b50505062002a679250038362002916565b565b5f90815285812095935091905b81831062002a9257505062002a6793508201015f808062002a56565b8554888401850152948501948794509183019162002a76565b9250505062002a6794925060ff191682840152151560051b8201015f808062002a56565b1562002ad757565b60405162461bcd60e51b815260206004820152601d60248201527f4e6f20746f6b656e2065786973747320666f722074686973206e6f64650000006044820152606490fd5b6001600160a01b03918216929091831562002caf57815f52602092600284528260409583875f205416953315158062002c12575b506002908762002be0575b825f5260038152885f2060018154019055835f5252865f20816bffffffffffffffffffffffff60a01b825416179055857fddf252ad1be2c89b69c2b068fc378daa952ba7f163c4a11628f55a4df523b3ef5f80a4169283830362002bbf5750505050565b6064945051926364283d7b60e01b8452600484015260248301526044820152fd5b5f84815260046020526040812080546001600160a01b03191690558881526003825289902080545f1901905562002b5b565b919250908062002c6a575b1562002c2d579084915f62002b50565b86858762002c4b576024915190637e27328960e01b82526004820152fd5b905163177e802f60e01b81523360048201526024810191909152604490fd5b50338614801562002c92575b8062002c1d5750845f52600481523384885f2054161462002c1d565b50855f5260058152865f20335f52815260ff875f20541662002c76565b604051633250574960e11b81525f6004820152602490fd5b5f52602060088152604090815f205462002ce381151562002acf565b5f52600d815260018060a01b039182815f20541692600c8352815f205416918315801562002e26575b62002e1e578151926370a0823160e01b845260048401528083602481875afa92831562002e14575f9362002ddf575b50806004939483519485809263313ce56760e01b82525afa91821562002dd657505f9162002d96575b5060ff915016604d81116200254057600a0a90811562002d82570490565b634e487b7160e01b5f52601260045260245ffd5b905081813d831162002dce575b62002daf818362002916565b8101031262000dca575160ff8116810362000dca5760ff905f62002d64565b503d62002da3565b513d5f823e3d90fd5b92508083813d831162002e0c575b62002df9818362002916565b8101031262000dca579151918062002d3b565b503d62002ded565b82513d5f823e3d90fd5b505050505f90565b50821562002d0c565b1562002e3757565b60405162461bcd60e51b815260206004820152601f60248201527f4e6f20746f6b656e20636f6e747261637420666f722074686973206e6f6465006044820152606490fd5b1562002e8457565b60405162461bcd60e51b81526020600482015260146024820152734e6f2054424120666f722074686973206e6f646560601b6044820152606490fd5b620029ad939260609260018060a01b031682526020820152816040820152019062002859565b1562002eee57565b60405162461bcd60e51b8152602060048201526014602482015273151bdad95b88191bd95cc81b9bdd08195e1a5cdd60621b6044820152606490fd5b9081602091031262000dca57516001600160a01b038116810362000dca5790565b1562002f5357565b60405162461bcd60e51b8152602060048201526016602482015275139bdd08185d5d1a1bdc9a5e9959081d1bc81b5a5b9d60521b6044820152606490fd5b919262002fa084838562002b1c565b813b62002fae575b50505050565b604051630a85bd0160e11b8082523360048301526001600160a01b039485166024830152604482019590955260806064820152602095939092169391908590829081906200300190608483019062002859565b03815f885af15f9181620030af575b5062003077575050503d5f146200306e573d916200302e8362002938565b926200303e604051948562002916565b83523d5f8285013e5b825192836200306957604051633250574960e11b815260048101849052602490fd5b019050fd5b60609162003047565b9193506001600160e01b0319909116036200309757505f80808062002fa8565b60249060405190633250574960e11b82526004820152fd5b9091508581813d8311620030ee575b620030ca818362002916565b8101031262000dca57516001600160e01b03198116810362000dca57905f62003010565b503d620030be565b5f198114620025405760010190565b5f818152600260205260409020546001600160a01b031690811562003128575090565b60249060405190637e27328960e01b82526004820152fd5b6006546001600160a01b031633036200315557565b60405163118cdaa760e01b8152336004820152602490fd5b9081518110156200317f570160200190565b634e487b7160e01b5f52603260045260245ffd5b8015620032435780815f925b6200322a5750620031b08262002938565b91620031c0604051938462002916565b80835281601f19620031d28362002938565b013660208601375b620031e457505090565b5f19810190811162002540578091600a9160308383068101809111620025405760f81b6001600160f81b0319165f1a906200322090866200316d565b53049081620031da565b909162003239600a91620030f6565b929104806200319f565b50604051604081018181106001600160401b038211176200243e5760405260018152600360fc1b602082015290565b604051906200328182620028fa565b60408252602090602083019160403684375f5b818110620032da575050506022620032c992620029ad9260405194859261060f60f31b60208501525180928585019062002836565b810103600281018452018262002916565b601f8181039081116200254057600381901b906001600160fd1b038116036200254057600490818101808211620033ca57908591600f9283911c169260109182851015620033a4576f181899199a1a9b1b9c1cb0b131b232b360811b9360019187831b9688880460021489151715620033b757908c6200335f89898e951a926200316d565b531c1692831015620033a4578401809411620033915750600193929162003389911a91886200316d565b530162003294565b601190634e487b7160e01b5f525260245ffd5b603282634e487b7160e01b5f525260245ffd5b601185634e487b7160e01b5f525260245ffd5b601183634e487b7160e01b5f525260245ffd5b604051906001600160a01b0316620033f582620028fa565b60288252602082019060403683375f5b601481106200343a5750506022620032c992620029ad9260405194859261060f60f31b60208501525180928585019062002836565b60138181039081116200254057600381901b906001600160fd1b038116036200254057600490818101808211620033ca57908491600f9283911c169260109182851015620033a4576f181899199a1a9b1b9c1cb0b131b232b360811b9360019187831b9688880460021489151715620033b757908b620034bf89898d951a926200316d565b531c1692831015620033a45784018094116200339157506001939291620034e9911a91876200316d565b53016200340556fe60406080815234620003e557620010ed803803806200001e81620003e9565b9283398101606082820312620003e55781516001600160401b039290838111620003e55782620000509183016200040f565b60209283830151858111620003e55786916200006e9185016200040f565b920151938151818111620002f0576003908154906001948583811c93168015620003da575b88841014620003c6578190601f9384811162000373575b50889084831160011462000310575f9262000304575b50505f1982851b1c191690851b1782555b8451928311620002f05760049485548581811c91168015620002e5575b88821014620002d2578281116200028a575b508691841160011462000223579383949184925f9562000217575b50501b925f19911b1c19161781555b3315620002015760058054336001600160a01b0319821681179092556001600160a01b03167f8be0079c531659141344cd1fd0a4f28419497f9722a3daafe3b4186f6b6457e05f80a3670de0b6b3a764000092838102938185041490151715620001ee578260065560025490838201809211620001ee57505f917fddf252ad1be2c89b69c2b068fc378daa952ba7f163c4a11628f55a4df523b3ef9160025533835282815284832084815401905584519384523393a351610c6d9081620004808239f35b601190634e487b7160e01b5f525260245ffd5b6024905f855191631e4fbdf760e01b8352820152fd5b015193505f806200011b565b9190601f19841692865f5284885f20945f5b8a8983831062000272575050501062000258575b50505050811b0181556200012a565b01519060f8845f19921b161c191690555f80808062000249565b86860151895590970196948501948893500162000235565b865f52875f208380870160051c8201928a8810620002c8575b0160051c019086905b828110620002bc57505062000100565b5f8155018690620002ac565b92508192620002a3565b602287634e487b7160e01b5f525260245ffd5b90607f1690620000ee565b634e487b7160e01b5f52604160045260245ffd5b015190505f80620000c0565b90879350601f19831691865f528a5f20925f5b8c8282106200035c575050841162000344575b505050811b018255620000d1565b01515f1983871b60f8161c191690555f808062000336565b8385015186558b9790950194938401930162000323565b909150845f52885f208480850160051c8201928b8610620003bc575b918991869594930160051c01915b828110620003ad575050620000aa565b5f81558594508991016200039d565b925081926200038f565b634e487b7160e01b5f52602260045260245ffd5b92607f169262000093565b5f80fd5b6040519190601f01601f191682016001600160401b03811183821017620002f057604052565b919080601f84011215620003e55782516001600160401b038111620002f05760209062000445601f8201601f19168301620003e9565b92818452828287010111620003e5575f5b8181106200046b5750825f9394955001015290565b85810183015184820184015282016200045656fe608060409080825260049081361015610016575f80fd5b5f3560e01c90816306fdde03146108bf57508063095ea7b31461081657806315f570dc1461068a57806318160ddd1461066c57806323b872dd1461057b578063313ce56714610560578063378dc3dc14610542578063669dafe8146104f657806370a08231146104c0578063715018a6146104655780638da5cb5b1461043d57806395d89b4114610323578063a9059cbb146102f3578063d3fc9864146101db578063dd62ed3e14610192578063e65d15221461016c5763f2fde38b146100db575f80fd5b34610168576020366003190112610168576100f46109fb565b906100fd610b31565b6001600160a01b03918216928315610152575050600554826bffffffffffffffffffffffff60a01b821617600555167f8be0079c531659141344cd1fd0a4f28419497f9722a3daafe3b4186f6b6457e05f80a3005b905f6024925191631e4fbdf760e01b8352820152fd5b5f80fd5b503461016857602036600319011261016857670de0b6b3a7640000602092519135048152f35b82346101685780600319360112610168576020906101ae6109fb565b6101b6610a11565b9060018060a01b038091165f5260018452825f2091165f528252805f20549051908152f35b5034610168576101ea36610a5d565b93916101f4610b31565b6001600160a01b03169283156102b05761020f821515610ae5565b6002549082820180921161029d57507f9d89e36eadf856db0ad9ffb5a569e07f95634dddd9501141ecf04820484ad0dc939461029891600255855f525f602052835f20838154019055855f7fddf252ad1be2c89b69c2b068fc378daa952ba7f163c4a11628f55a4df523b3ef60208751878152a3835193849384528060208501528301906109bd565b0390a2005b601190634e487b7160e01b5f525260245ffd5b606490602084519162461bcd60e51b8352820152601b60248201527f43616e6e6f74206d696e7420746f207a65726f206164647265737300000000006044820152fd5b823461016857806003193601126101685760209061031c6103126109fb565b6024359033610b5d565b5160018152f35b509034610168575f366003190112610168578051905f9083549160018360011c9060018516968715610433575b602095868410891461042057868899858a98999a5291825f146103f957505060011461039d575b505050610399929161038a910385610a27565b519282849384528301906109bd565b0390f35b5f90815286935091907f8a35acfbc15ff81a39ae7d344fd709f28e8600b4aa8c65c6b64bfe7fe36bd19b5b8284106103e1575050508201018161038a610399610377565b8054848a0186015288955087949093019281016103c8565b60ff19168782015293151560051b8601909301935084925061038a91506103999050610377565b602282634e487b7160e01b5f525260245ffd5b91607f1691610350565b8234610168575f3660031901126101685760055490516001600160a01b039091168152602090f35b34610168575f3660031901126101685761047d610b31565b600580546001600160a01b031981169091555f906001600160a01b03167f8be0079c531659141344cd1fd0a4f28419497f9722a3daafe3b4186f6b6457e08280a3005b8234610168576020366003190112610168576020906001600160a01b036104e56109fb565b165f525f8252805f20549051908152f35b50903461016857602036600319011261016857670de0b6b3a764000082358181029291811591840414171561052f576020925051908152f35b601183634e487b7160e01b5f525260245ffd5b8234610168575f366003190112610168576020906006549051908152f35b8234610168575f366003190112610168576020905160128152f35b5034610168576060366003190112610168576105956109fb565b61059d610a11565b906044359260018060a01b038216805f526001602052855f20335f52602052855f2054915f1983106105d8575b60208761031c888888610b5d565b85831061064057811561062a57331561061457505f9081526001602090815286822033835281529086902091859003909155829061031c6105ca565b6024905f885191634a1406b160e11b8352820152fd5b6024905f88519163e602df0560e01b8352820152fd5b8651637dc7a0d960e11b8152339181019182526020820193909352604081018690528291506060010390fd5b8234610168575f366003190112610168576020906002549051908152f35b50346101685761069936610a5d565b936106a2610b31565b6001600160a01b0383169384156107d4576106be831515610ae5565b845f526020935f855283835f20541061079257855f525f8552825f20549184831061075e57505094610298918386977ffad31924d655455395c87544c8aa1ffdb5a7505a22a3c2e03f28003b6556a75f975f525f875203815f205583600254036002555f877fddf252ad1be2c89b69c2b068fc378daa952ba7f163c4a11628f55a4df523b3ef878451888152a380805195869586528501528301906109bd565b835163391434e360e21b81526001600160a01b03909216908201908152602081018390526040810185905281906060010390fd5b5083606492519162461bcd60e51b8352820152601c60248201527f496e73756666696369656e742062616c616e636520746f206275726e000000006044820152fd5b6020606492519162461bcd60e51b8352820152601d60248201527f43616e6e6f74206275726e2066726f6d207a65726f20616464726573730000006044820152fd5b5090346101685780600319360112610168576108306109fb565b6024359033156108a9576001600160a01b03169081156108935760209350335f5260018452825f20825f52845280835f205582519081527f8c5be1e5ebec7d5bd14f71427d1e84f3dd0314c0f7b2291e5b200ac8c7c3b925843392a35160018152f35b8251634a1406b160e11b81525f81860152602490fd5b825163e602df0560e01b81525f81860152602490fd5b90508234610168575f366003190112610168575f906003549160018360011c90600185169485156109b3575b60209586841081146109a05783885287949392918790821561097e575050600114610923575b5050610399929161038a910385610a27565b9085925060035f527fc2575a0e9e593c00f959f8c92f12db2869c3395a3b0502d05e2516446f71f85b915f925b828410610966575050508201018161038a610911565b8054848a018601528895508794909301928101610950565b60ff19168682015292151560051b8501909201925083915061038a9050610911565b602289634e487b7160e01b5f525260245ffd5b91607f16916108eb565b91908251928382525f5b8481106109e7575050825f602080949584010152601f8019910116010190565b6020818301810151848301820152016109c7565b600435906001600160a01b038216820361016857565b602435906001600160a01b038216820361016857565b90601f8019910116810190811067ffffffffffffffff821117610a4957604052565b634e487b7160e01b5f52604160045260245ffd5b6060600319820112610168576004356001600160a01b038116810361016857916024359167ffffffffffffffff6044358181116101685782602382011215610168578060040135918211610a495760405192610ac3601f8401601f191660200185610a27565b8284526024838301011161016857815f92602460209301838601378301015290565b15610aec57565b60405162461bcd60e51b815260206004820152601d60248201527f416d6f756e74206d7573742062652067726561746572207468616e20300000006044820152606490fd5b6005546001600160a01b03163303610b4557565b60405163118cdaa760e01b8152336004820152602490fd5b916001600160a01b03808416928315610c1f5716928315610c0757825f525f60205260405f205490828210610bd55750817fddf252ad1be2c89b69c2b068fc378daa952ba7f163c4a11628f55a4df523b3ef92602092855f525f84520360405f2055845f5260405f20818154019055604051908152a3565b60405163391434e360e21b81526001600160a01b03919091166004820152602481019190915260448101829052606490fd5b60405163ec442f0560e01b81525f6004820152602490fd5b604051634b637e8f60e11b81525f6004820152602490fdfea264697066735822122044331042eba9aeacf012920601a85181d7d19980b04811393b499030531fee4c64736f6c63430008180033a26469706673582212202dcb0004da75e88bc728901a60a313a83f90f077ce2b2f91fad493cccf80395e64736f6c63430008180033a2646970667358221220cb9853dd026f6653a4a5a2e5ea180273d00ceab7acf0fb539cea7ebb48bc37ce64736f6c634300081800336080806040523461001657610808908161001b8239f35b5f80fdfe6080604052600436101561001a575b3615610018575f80fd5b005b5f3560e01c806301ffc9a7146100895780631626ba7e14610084578063519454471461007f578063523e32601461007a5780638da5cb5b14610075578063c19d93fb146100705763fc0c546a0361000e57610409565b6103ed565b6103c1565b610364565b610278565b610150565b346100f55760203660031901126100f55760043563ffffffff60e01b81168091036100f5576301ffc9a760e01b81149081156100e4575b81156100d3575b50151560805260206080f35b635194544760e01b149050816100c7565b636faff5f160e01b811491506100c0565b5f80fd5b634e487b7160e01b5f52604160045260245ffd5b90601f8019910116810190811067ffffffffffffffff82111761012f57604052565b6100f9565b67ffffffffffffffff811161012f57601f01601f191660200190565b346100f55760403660031901126100f55760243567ffffffffffffffff81116100f557366023820112156100f55780600401359061018d82610134565b61019a604051918261010d565b82815236602484840101116100f5575f6020846101e39560246101c896018386013783010152600435610440565b6040516001600160e01b031990911681529081906020820190565b0390f35b6001600160a01b038116036100f557565b9181601f840112156100f55782359167ffffffffffffffff83116100f557602083818601950101116100f557565b91908251928382525f5b848110610250575050825f602080949584010152601f8019910116010190565b602081830181015184830182015201610230565b906020610275928181520190610226565b90565b60803660031901126100f557600435610290816101e7565b60443567ffffffffffffffff81116100f5576102b09036906004016101f8565b90916064359160ff83168093036100f5576001600160a01b036102d161054d565b16330361032e575f936102e5859415610465565b6102ef84546104bc565b8455610300604051809381936104de565b0391602435905af16103106104eb565b9015610326576101e39060405191829182610264565b602081519101fd5b60405162461bcd60e51b815260206004820152600e60248201526d24b73b30b634b21039b4b3b732b960911b6044820152606490fd5b346100f55760403660031901126100f557600435610381816101e7565b60243567ffffffffffffffff81116100f5576020916103a76103ae9236906004016101f8565b505061051a565b6040516001600160e01b03199091168152f35b346100f5575f3660031901126100f55760206103db61054d565b6040516001600160a01b039091168152f35b346100f5575f3660031901126100f55760205f54604051908152f35b346100f5575f3660031901126100f55760606104236105d9565b604080519384526001600160a01b03909216602084015290820152f35b906104529161044d61054d565b610655565b61045a575f90565b630b135d3f60e11b90565b1561046c57565b60405162461bcd60e51b815260206004820152602260248201527f4f6e6c792063616c6c206f7065726174696f6e732061726520737570706f7274604482015261195960f21b6064820152608490fd5b5f1981146104ca5760010190565b634e487b7160e01b5f52601160045260245ffd5b908092918237015f815290565b3d15610515573d906104fc82610134565b9161050a604051938461010d565b82523d5f602084013e565b606090565b6001600160a01b038061052b61054d565b16911614610537575f90565b630291f19360e51b90565b6040513d5f823e3d90fd5b6105556105d9565b909146036105d3576040516331a9108f60e11b8152600481019190915290602090829060249082906001600160a01b03165afa9081156105ce575f91610599575090565b90506020813d6020116105c6575b816105b46020938361010d565b810103126100f55751610275816101e7565b3d91506105a7565b610542565b50505f90565b604051906080820182811067ffffffffffffffff82111761012f5760405260608252602082016060604d82303c6060838051810103126100f55751906060604084015193610626856101e7565b015191926001600160a01b03169190565b6004111561064157565b634e487b7160e01b5f52602160045260245ffd5b9091813b610690576106679192610716565b5061067181610637565b15918261067d57505090565b6001600160a01b03918216911614919050565b5f9182916040516106d3816106c56020820194630b135d3f60e11b998a87526024840152604060448401526064830190610226565b03601f19810183528261010d565b51915afa906106e06104eb565b82610708575b826106f057505090565b9091506020818051810103126100f557602001511490565b9150602082511015916106e6565b81519190604183036107465761073f9250602082015190606060408401519301515f1a90610750565b9192909190565b50505f9160029190565b91907f7fffffffffffffffffffffffffffffff5d576e7357a4501ddfe92f46681b20a084116107c7579160209360809260ff5f9560405194855216868401526040830152606082015282805260015afa156105ce575f516001600160a01b038116156107bd57905f905f90565b505f906001905f90565b5050505f916003919056fea26469706673582212200c81132b24e85fcdcd4fca40b8ab4a4c41a424e57b22c45273616d8372f1affb64736f6c63430008180033","linkReferences":{}},"methodIdentifiers":{"SALT()":"ba9a91a5","allTrees(uint256)":"8f8a2100","createTree(string,uint256,string,address)":"f7076a61","getAllTrees()":"5bcde5c5","getNFTFactory()":"2167fc89","getSalt()":"13a9589c","getTree(bytes32)":"c473e933","getTreeCount()":"5028f70b","getTreeNFTContract(bytes32)":"6934b6e7","getUserTrees(address)":"f9ddc348","nftFactory()":"d63843cd","treeNFTContracts(bytes32)":"2b8645ab","trees(bytes32)":"7fb345f2","userTrees(address,uint256)":"483fdd55"},"id":1}