{"abi":[{"type":"constructor","inputs":[{"name":"_registry","type":"address","internalType":"address"},{"name":"_accountImplementation","type":"address","internalType":"address"},{"name":"_salt","type":"bytes32","internalType":"bytes32"}],"stateMutability":"nonpayable"},{"type":"function","name":"accountImplementation","inputs":[],"outputs":[{"name":"","type":"address","internalType":"address"}],"stateMutability":"view"},{"type":"function","name":"addAuthorizedMinter","inputs":[{"name":"minter","type":"address","internalType":"address"}],"outputs":[],"stateMutability":"nonpayable"},{"type":"function","name":"approve","inputs":[{"name":"to","type":"address","internalType":"address"},{"name":"tokenId","type":"uint256","internalType":"uint256"}],"outputs":[],"stateMutability":"nonpayable"},{"type":"function","name":"authorizedMinters","inputs":[{"name":"","type":"address","internalType":"address"}],"outputs":[{"name":"","type":"bool","internalType":"bool"}],"stateMutability":"view"},{"type":"function","name":"balanceOf","inputs":[{"name":"owner","type":"address","internalType":"address"}],"outputs":[{"name":"","type":"uint256","internalType":"uint256"}],"stateMutability":"view"},{"type":"function","name":"burnTokensFromNode","inputs":[{"name":"nodeId","type":"bytes32","internalType":"bytes32"},{"name":"amount","type":"uint256","internalType":"uint256"},{"name":"reason","type":"string","internalType":"string"}],"outputs":[],"stateMutability":"nonpayable"},{"type":"function","name":"computeTokenBoundAccount","inputs":[{"name":"tokenId","type":"uint256","internalType":"uint256"}],"outputs":[{"name":"","type":"address","internalType":"address"}],"stateMutability":"view"},{"type":"function","name":"getApproved","inputs":[{"name":"tokenId","type":"uint256","internalType":"uint256"}],"outputs":[{"name":"","type":"address","internalType":"address"}],"stateMutability":"view"},{"type":"function","name":"getNodeContent","inputs":[{"name":"nodeId","type":"bytes32","internalType":"bytes32"}],"outputs":[{"name":"","type":"string","internalType":"string"}],"stateMutability":"view"},{"type":"function","name":"getNodeIdFromTokenId","inputs":[{"name":"tokenId","type":"uint256","internalType":"uint256"}],"outputs":[{"name":"","type":"bytes32","internalType":"bytes32"}],"stateMutability":"view"},{"type":"function","name":"getNodeTokenBalance","inputs":[{"name":"nodeId","type":"bytes32","internalType":"bytes32"}],"outputs":[{"name":"","type":"uint256","internalType":"uint256"}],"stateMutability":"view"},{"type":"function","name":"getNodeTokenContract","inputs":[{"name":"tokenId","type":"uint256","internalType":"uint256"}],"outputs":[{"name":"","type":"address","internalType":"address"}],"stateMutability":"view"},{"type":"function","name":"getNodeTokenContractByNodeId","inputs":[{"name":"nodeId","type":"bytes32","internalType":"bytes32"}],"outputs":[{"name":"","type":"address","internalType":"address"}],"stateMutability":"view"},{"type":"function","name":"getNodeTokenInfo","inputs":[{"name":"tokenId","type":"uint256","internalType":"uint256"}],"outputs":[{"name":"tokenContract","type":"address","internalType":"address"},{"name":"tokenBoundAccount","type":"address","internalType":"address"},{"name":"tokenBalance","type":"uint256","internalType":"uint256"},{"name":"tokenName","type":"string","internalType":"string"},{"name":"tokenSymbol","type":"string","internalType":"string"},{"name":"tokenSupply","type":"uint256","internalType":"uint256"}],"stateMutability":"view"},{"type":"function","name":"getTextContent","inputs":[{"name":"nodeId","type":"bytes32","internalType":"bytes32"}],"outputs":[{"name":"","type":"string","internalType":"string"}],"stateMutability":"view"},{"type":"function","name":"getTokenBoundAccount","inputs":[{"name":"tokenId","type":"uint256","internalType":"uint256"}],"outputs":[{"name":"","type":"address","internalType":"address"}],"stateMutability":"view"},{"type":"function","name":"getTokenBoundAccountByNodeId","inputs":[{"name":"nodeId","type":"bytes32","internalType":"bytes32"}],"outputs":[{"name":"","type":"address","internalType":"address"}],"stateMutability":"view"},{"type":"function","name":"getTokenIdFromNodeId","inputs":[{"name":"nodeId","type":"bytes32","internalType":"bytes32"}],"outputs":[{"name":"","type":"uint256","internalType":"uint256"}],"stateMutability":"view"},{"type":"function","name":"isApprovedForAll","inputs":[{"name":"owner","type":"address","internalType":"address"},{"name":"operator","type":"address","internalType":"address"}],"outputs":[{"name":"","type":"bool","internalType":"bool"}],"stateMutability":"view"},{"type":"function","name":"mintNodeNFT","inputs":[{"name":"to","type":"address","internalType":"address"},{"name":"nodeId","type":"bytes32","internalType":"bytes32"},{"name":"content","type":"string","internalType":"string"},{"name":"tokenName","type":"string","internalType":"string"},{"name":"tokenSymbol","type":"string","internalType":"string"},{"name":"tokenSupply","type":"uint256","internalType":"uint256"}],"outputs":[{"name":"","type":"uint256","internalType":"uint256"}],"stateMutability":"nonpayable"},{"type":"function","name":"mintTokensToNode","inputs":[{"name":"nodeId","type":"bytes32","internalType":"bytes32"},{"name":"amount","type":"uint256","internalType":"uint256"},{"name":"reason","type":"string","internalType":"string"}],"outputs":[],"stateMutability":"nonpayable"},{"type":"function","name":"name","inputs":[],"outputs":[{"name":"","type":"string","internalType":"string"}],"stateMutability":"view"},{"type":"function","name":"nodeIdToTokenId","inputs":[{"name":"","type":"bytes32","internalType":"bytes32"}],"outputs":[{"name":"","type":"uint256","internalType":"uint256"}],"stateMutability":"view"},{"type":"function","name":"nodeTokenContracts","inputs":[{"name":"","type":"uint256","internalType":"uint256"}],"outputs":[{"name":"","type":"address","internalType":"address"}],"stateMutability":"view"},{"type":"function","name":"nodeTokenNames","inputs":[{"name":"","type":"uint256","internalType":"uint256"}],"outputs":[{"name":"","type":"string","internalType":"string"}],"stateMutability":"view"},{"type":"function","name":"nodeTokenSupplies","inputs":[{"name":"","type":"uint256","internalType":"uint256"}],"outputs":[{"name":"","type":"uint256","internalType":"uint256"}],"stateMutability":"view"},{"type":"function","name":"nodeTokenSymbols","inputs":[{"name":"","type":"uint256","internalType":"uint256"}],"outputs":[{"name":"","type":"string","internalType":"string"}],"stateMutability":"view"},{"type":"function","name":"owner","inputs":[],"outputs":[{"name":"","type":"address","internalType":"address"}],"stateMutability":"view"},{"type":"function","name":"ownerOf","inputs":[{"name":"tokenId","type":"uint256","internalType":"uint256"}],"outputs":[{"name":"","type":"address","internalType":"address"}],"stateMutability":"view"},{"type":"function","name":"registry","inputs":[],"outputs":[{"name":"","type":"address","internalType":"contract IERC6551Registry"}],"stateMutability":"view"},{"type":"function","name":"removeAuthorizedMinter","inputs":[{"name":"minter","type":"address","internalType":"address"}],"outputs":[],"stateMutability":"nonpayable"},{"type":"function","name":"renounceOwnership","inputs":[],"outputs":[],"stateMutability":"nonpayable"},{"type":"function","name":"safeTransferFrom","inputs":[{"name":"from","type":"address","internalType":"address"},{"name":"to","type":"address","internalType":"address"},{"name":"tokenId","type":"uint256","internalType":"uint256"}],"outputs":[],"stateMutability":"nonpayable"},{"type":"function","name":"safeTransferFrom","inputs":[{"name":"from","type":"address","internalType":"address"},{"name":"to","type":"address","internalType":"address"},{"name":"tokenId","type":"uint256","internalType":"uint256"},{"name":"data","type":"bytes","internalType":"bytes"}],"outputs":[],"stateMutability":"nonpayable"},{"type":"function","name":"salt","inputs":[],"outputs":[{"name":"","type":"bytes32","internalType":"bytes32"}],"stateMutability":"view"},{"type":"function","name":"setApprovalForAll","inputs":[{"name":"operator","type":"address","internalType":"address"},{"name":"approved","type":"bool","internalType":"bool"}],"outputs":[],"stateMutability":"nonpayable"},{"type":"function","name":"supportsInterface","inputs":[{"name":"interfaceId","type":"bytes4","internalType":"bytes4"}],"outputs":[{"name":"","type":"bool","internalType":"bool"}],"stateMutability":"view"},{"type":"function","name":"symbol","inputs":[],"outputs":[{"name":"","type":"string","internalType":"string"}],"stateMutability":"view"},{"type":"function","name":"textContent","inputs":[{"name":"","type":"uint256","internalType":"uint256"}],"outputs":[{"name":"","type":"string","internalType":"string"}],"stateMutability":"view"},{"type":"function","name":"tokenBoundAccounts","inputs":[{"name":"","type":"uint256","internalType":"uint256"}],"outputs":[{"name":"","type":"address","internalType":"address"}],"stateMutability":"view"},{"type":"function","name":"tokenIdToNodeId","inputs":[{"name":"","type":"uint256","internalType":"uint256"}],"outputs":[{"name":"","type":"bytes32","internalType":"bytes32"}],"stateMutability":"view"},{"type":"function","name":"tokenURI","inputs":[{"name":"tokenId","type":"uint256","internalType":"uint256"}],"outputs":[{"name":"","type":"string","internalType":"string"}],"stateMutability":"view"},{"type":"function","name":"tokenURIs","inputs":[{"name":"","type":"uint256","internalType":"uint256"}],"outputs":[{"name":"","type":"string","internalType":"string"}],"stateMutability":"view"},{"type":"function","name":"totalSupply","inputs":[],"outputs":[{"name":"","type":"uint256","internalType":"uint256"}],"stateMutability":"view"},{"type":"function","name":"transferFrom","inputs":[{"name":"from","type":"address","internalType":"address"},{"name":"to","type":"address","internalType":"address"},{"name":"tokenId","type":"uint256","internalType":"uint256"}],"outputs":[],"stateMutability":"nonpayable"},{"type":"function","name":"transferOwnership","inputs":[{"name":"newOwner","type":"address","internalType":"address"}],"outputs":[],"stateMutability":"nonpayable"},{"type":"function","name":"updateTokenContent","inputs":[{"name":"nodeId","type":"bytes32","internalType":"bytes32"},{"name":"newContent","type":"string","internalType":"string"}],"outputs":[],"stateMutability":"nonpayable"},{"type":"event","name":"Approval","inputs":[{"name":"owner","type":"address","indexed":true,"internalType":"address"},{"name":"approved","type":"address","indexed":true,"internalType":"address"},{"name":"tokenId","type":"uint256","indexed":true,"internalType":"uint256"}],"anonymous":false},{"type":"event","name":"ApprovalForAll","inputs":[{"name":"owner","type":"address","indexed":true,"internalType":"address"},{"name":"operator","type":"address","indexed":true,"internalType":"address"},{"name":"approved","type":"bool","indexed":false,"internalType":"bool"}],"anonymous":false},{"type":"event","name":"NodeNFTContentUpdated","inputs":[{"name":"tokenId","type":"uint256","indexed":true,"internalType":"uint256"},{"name":"nodeId","type":"bytes32","indexed":true,"internalType":"bytes32"},{"name":"content","type":"string","indexed":false,"internalType":"string"}],"anonymous":false},{"type":"event","name":"NodeNFTMinted","inputs":[{"name":"tokenId","type":"uint256","indexed":true,"internalType":"uint256"},{"name":"nodeId","type":"bytes32","indexed":true,"internalType":"bytes32"},{"name":"owner","type":"address","indexed":true,"internalType":"address"},{"name":"content","type":"string","indexed":false,"internalType":"string"},{"name":"tokenBoundAccount","type":"address","indexed":false,"internalType":"address"},{"name":"nodeTokenContract","type":"address","indexed":false,"internalType":"address"}],"anonymous":false},{"type":"event","name":"NodeTokenCreated","inputs":[{"name":"tokenId","type":"uint256","indexed":true,"internalType":"uint256"},{"name":"nodeTokenContract","type":"address","indexed":true,"internalType":"address"},{"name":"tokenBoundAccount","type":"address","indexed":true,"internalType":"address"},{"name":"tokenSupply","type":"uint256","indexed":false,"internalType":"uint256"}],"anonymous":false},{"type":"event","name":"OwnershipTransferred","inputs":[{"name":"previousOwner","type":"address","indexed":true,"internalType":"address"},{"name":"newOwner","type":"address","indexed":true,"internalType":"address"}],"anonymous":false},{"type":"event","name":"TokenBoundAccountCreated","inputs":[{"name":"tokenId","type":"uint256","indexed":true,"internalType":"uint256"},{"name":"tokenBoundAccount","type":"address","indexed":true,"internalType":"address"}],"anonymous":false},{"type":"event","name":"Transfer","inputs":[{"name":"from","type":"address","indexed":true,"internalType":"address"},{"name":"to","type":"address","indexed":true,"internalType":"address"},{"name":"tokenId","type":"uint256","indexed":true,"internalType":"uint256"}],"anonymous":false},{"type":"error","name":"ERC721IncorrectOwner","inputs":[{"name":"sender","type":"address","internalType":"address"},{"name":"tokenId","type":"uint256","internalType":"uint256"},{"name":"owner","type":"address","internalType":"address"}]},{"type":"error","name":"ERC721InsufficientApproval","inputs":[{"name":"operator","type":"address","internalType":"address"},{"name":"tokenId","type":"uint256","internalType":"uint256"}]},{"type":"error","name":"ERC721InvalidApprover","inputs":[{"name":"approver","type":"address","internalType":"address"}]},{"type":"error","name":"ERC721InvalidOperator","inputs":[{"name":"operator","type":"address","internalType":"address"}]},{"type":"error","name":"ERC721InvalidOwner","inputs":[{"name":"owner","type":"address","internalType":"address"}]},{"type":"error","name":"ERC721InvalidReceiver","inputs":[{"name":"receiver","type":"address","internalType":"address"}]},{"type":"error","name":"ERC721InvalidSender","inputs":[{"name":"sender","type":"address","internalType":"address"}]},{"type":"error","name":"ERC721NonexistentToken","inputs":[{"name":"tokenId","type":"uint256","internalType":"uint256"}]},{"type":"error","name":"OwnableInvalidOwner","inputs":[{"name":"owner","type":"address","internalType":"address"}]},{"type":"error","name":"OwnableUnauthorizedAccount","inputs":[{"name":"account","type":"address","internalType":"address"}]}],"bytecode":{"object":"0x60e034620003f357601f1990601f906001600160401b0362004a8238819003848101861684019190838311858410176200031557808592606094604052833981010312620003f357620000528262000417565b9360209160406200006584860162000417565b9401519162000073620003f7565b9560088752674c6f6f6d4e6f646560c01b8588015262000092620003f7565b60058152644c4e4f444560d81b86820152875184811162000315575f546001998a82811c92168015620003e8575b89831014620002f657818584931162000395575b50889085831160011462000335575f9262000329575b50505f19600383901b1c191690891b175f555b805193841162000315578754928884811c941680156200030a575b87851014620002f65783838695116200029f575b50869284116001146200023e57505f9262000232575b50505f19600383901b1c191690851b1784555b33156200021a5760068054336001600160a01b03198216811790925560405196600b95926001600160a01b039283167f8be0079c531659141344cd1fd0a4f28419497f9722a3daafe3b4186f6b6457e05f80a3866007551660805260a05260c052335f525260405f209060ff1982541617905561465590816200042d82396080518181816105c501528181611bcf0152612042015260a05181818161055701528181611b6501526125ac015260c05181818161057e015281816113b10152611b910152f35b604051631e4fbdf760e01b81525f6004820152602490fd5b015190505f8062000142565b88949291921691845f52865f20925f5b888282106200028857505084116200026f575b505050811b01845562000155565b01515f1960f88460031b161c191690555f808062000261565b8385015186558b979095019493840193016200024e565b9091929350885f52865f208480870160051c820192898810620002ec575b9187968c92969594930160051c01915b828110620002dd5750506200012c565b5f81558796508b9101620002cd565b92508192620002bd565b634e487b7160e01b5f52602260045260245ffd5b93607f169362000118565b634e487b7160e01b5f52604160045260245ffd5b015190505f80620000ea565b90868c9416915f80528a5f20925f5b8c8282106200037e575050841162000365575b505050811b015f55620000fd565b01515f1960f88460031b161c191690555f808062000357565b8385015186558f9790950194938401930162000344565b9091505f8052885f208580850160051c8201928b8610620003de575b918d91869594930160051c01915b828110620003cf575050620000d4565b5f81558594508d9101620003bf565b92508192620003b1565b91607f1691620000c0565b5f80fd5b60408051919082016001600160401b038111838210176200031557604052565b51906001600160a01b0382168203620003f35756fe6080604052600436101562000012575f80fd5b5f803560e01c806301814670146200282f57806301ffc9a714620027ba57806306fdde031462002707578063081812fc14620026c7578063095ea7b314620025db57806311464fbe146200259557806318160ddd146200255557806323b872dd146200253957806328a1850814620025055780633323463014620024bd5780633dc597f4146200249357806342842e0e1462002441578063475ae03914620023fa5780635c534a8514620022255780635d3dd4e914620021de5780635f710f5c14620021945780636352211e146200215f5780636bdf34861462001d2c5780636c8b703f146200212f57806370a0823114620020d2578063715018a614620020715780637b103999146200202a5780638d06fa6a1462001d835780638da5cb5b1462001d5857806392a224131462001d2c57806395d89b411462001c3d57806396f51a641462001b3a578063a22cb4651462001a91578063a3fb540c146200151a578063aa2fe91b14620014d7578063abb23f5b1462001490578063b4f771091462001443578063b88d4fde14620013d4578063bfa0b1331462001397578063c6a8212f1462001362578063c87b56dd14620012d1578063cc4a5aec146200117d578063ce8884eb146200114d578063cefd43971462001121578063d0e1055d14620010f1578063d6b47acd14620002e7578063e0cbc7a814620010a8578063e404af9214620003b8578063e985e9c51462000360578063ec710ca61462000313578063ed9494c114620002e75763f2fde38b146200024f575f80fd5b34620002e4576020366003190112620002e4576200026c620028c1565b6200027662003181565b6001600160a01b03908116908115620002cb57600654826bffffffffffffffffffffffff60a01b821617600655167f8be0079c531659141344cd1fd0a4f28419497f9722a3daafe3b4186f6b6457e05f80a380f35b604051631e4fbdf760e01b815260048101849052602490fd5b80fd5b5034620002e4576020366003190112620002e45760406020916004358152600883522054604051908152f35b5034620002e4576020366003190112620002e45760209060043581526008825260408120546200034581151562002b10565b8152600c8252604060018060a01b0391205416604051908152f35b5034620002e4576040366003190112620002e4576200037e620028c1565b60406200038a620028d8565b9260018060a01b03809316815260056020522091165f52602052602060ff60405f2054166040519015158152f35b5034620002e45760c0366003190112620002e457620003d6620028c1565b6044356001600160401b038111620010a457620003f8903690600401620029d0565b6064356001600160401b038111620010a0576200041a903690600401620029d0565b6084356001600160401b0381116200109c576200043c903690600401620029d0565b91338552600b60205260ff604086205416801562001087575b620004609062002f8c565b602435855260086020526040852054620010435760075493620004838562003137565b6007556001600160a01b038116156200102a575f858152600260205260409020546001600160a01b03168062000ff6575b6001600160a01b0382165f818152600360209081526040808320805460010190558983526002909152812080546001600160a01b0319168317905587919083907fddf252ad1be2c89b69c2b068fc378daa952ba7f163c4a11628f55a4df523b3ef9080a462000fdd5760248035808852600860209081526040808a20899055888a5260098252808a20929092559051638a54c52f60e01b81526001600160a01b037f00000000000000000000000000000000000000000000000000000000000000001660048201527f00000000000000000000000000000000000000000000000000000000000000009281019290925246604483015230606483015260848201879052909390848060a4810103818a7f00000000000000000000000000000000000000000000000000000000000000006001600160a01b03165af193841562000f9a57879462000fa5575b50858752600c602052604080882080546001600160a01b0319166001600160a01b038716179055516001600160401b036110ed82019081119082111762000c87576110ed62003533823960606110ed82015280620006806200066960606110ed840101856200289a565b6110ed8301810360206110ed85010152886200289a565b60a43560406110ed84010152039088f094851562000f9a57868852600d60209081526040808a2080546001600160a01b0319166001600160a01b038a16179055600e909152882082516001600160401b03811162000ecb57620006e4825462002a27565b601f811162000f53575b50806020601f821160011462000eeb578b9162000edf575b508160011b915f199060031b1c19161790555b868852600f6020526040882081516001600160401b03811162000ecb5762000742825462002a27565b601f811162000e84575b50806020601f821160011462000e1c578b9162000e10575b508160011b915f199060031b1c19161790555b868852601060209081526040808a2060a4359055516318160ddd60e01b81529290836004816001600160a01b038b165afa92831562000dc657899362000dd1575b5060405163a9059cbb60e01b81526001600160a01b03871660048201526024810193909352602083806044810103818c6001600160a01b038c165af192831562000dc657859362000d7a575b5062000a059160b191620008188a620031d4565b9162000826602435620032b3565b91620008328a6200341e565b620008466001600160a01b038d166200341e565b906200085460a435620031d4565b94604051998a97727b226e616d65223a224c6f6f6d4e6f6465202360681b60208a01526200088d81518092602060338d01910162002877565b8801701116113232b9b1b934b83a34b7b7111d1160791b6033820152620008bf82518093602060448501910162002877565b016b1116113737b232a4b2111d1160a11b6044820152620008eb82518093602060508501910162002877565b01761116113a37b5b2b72137bab73220b1b1b7bab73a111d1160491b60508201526200092282518093602060678501910162002877565b01761116113737b232aa37b5b2b721b7b73a3930b1ba111d1160491b606782015262000959825180936020607e8501910162002877565b016e1116113a37b5b2b72730b6b2911d1160891b607e82015262000988825180936020608d8501910162002877565b01701116113a37b5b2b729bcb6b137b6111d1160791b608d820152620009b9825180936020609e8501910162002877565b01701116113a37b5b2b729bab838363c911d1160791b609e820152620009ea82518093602060af8501910162002877565b0161227d60f01b60af82015203609181018452018262002957565b858752600a60205260408720908051906001600160401b03821162000d6657819062000a32845462002a27565b601f811162000d14575b50602090601f831160011462000ca7578a9262000c9b575b50508160011b915f199060031b1c19161790555b84865260116020526040862082516001600160401b03811162000c875762000a91825462002a27565b601f811162000c41575b50918693918895936020995089601f821160011462000bb25791817f56259a8d3e204df2f49cc3653344ad8b3b741dd405cc7f3f7f8d88bc50c1b7dd9694928c96948a9162000ba6575b508160011b915f199060031b1c19161790555b857fc8d11bd5e43cbe8a49197cd7df211e3d0ba299f25ec89b2090b06c03b7fd549562000b31604051946060865260608601906200289a565b6001600160a01b03868116868901528b81166040870152909316936024359381900390a4604051946001600160a01b0382169085907fc4b8a8d86d64119f34964e927b7da67edd99b17cd62a7c5f1c00f27c3dfb68e89080a360a43585526001600160a01b03908116951693a4604051908152f35b90508401515f62000ae5565b8288528a882090885b601f198416811062000c265750828c9694926001927f56259a8d3e204df2f49cc3653344ad8b3b741dd405cc7f3f7f8d88bc50c1b7dd999795601f1981161062000c0d575b5050811b01905562000af8565b8601515f1960f88460031b161c191690555f8062000c00565b8187015183558b9850600190920191908c01908c0162000bbb565b82895260208920601f830160051c81016020841062000c7f575b601f830160051c8201811062000c7357505062000a9b565b8a815560010162000c5b565b508062000c5b565b634e487b7160e01b88526041600452602488fd5b015190505f8062000a54565b9250838a5260208a20908a935b601f198416851062000cf8576001945083601f1981161062000cdf575b505050811b01905562000a68565b01515f1960f88460031b161c191690555f808062000cd1565b8181015183556020948501946001909301929091019062000cb4565b909150838a5260208a20601f840160051c81016020851062000d5e575b90849392915b601f830160051c8201811062000d4f57505062000a3c565b8c815585945060010162000d37565b508062000d31565b634e487b7160e01b89526041600452602489fd5b9092506020813d60201162000dbd575b8162000d996020938362002957565b8101031262000db957518015150362000db55783915f62000804565b8780fd5b8880fd5b3d915062000d8a565b6040513d8b823e3d90fd5b92506020833d60201162000e07575b8162000def6020938362002957565b8101031262000e03579151916020620007b8565b5f80fd5b3d915062000de0565b90508301515f62000764565b9150828b5260208b208b925b601f198316841062000e6b576001935082601f1981161062000e52575b5050811b01905562000777565b8501515f1960f88460031b161c191690555f8062000e45565b8581015182556020938401936001909201910162000e28565b828b5260208b20601f830160051c81016020841062000ec3575b8c601f840160051c8301821062000eb8575050506200074c565b815560010162000e9e565b508062000e9e565b634e487b7160e01b8a52604160045260248afd5b90508401515f62000706565b9150828b5260208b208b925b601f198316841062000f3a576001935082601f1981161062000f21575b5050811b01905562000719565b8601515f1960f88460031b161c191690555f8062000f14565b8681015182556020938401936001909201910162000ef7565b828b5260208b20601f830160051c81016020841062000f92575b8c601f840160051c8301821062000f8757505050620006ee565b815560010162000f6d565b508062000f6d565b6040513d89823e3d90fd5b62000fcd91945060203d60201162000fd5575b62000fc4818362002957565b81019062002f6b565b925f620005ff565b503d62000fb8565b6040516339e3563760e11b815260048101879052602490fd5b5f86815260046020526040902080546001600160a01b0319169055805f52600360205260405f205f198154019055620004b4565b604051633250574960e11b815260048101879052602490fd5b606460405162461bcd60e51b815260206004820152602060248201527f4e465420616c72656164792065786973747320666f722074686973206e6f64656044820152fd5b506006546001600160a01b0316331462000455565b8480fd5b8380fd5b8280fd5b5034620002e4576020366003190112620002e457620010d86040620010ed926004358152600f6020522062002a62565b6040519182916020835260208301906200289a565b0390f35b5034620002e4576020366003190112620002e457620010d86040620010ed92600435815260116020522062002a62565b5034620002e4576020366003190112620002e45760406020916004358152601083522054604051908152f35b5034620002e4576020366003190112620002e457620010d86040620010ed926004358152600e6020522062002a62565b5034620002e45760209081600319360112620002e4576001600160a01b039080600435620011b984620011b08362003146565b16151562002f27565b808352600d85528360408420541693600c865260408420541691600e8652620011e56040852062002a62565b90828552600f8752620011fb6040862062002a62565b928552601087526040852054948662001256575b50906200123d916200124c946040519889988952880152604087015260c0606087015260c08601906200289a565b9084820360808601526200289a565b9060a08301520390f35b90506040516370a0823160e01b815284600482015287816024818a5afa918215620012c557916200128d575b506200124c6200120f565b9190508682813d8311620012bd575b620012a8818362002957565b8101031262000e035790516200124c62001282565b503d6200129c565b604051903d90823e3d90fd5b5034620002e4576020366003190112620002e457600435906001600160a01b03620012fc8362003146565b16156200131d57604081620010ed93620010d89352600a6020522062002a62565b60405162461bcd60e51b815260206004820152601f60248201527f55524920717565727920666f72206e6f6e6578697374656e7420746f6b656e006044820152606490fd5b5034620002e4576020366003190112620002e4576020906004358152600c8252604060018060a01b0391205416604051908152f35b5034620002e45780600319360112620002e45760206040517f00000000000000000000000000000000000000000000000000000000000000008152f35b5034620002e4576080366003190112620002e457620013f2620028c1565b620013fc620028d8565b606435916001600160401b038311620010a05736602384011215620010a057620014356200144093369060248160040135910162002995565b916044359162002fd2565b80f35b5034620002e4576020366003190112620002e45760209060043581526008825260408120546200147581151562002b10565b8152600d8252604060018060a01b0391205416604051908152f35b5034620002e4576020366003190112620002e4576020906001600160a01b0390604090600435620014c684620011b08362003146565b8152600c8452205416604051908152f35b5034620002e4576020366003190112620002e45760209060ff906040906001600160a01b0362001506620028c1565b168152600b84522054166040519015158152f35b5034620002e4576040366003190112620002e4576001600160401b03602435818111620010a45762001551903690600401620029d0565b90338352602091600b835260ff604085205416801562001a7c575b620015779062002f8c565b600435845260088352620016666040852054926200159784151562002b10565b838652600c8552620017d660b160018060a01b038060408a20541690600d895260408a20541690600e8952620015d060408b2062002a62565b888b52600f8a52620015e560408c2062002a62565b90898c5260108b5260408c2054620015fd8b620031d4565b948c620016f5620016316200162a620016236200161c600435620032b3565b996200341e565b946200341e565b94620031d4565b968d60336040519e8f809c727b226e616d65223a224c6f6f6d4e6f6465202360681b8883015287815194859301910162002877565b8a01701116113232b9b1b934b83a34b7b7111d1160791b603382015262001697825180938760448501910162002877565b016b1116113737b232a4b2111d1160a11b6044820152620016c2825180938660508501910162002877565b0191761116113a37b5b2b72137bab73220b1b1b7bab73a111d1160491b6050840152835193849160678501910162002877565b01761116113737b232aa37b5b2b721b7b73a3930b1ba111d1160491b60678201526200172c8d8351938491607e8501910162002877565b016e1116113a37b5b2b72730b6b2911d1160891b607e8201526200175b8c8351938491608d8501910162002877565b01701116113a37b5b2b729bcb6b137b6111d1160791b608d8201526200178b825180938d609e8501910162002877565b01701116113a37b5b2b729bab838363c911d1160791b609e820152620017bb825180938c60af8501910162002877565b0161227d60f01b60af82015203609181018552018362002957565b838652600a855260408620825182811162000c875780620017f8835462002a27565b94601f9586811162001a2b575b508890868311600114620019c4578a92620019b8575b50508160011b915f199060031b1c19161790555b8386526011855260408620918351918211620019a45762001851835462002a27565b8181116200195f575b5085908211600114620018d45791817ff113a05953f920899132958aed3722b7dbe533d617abaf4d2ca095c4bfb146989492620018c2948991620018c8575b508160011b915f199060031b1c19161790555b604051918291868352600435968301906200289a565b0390a380f35b90508301515f62001899565b82875285872090601f198316885b888282106200194857505092620018c29492600192827ff113a05953f920899132958aed3722b7dbe533d617abaf4d2ca095c4bfb146989896106200192f575b5050811b019055620018ac565b8501515f1960f88460031b161c191690555f8062001922565b600184958293958a015181550194019201620018e2565b8388528688208280850160051c8201928986106200199a575b0160051c01905b8181106200198e57506200185a565b8881556001016200197f565b9250819262001978565b634e487b7160e01b87526041600452602487fd5b015190505f806200181b565b848b52898b209250601f1984168b5b8b82821062001a14575050908460019594939210620019fb575b505050811b0190556200182f565b01515f1960f88460031b161c191690555f8080620019ed565b6001859682939686015181550195019301620019d3565b909150838a52888a208680850160051c8201928b861062001a72575b9085949392910160051c01905b81811062001a63575062001805565b8b815584935060010162001a54565b9250819262001a47565b506006546001600160a01b031633146200156c565b5034620002e4576040366003190112620002e45762001aaf620028c1565b60243590811515809203620010a4576001600160a01b031690811562001b2157338352600560205260408320825f5260205260405f2060ff1981541660ff83161790556040519081527f17307eab39ab6107e8899845ad3d59bd9653f200f220920489ca2b5937696c3160203392a380f35b604051630b61174360e31b815260048101839052602490fd5b5034620002e4576020366003190112620002e45760405163246a002160e01b81526001600160a01b037f000000000000000000000000000000000000000000000000000000000000000081166004808401919091527f0000000000000000000000000000000000000000000000000000000000000000602484015246604484015230606484015235608483015260208260a4817f000000000000000000000000000000000000000000000000000000000000000085165afa91821562001c32576020939262001c0e575b5060405191168152f35b62001c2a919250833d851162000fd55762000fc4818362002957565b905f62001c04565b6040513d85823e3d90fd5b5034620002e45780600319360112620002e4576040515f6001826001549262001c668462002a27565b92838352602094856001821691825f1462001d0a57505060011462001cab575b5062001c959250038362002957565b620010ed6040519282849384528301906200289a565b84915060015f527fb10e2d527612073b26eecdfd717e6a320cf44b4afac2b0732d9fcbe2b7fa0cf6905f915b85831062001cf157505062001c9593508201018562001c86565b8054838901850152879450869390920191810162001cd7565b60ff19168582015262001c9595151560051b850101925087915062001c869050565b5034620002e4576020366003190112620002e45760406020916004358152600983522054604051908152f35b5034620002e45780600319360112620002e4576006546040516001600160a01b039091168152602090f35b5034620002e45762001d9536620029f1565b9291825260209260088452604083205462001db281151562002b10565b338452600b855260ff604085205416801562002015575b801562001ff8575b1562001f9e578352600d8452604080842054600c8652908420546001600160a01b0390811692911662001e0681151562002e70565b62001e1383151562002ebd565b60405193630cd3b5fd60e31b855260048501528584602481845afa93841562001f9357859462001f5e575b506040516370a0823160e01b8152600481018490528681602481855afa90811562001f5357908591879162001f1c575b501062001ed757849550803b156200109c5762001ea6938580946040519687958694859363057d5c3760e21b85526004850162002f01565b03925af1801562001ecc5762001eb95750f35b62001ec49062002927565b620002e45780f35b6040513d84823e3d90fd5b60405162461bcd60e51b815260048101879052601a60248201527f496e73756666696369656e7420746f6b656e2062616c616e63650000000000006044820152606490fd5b809250888092503d831162001f4b575b62001f38818362002957565b8101031262000e03578490515f62001e6e565b503d62001f2c565b6040513d88823e3d90fd5b9093508581813d831162001f8b575b62001f79818362002957565b8101031262000e035751925f62001e3e565b503d62001f6d565b6040513d87823e3d90fd5b60405162461bcd60e51b815260048101869052602c60248201527f4e6f7420617574686f72697a656420746f206275726e20746f6b656e7320667260448201526b6f6d2074686973206e6f646560a01b6064820152608490fd5b506001600160a01b036200200c8262003146565b16331462001dd1565b506006546001600160a01b0316331462001dc9565b5034620002e45780600319360112620002e4576040517f00000000000000000000000000000000000000000000000000000000000000006001600160a01b03168152602090f35b5034620002e45780600319360112620002e4576200208e62003181565b600680546001600160a01b031981169091555f906001600160a01b03167f8be0079c531659141344cd1fd0a4f28419497f9722a3daafe3b4186f6b6457e08280a380f35b5034620002e4576020366003190112620002e4576001600160a01b03620020f8620028c1565b16801562002116578160409160209352600383522054604051908152f35b6040516322718ad960e21b815260048101839052602490fd5b5034620002e4576020366003190112620002e457620010d86040620010ed926004358152600a6020522062002a62565b5034620002e4576020366003190112620002e45760206200218260043562003146565b6040516001600160a01b039091168152f35b5034620002e4576020366003190112620002e457620021b2620028c1565b620021bc62003181565b6001600160a01b03168152600b60205260408120805460ff1916600117905580f35b5034620002e4576020366003190112620002e4576020906001600160a01b03906040906004356200221484620011b08362003146565b8152600d8452205416604051908152f35b503462000e03576200223736620029f1565b915f526020916008835260405f20546200225381151562002b10565b335f52600b845260ff60405f2054168015620023e5575b8015620023c8575b1562002370575f52600d835260018060a01b038060405f20541690600c855260405f20541692620022a582151562002e70565b620022b284151562002ebd565b60405190630cd3b5fd60e31b825260048201528481602481855afa9485156200232f575f956200233a575b5050803b1562000e03576200230d935f8094604051968795869485936334ff261960e21b85526004850162002f01565b03925af180156200232f5762002321575080f35b6200232d915062002927565b005b6040513d5f823e3d90fd5b9080929550813d831162002368575b62002355818362002957565b8101031262000e035751925f80620022dd565b503d62002349565b60405162461bcd60e51b815260048101859052602a60248201527f4e6f7420617574686f72697a656420746f206d696e7420746f6b656e7320746f6044820152692074686973206e6f646560b01b6064820152608490fd5b506001600160a01b03620023dc8262003146565b16331462002272565b506006546001600160a01b031633146200226a565b3462000e0357602036600319011262000e035762002417620028c1565b6200242162003181565b6001600160a01b03165f908152600b60205260409020805460ff19169055005b3462000e03576200245236620028ef565b6040519160208301938385106001600160401b038611176200247f576200232d946040525f845262002fd2565b634e487b7160e01b5f52604160045260245ffd5b3462000e0357602036600319011262000e03576020620024b560043562002d08565b604051908152f35b3462000e0357602036600319011262000e03576004355f52600860205260405f2054620024ec81151562002b10565b5f526011602052620010ed620010d860405f2062002a62565b3462000e0357602036600319011262000e03576004355f52600d602052602060018060a01b0360405f205416604051908152f35b3462000e03576200232d6200254e36620028ef565b9162002b5d565b3462000e03575f36600319011262000e03576007545f1981019081116200258157602090604051908152f35b634e487b7160e01b5f52601160045260245ffd5b3462000e03575f36600319011262000e03576040517f00000000000000000000000000000000000000000000000000000000000000006001600160a01b03168152602090f35b3462000e0357604036600319011262000e0357620025f8620028c1565b602435620026068162003146565b33151580620026b3575b8062002689575b62002671576001600160a01b039283169282918491167f8c5be1e5ebec7d5bd14f71427d1e84f3dd0314c0f7b2291e5b200ac8c7c3b9255f80a45f90815260046020526040902080546001600160a01b0319169091179055005b60405163a9fbf51f60e01b8152336004820152602490fd5b5060018060a01b0381165f52600560205260405f20335f5260205260ff60405f2054161562002617565b506001600160a01b03811633141562002610565b3462000e0357602036600319011262000e0357600435620026e88162003146565b505f526004602052602060018060a01b0360405f205416604051908152f35b3462000e03575f36600319011262000e03576040515f805490826200272c8362002a27565b91828252602093600190856001821691825f1462001d0a5750506001146200275d575062001c959250038362002957565b5f808052859250907f290decd9548b62a8d60345a988386fc84ba6bc95484008f6362f93160ef3e5635b858310620027a157505062001c9593508201018562001c86565b8054838901850152879450869390920191810162002787565b3462000e0357602036600319011262000e035760043563ffffffff60e01b811680910362000e03576020906380ac58cd60e01b81149081156200281d575b81156200280b575b506040519015158152f35b6301ffc9a760e01b1490508262002800565b635b5e139f60e01b81149150620027f8565b3462000e0357602036600319011262000e03576004355f52600860205260405f20546200285e81151562002b10565b5f52600a602052620010ed620010d860405f2062002a62565b5f5b838110620028895750505f910152565b818101518382015260200162002879565b90602091620028b58151809281855285808601910162002877565b601f01601f1916010190565b600435906001600160a01b038216820362000e0357565b602435906001600160a01b038216820362000e0357565b606090600319011262000e03576001600160a01b0390600435828116810362000e035791602435908116810362000e03579060443590565b6001600160401b0381116200247f57604052565b606081019081106001600160401b038211176200247f57604052565b90601f801991011681019081106001600160401b038211176200247f57604052565b6001600160401b0381116200247f57601f01601f191660200190565b929192620029a38262002979565b91620029b3604051938462002957565b82948184528183011162000e03578281602093845f960137010152565b9080601f8301121562000e0357816020620029ee9335910162002995565b90565b606060031982011262000e03576004359160243591604435906001600160401b03821162000e0357620029ee91600401620029d0565b90600182811c9216801562002a57575b602083101462002a4357565b634e487b7160e01b5f52602260045260245ffd5b91607f169162002a37565b9060405191825f825462002a768162002a27565b908184526020946001916001811690815f1462002aec575060011462002aaa575b50505062002aa89250038362002957565b565b5f90815285812095935091905b81831062002ad357505062002aa893508201015f808062002a97565b8554888401850152948501948794509183019162002ab7565b9250505062002aa894925060ff191682840152151560051b8201015f808062002a97565b1562002b1857565b60405162461bcd60e51b815260206004820152601d60248201527f4e6f20746f6b656e2065786973747320666f722074686973206e6f64650000006044820152606490fd5b6001600160a01b03918216929091831562002cf057815f52602092600284528260409583875f205416953315158062002c53575b506002908762002c21575b825f5260038152885f2060018154019055835f5252865f20816bffffffffffffffffffffffff60a01b825416179055857fddf252ad1be2c89b69c2b068fc378daa952ba7f163c4a11628f55a4df523b3ef5f80a4169283830362002c005750505050565b6064945051926364283d7b60e01b8452600484015260248301526044820152fd5b5f84815260046020526040812080546001600160a01b03191690558881526003825289902080545f1901905562002b9c565b919250908062002cab575b1562002c6e579084915f62002b91565b86858762002c8c576024915190637e27328960e01b82526004820152fd5b905163177e802f60e01b81523360048201526024810191909152604490fd5b50338614801562002cd3575b8062002c5e5750845f52600481523384885f2054161462002c5e565b50855f5260058152865f20335f52815260ff875f20541662002cb7565b604051633250574960e11b81525f6004820152602490fd5b5f52602060088152604090815f205462002d2481151562002b10565b5f52600d815260018060a01b039182815f20541692600c8352815f205416918315801562002e67575b62002e5f578151926370a0823160e01b845260048401528083602481875afa92831562002e55575f9362002e20575b50806004939483519485809263313ce56760e01b82525afa91821562002e1757505f9162002dd7575b5060ff915016604d81116200258157600a0a90811562002dc3570490565b634e487b7160e01b5f52601260045260245ffd5b905081813d831162002e0f575b62002df0818362002957565b8101031262000e03575160ff8116810362000e035760ff905f62002da5565b503d62002de4565b513d5f823e3d90fd5b92508083813d831162002e4d575b62002e3a818362002957565b8101031262000e03579151918062002d7c565b503d62002e2e565b82513d5f823e3d90fd5b505050505f90565b50821562002d4d565b1562002e7857565b60405162461bcd60e51b815260206004820152601f60248201527f4e6f20746f6b656e20636f6e747261637420666f722074686973206e6f6465006044820152606490fd5b1562002ec557565b60405162461bcd60e51b81526020600482015260146024820152734e6f2054424120666f722074686973206e6f646560601b6044820152606490fd5b620029ee939260609260018060a01b03168252602082015281604082015201906200289a565b1562002f2f57565b60405162461bcd60e51b8152602060048201526014602482015273151bdad95b88191bd95cc81b9bdd08195e1a5cdd60621b6044820152606490fd5b9081602091031262000e0357516001600160a01b038116810362000e035790565b1562002f9457565b60405162461bcd60e51b8152602060048201526016602482015275139bdd08185d5d1a1bdc9a5e9959081d1bc81b5a5b9d60521b6044820152606490fd5b919262002fe184838562002b5d565b813b62002fef575b50505050565b604051630a85bd0160e11b8082523360048301526001600160a01b03948516602483015260448201959095526080606482015260209593909216939190859082908190620030429060848301906200289a565b03815f885af15f9181620030f0575b50620030b8575050503d5f14620030af573d916200306f8362002979565b926200307f604051948562002957565b83523d5f8285013e5b82519283620030aa57604051633250574960e11b815260048101849052602490fd5b019050fd5b60609162003088565b9193506001600160e01b031990911603620030d857505f80808062002fe9565b60249060405190633250574960e11b82526004820152fd5b9091508581813d83116200312f575b6200310b818362002957565b8101031262000e0357516001600160e01b03198116810362000e0357905f62003051565b503d620030ff565b5f198114620025815760010190565b5f818152600260205260409020546001600160a01b031690811562003169575090565b60249060405190637e27328960e01b82526004820152fd5b6006546001600160a01b031633036200319657565b60405163118cdaa760e01b8152336004820152602490fd5b908151811015620031c0570160200190565b634e487b7160e01b5f52603260045260245ffd5b8015620032845780815f925b6200326b5750620031f18262002979565b9162003201604051938462002957565b80835281601f19620032138362002979565b013660208601375b6200322557505090565b5f19810190811162002581578091600a9160308383068101809111620025815760f81b6001600160f81b0319165f1a90620032619086620031ae565b530490816200321b565b90916200327a600a9162003137565b92910480620031e0565b50604051604081018181106001600160401b038211176200247f5760405260018152600360fc1b602082015290565b60405190620032c2826200293b565b60408252602090602083019160403684375f5b8181106200331b5750505060226200330a92620029ee9260405194859261060f60f31b60208501525180928585019062002877565b810103600281018452018262002957565b601f8181039081116200258157600381901b906001600160fd1b0381160362002581576004908181018082116200340b57908591600f9283911c169260109182851015620033e5576f181899199a1a9b1b9c1cb0b131b232b360811b9360019187831b9688880460021489151715620033f857908c620033a089898e951a92620031ae565b531c1692831015620033e5578401809411620033d257506001939291620033ca911a9188620031ae565b5301620032d5565b601190634e487b7160e01b5f525260245ffd5b603282634e487b7160e01b5f525260245ffd5b601185634e487b7160e01b5f525260245ffd5b601183634e487b7160e01b5f525260245ffd5b604051906001600160a01b031662003436826200293b565b60288252602082019060403683375f5b601481106200347b57505060226200330a92620029ee9260405194859261060f60f31b60208501525180928585019062002877565b60138181039081116200258157600381901b906001600160fd1b0381160362002581576004908181018082116200340b57908491600f9283911c169260109182851015620033e5576f181899199a1a9b1b9c1cb0b131b232b360811b9360019187831b9688880460021489151715620033f857908b6200350089898d951a92620031ae565b531c1692831015620033e5578401809411620033d2575060019392916200352a911a9187620031ae565b53016200344656fe60406080815234620003e557620010ed803803806200001e81620003e9565b9283398101606082820312620003e55781516001600160401b039290838111620003e55782620000509183016200040f565b60209283830151858111620003e55786916200006e9185016200040f565b920151938151818111620002f0576003908154906001948583811c93168015620003da575b88841014620003c6578190601f9384811162000373575b50889084831160011462000310575f9262000304575b50505f1982851b1c191690851b1782555b8451928311620002f05760049485548581811c91168015620002e5575b88821014620002d2578281116200028a575b508691841160011462000223579383949184925f9562000217575b50501b925f19911b1c19161781555b3315620002015760058054336001600160a01b0319821681179092556001600160a01b03167f8be0079c531659141344cd1fd0a4f28419497f9722a3daafe3b4186f6b6457e05f80a3670de0b6b3a764000092838102938185041490151715620001ee578260065560025490838201809211620001ee57505f917fddf252ad1be2c89b69c2b068fc378daa952ba7f163c4a11628f55a4df523b3ef9160025533835282815284832084815401905584519384523393a351610c6d9081620004808239f35b601190634e487b7160e01b5f525260245ffd5b6024905f855191631e4fbdf760e01b8352820152fd5b015193505f806200011b565b9190601f19841692865f5284885f20945f5b8a8983831062000272575050501062000258575b50505050811b0181556200012a565b01519060f8845f19921b161c191690555f80808062000249565b86860151895590970196948501948893500162000235565b865f52875f208380870160051c8201928a8810620002c8575b0160051c019086905b828110620002bc57505062000100565b5f8155018690620002ac565b92508192620002a3565b602287634e487b7160e01b5f525260245ffd5b90607f1690620000ee565b634e487b7160e01b5f52604160045260245ffd5b015190505f80620000c0565b90879350601f19831691865f528a5f20925f5b8c8282106200035c575050841162000344575b505050811b018255620000d1565b01515f1983871b60f8161c191690555f808062000336565b8385015186558b9790950194938401930162000323565b909150845f52885f208480850160051c8201928b8610620003bc575b918991869594930160051c01915b828110620003ad575050620000aa565b5f81558594508991016200039d565b925081926200038f565b634e487b7160e01b5f52602260045260245ffd5b92607f169262000093565b5f80fd5b6040519190601f01601f191682016001600160401b03811183821017620002f057604052565b919080601f84011215620003e55782516001600160401b038111620002f05760209062000445601f8201601f19168301620003e9565b92818452828287010111620003e5575f5b8181106200046b5750825f9394955001015290565b85810183015184820184015282016200045656fe608060409080825260049081361015610016575f80fd5b5f3560e01c90816306fdde03146108bf57508063095ea7b31461081657806315f570dc1461068a57806318160ddd1461066c57806323b872dd1461057b578063313ce56714610560578063378dc3dc14610542578063669dafe8146104f657806370a08231146104c0578063715018a6146104655780638da5cb5b1461043d57806395d89b4114610323578063a9059cbb146102f3578063d3fc9864146101db578063dd62ed3e14610192578063e65d15221461016c5763f2fde38b146100db575f80fd5b34610168576020366003190112610168576100f46109fb565b906100fd610b31565b6001600160a01b03918216928315610152575050600554826bffffffffffffffffffffffff60a01b821617600555167f8be0079c531659141344cd1fd0a4f28419497f9722a3daafe3b4186f6b6457e05f80a3005b905f6024925191631e4fbdf760e01b8352820152fd5b5f80fd5b503461016857602036600319011261016857670de0b6b3a7640000602092519135048152f35b82346101685780600319360112610168576020906101ae6109fb565b6101b6610a11565b9060018060a01b038091165f5260018452825f2091165f528252805f20549051908152f35b5034610168576101ea36610a5d565b93916101f4610b31565b6001600160a01b03169283156102b05761020f821515610ae5565b6002549082820180921161029d57507f9d89e36eadf856db0ad9ffb5a569e07f95634dddd9501141ecf04820484ad0dc939461029891600255855f525f602052835f20838154019055855f7fddf252ad1be2c89b69c2b068fc378daa952ba7f163c4a11628f55a4df523b3ef60208751878152a3835193849384528060208501528301906109bd565b0390a2005b601190634e487b7160e01b5f525260245ffd5b606490602084519162461bcd60e51b8352820152601b60248201527f43616e6e6f74206d696e7420746f207a65726f206164647265737300000000006044820152fd5b823461016857806003193601126101685760209061031c6103126109fb565b6024359033610b5d565b5160018152f35b509034610168575f366003190112610168578051905f9083549160018360011c9060018516968715610433575b602095868410891461042057868899858a98999a5291825f146103f957505060011461039d575b505050610399929161038a910385610a27565b519282849384528301906109bd565b0390f35b5f90815286935091907f8a35acfbc15ff81a39ae7d344fd709f28e8600b4aa8c65c6b64bfe7fe36bd19b5b8284106103e1575050508201018161038a610399610377565b8054848a0186015288955087949093019281016103c8565b60ff19168782015293151560051b8601909301935084925061038a91506103999050610377565b602282634e487b7160e01b5f525260245ffd5b91607f1691610350565b8234610168575f3660031901126101685760055490516001600160a01b039091168152602090f35b34610168575f3660031901126101685761047d610b31565b600580546001600160a01b031981169091555f906001600160a01b03167f8be0079c531659141344cd1fd0a4f28419497f9722a3daafe3b4186f6b6457e08280a3005b8234610168576020366003190112610168576020906001600160a01b036104e56109fb565b165f525f8252805f20549051908152f35b50903461016857602036600319011261016857670de0b6b3a764000082358181029291811591840414171561052f576020925051908152f35b601183634e487b7160e01b5f525260245ffd5b8234610168575f366003190112610168576020906006549051908152f35b8234610168575f366003190112610168576020905160128152f35b5034610168576060366003190112610168576105956109fb565b61059d610a11565b906044359260018060a01b038216805f526001602052855f20335f52602052855f2054915f1983106105d8575b60208761031c888888610b5d565b85831061064057811561062a57331561061457505f9081526001602090815286822033835281529086902091859003909155829061031c6105ca565b6024905f885191634a1406b160e11b8352820152fd5b6024905f88519163e602df0560e01b8352820152fd5b8651637dc7a0d960e11b8152339181019182526020820193909352604081018690528291506060010390fd5b8234610168575f366003190112610168576020906002549051908152f35b50346101685761069936610a5d565b936106a2610b31565b6001600160a01b0383169384156107d4576106be831515610ae5565b845f526020935f855283835f20541061079257855f525f8552825f20549184831061075e57505094610298918386977ffad31924d655455395c87544c8aa1ffdb5a7505a22a3c2e03f28003b6556a75f975f525f875203815f205583600254036002555f877fddf252ad1be2c89b69c2b068fc378daa952ba7f163c4a11628f55a4df523b3ef878451888152a380805195869586528501528301906109bd565b835163391434e360e21b81526001600160a01b03909216908201908152602081018390526040810185905281906060010390fd5b5083606492519162461bcd60e51b8352820152601c60248201527f496e73756666696369656e742062616c616e636520746f206275726e000000006044820152fd5b6020606492519162461bcd60e51b8352820152601d60248201527f43616e6e6f74206275726e2066726f6d207a65726f20616464726573730000006044820152fd5b5090346101685780600319360112610168576108306109fb565b6024359033156108a9576001600160a01b03169081156108935760209350335f5260018452825f20825f52845280835f205582519081527f8c5be1e5ebec7d5bd14f71427d1e84f3dd0314c0f7b2291e5b200ac8c7c3b925843392a35160018152f35b8251634a1406b160e11b81525f81860152602490fd5b825163e602df0560e01b81525f81860152602490fd5b90508234610168575f366003190112610168575f906003549160018360011c90600185169485156109b3575b60209586841081146109a05783885287949392918790821561097e575050600114610923575b5050610399929161038a910385610a27565b9085925060035f527fc2575a0e9e593c00f959f8c92f12db2869c3395a3b0502d05e2516446f71f85b915f925b828410610966575050508201018161038a610911565b8054848a018601528895508794909301928101610950565b60ff19168682015292151560051b8501909201925083915061038a9050610911565b602289634e487b7160e01b5f525260245ffd5b91607f16916108eb565b91908251928382525f5b8481106109e7575050825f602080949584010152601f8019910116010190565b6020818301810151848301820152016109c7565b600435906001600160a01b038216820361016857565b602435906001600160a01b038216820361016857565b90601f8019910116810190811067ffffffffffffffff821117610a4957604052565b634e487b7160e01b5f52604160045260245ffd5b6060600319820112610168576004356001600160a01b038116810361016857916024359167ffffffffffffffff6044358181116101685782602382011215610168578060040135918211610a495760405192610ac3601f8401601f191660200185610a27565b8284526024838301011161016857815f92602460209301838601378301015290565b15610aec57565b60405162461bcd60e51b815260206004820152601d60248201527f416d6f756e74206d7573742062652067726561746572207468616e20300000006044820152606490fd5b6005546001600160a01b03163303610b4557565b60405163118cdaa760e01b8152336004820152602490fd5b916001600160a01b03808416928315610c1f5716928315610c0757825f525f60205260405f205490828210610bd55750817fddf252ad1be2c89b69c2b068fc378daa952ba7f163c4a11628f55a4df523b3ef92602092855f525f84520360405f2055845f5260405f20818154019055604051908152a3565b60405163391434e360e21b81526001600160a01b03919091166004820152602481019190915260448101829052606490fd5b60405163ec442f0560e01b81525f6004820152602490fd5b604051634b637e8f60e11b81525f6004820152602490fdfea264697066735822122044331042eba9aeacf012920601a85181d7d19980b04811393b499030531fee4c64736f6c63430008180033a26469706673582212207a717c132fadfcc6437460dad768a10e63e221a73af65d956b12d39a51030c9864736f6c63430008180033","linkReferences":{}},"methodIdentifiers":{"accountImplementation()":"11464fbe","addAuthorizedMinter(address)":"5f710f5c","approve(address,uint256)":"095ea7b3","authorizedMinters(address)":"aa2fe91b","balanceOf(address)":"70a08231","burnTokensFromNode(bytes32,uint256,string)":"8d06fa6a","computeTokenBoundAccount(uint256)":"96f51a64","getApproved(uint256)":"081812fc","getNodeContent(bytes32)":"01814670","getNodeIdFromTokenId(uint256)":"92a22413","getNodeTokenBalance(bytes32)":"3dc597f4","getNodeTokenContract(uint256)":"5d3dd4e9","getNodeTokenContractByNodeId(bytes32)":"b4f77109","getNodeTokenInfo(uint256)":"cc4a5aec","getTextContent(bytes32)":"33234630","getTokenBoundAccount(uint256)":"abb23f5b","getTokenBoundAccountByNodeId(bytes32)":"ec710ca6","getTokenIdFromNodeId(bytes32)":"ed9494c1","isApprovedForAll(address,address)":"e985e9c5","mintNodeNFT(address,bytes32,string,string,string,uint256)":"e404af92","mintTokensToNode(bytes32,uint256,string)":"5c534a85","name()":"06fdde03","nodeIdToTokenId(bytes32)":"d6b47acd","nodeTokenContracts(uint256)":"28a18508","nodeTokenNames(uint256)":"ce8884eb","nodeTokenSupplies(uint256)":"cefd4397","nodeTokenSymbols(uint256)":"e0cbc7a8","owner()":"8da5cb5b","ownerOf(uint256)":"6352211e","registry()":"7b103999","removeAuthorizedMinter(address)":"475ae039","renounceOwnership()":"715018a6","safeTransferFrom(address,address,uint256)":"42842e0e","safeTransferFrom(address,address,uint256,bytes)":"b88d4fde","salt()":"bfa0b133","setApprovalForAll(address,bool)":"a22cb465","supportsInterface(bytes4)":"01ffc9a7","symbol()":"95d89b41","textContent(uint256)":"d0e1055d","tokenBoundAccounts(uint256)":"c6a8212f","tokenIdToNodeId(uint256)":"6bdf3486","tokenURI(uint256)":"c87b56dd","tokenURIs(uint256)":"6c8b703f","totalSupply()":"18160ddd","transferFrom(address,address,uint256)":"23b872dd","transferOwnership(address)":"f2fde38b","updateTokenContent(bytes32,string)":"a3fb540c"},"id":3}