{"abi":[{"type":"constructor","inputs":[{"name":"","type":"string","internalType":"string"},{"name":"owner","type":"address","internalType":"address"},{"name":"nftContractAddress","type":"address","internalType":"address"}],"stateMutability":"nonpayable"},{"type":"function","name":"addNode","inputs":[{"name":"parentId","type":"bytes32","internalType":"bytes32"},{"name":"content","type":"string","internalType":"string"},{"name":"createNFT","type":"bool","internalType":"bool"},{"name":"modelId","type":"string","internalType":"string"},{"name":"author","type":"address","internalType":"address"}],"outputs":[{"name":"","type":"bytes32","internalType":"bytes32"}],"stateMutability":"nonpayable"},{"type":"function","name":"addNodeWithToken","inputs":[{"name":"parentId","type":"bytes32","internalType":"bytes32"},{"name":"content","type":"string","internalType":"string"},{"name":"tokenName","type":"string","internalType":"string"},{"name":"tokenSymbol","type":"string","internalType":"string"},{"name":"modelId","type":"string","internalType":"string"},{"name":"author","type":"address","internalType":"address"}],"outputs":[{"name":"","type":"bytes32","internalType":"bytes32"}],"stateMutability":"nonpayable"},{"type":"function","name":"allNodes","inputs":[{"name":"","type":"uint256","internalType":"uint256"}],"outputs":[{"name":"","type":"bytes32","internalType":"bytes32"}],"stateMutability":"view"},{"type":"function","name":"factory","inputs":[],"outputs":[{"name":"","type":"address","internalType":"address"}],"stateMutability":"view"},{"type":"function","name":"getAllNodes","inputs":[],"outputs":[{"name":"","type":"bytes32[]","internalType":"bytes32[]"}],"stateMutability":"view"},{"type":"function","name":"getChildren","inputs":[{"name":"nodeId","type":"bytes32","internalType":"bytes32"}],"outputs":[{"name":"","type":"bytes32[]","internalType":"bytes32[]"}],"stateMutability":"view"},{"type":"function","name":"getNFTContract","inputs":[],"outputs":[{"name":"","type":"address","internalType":"address"}],"stateMutability":"view"},{"type":"function","name":"getNode","inputs":[{"name":"nodeId","type":"bytes32","internalType":"bytes32"}],"outputs":[{"name":"id","type":"bytes32","internalType":"bytes32"},{"name":"parentId","type":"bytes32","internalType":"bytes32"},{"name":"children","type":"bytes32[]","internalType":"bytes32[]"},{"name":"author","type":"address","internalType":"address"},{"name":"timestamp","type":"uint256","internalType":"uint256"},{"name":"isRoot","type":"bool","internalType":"bool"},{"name":"modelId","type":"string","internalType":"string"}],"stateMutability":"view"},{"type":"function","name":"getNodeContent","inputs":[{"name":"nodeId","type":"bytes32","internalType":"bytes32"}],"outputs":[{"name":"","type":"string","internalType":"string"}],"stateMutability":"view"},{"type":"function","name":"getNodeCount","inputs":[],"outputs":[{"name":"","type":"uint256","internalType":"uint256"}],"stateMutability":"view"},{"type":"function","name":"getNodeMetadata","inputs":[{"name":"nodeId","type":"bytes32","internalType":"bytes32"},{"name":"key","type":"string","internalType":"string"}],"outputs":[{"name":"","type":"string","internalType":"string"}],"stateMutability":"view"},{"type":"function","name":"getNodeMetadataKeys","inputs":[{"name":"nodeId","type":"bytes32","internalType":"bytes32"}],"outputs":[{"name":"","type":"string[]","internalType":"string[]"}],"stateMutability":"view"},{"type":"function","name":"getNodeModelId","inputs":[{"name":"nodeId","type":"bytes32","internalType":"bytes32"}],"outputs":[{"name":"","type":"string","internalType":"string"}],"stateMutability":"view"},{"type":"function","name":"getRootId","inputs":[],"outputs":[{"name":"","type":"bytes32","internalType":"bytes32"}],"stateMutability":"view"},{"type":"function","name":"initializeRootNodeWithToken","inputs":[{"name":"rootContent","type":"string","internalType":"string"},{"name":"tokenSupply","type":"uint256","internalType":"uint256"},{"name":"modelId","type":"string","internalType":"string"}],"outputs":[],"stateMutability":"nonpayable"},{"type":"function","name":"nftContract","inputs":[],"outputs":[{"name":"","type":"address","internalType":"contract LoomNodeNFT"}],"stateMutability":"view"},{"type":"function","name":"nodeHasNFT","inputs":[{"name":"nodeId","type":"bytes32","internalType":"bytes32"}],"outputs":[{"name":"","type":"bool","internalType":"bool"}],"stateMutability":"view"},{"type":"function","name":"nodes","inputs":[{"name":"","type":"bytes32","internalType":"bytes32"}],"outputs":[{"name":"id","type":"bytes32","internalType":"bytes32"},{"name":"parentId","type":"bytes32","internalType":"bytes32"},{"name":"author","type":"address","internalType":"address"},{"name":"timestamp","type":"uint256","internalType":"uint256"},{"name":"isRoot","type":"bool","internalType":"bool"},{"name":"content","type":"string","internalType":"string"},{"name":"hasNFT","type":"bool","internalType":"bool"},{"name":"modelId","type":"string","internalType":"string"}],"stateMutability":"view"},{"type":"function","name":"rootId","inputs":[],"outputs":[{"name":"","type":"bytes32","internalType":"bytes32"}],"stateMutability":"view"},{"type":"function","name":"setNodeMetadata","inputs":[{"name":"nodeId","type":"bytes32","internalType":"bytes32"},{"name":"key","type":"string","internalType":"string"},{"name":"value","type":"string","internalType":"string"}],"outputs":[],"stateMutability":"nonpayable"},{"type":"function","name":"treeOwner","inputs":[],"outputs":[{"name":"","type":"address","internalType":"address"}],"stateMutability":"view"},{"type":"function","name":"updateNodeContent","inputs":[{"name":"nodeId","type":"bytes32","internalType":"bytes32"},{"name":"newContent","type":"string","internalType":"string"}],"outputs":[],"stateMutability":"nonpayable"},{"type":"event","name":"MetadataSet","inputs":[{"name":"nodeId","type":"bytes32","indexed":true,"internalType":"bytes32"},{"name":"key","type":"string","indexed":false,"internalType":"string"},{"name":"value","type":"string","indexed":false,"internalType":"string"}],"anonymous":false},{"type":"event","name":"NodeCreated","inputs":[{"name":"nodeId","type":"bytes32","indexed":true,"internalType":"bytes32"},{"name":"parentId","type":"bytes32","indexed":true,"internalType":"bytes32"},{"name":"author","type":"address","indexed":true,"internalType":"address"},{"name":"timestamp","type":"uint256","indexed":false,"internalType":"uint256"},{"name":"hasNFT","type":"bool","indexed":false,"internalType":"bool"},{"name":"modelId","type":"string","indexed":false,"internalType":"string"},{"name":"tokenId","type":"uint256","indexed":false,"internalType":"uint256"},{"name":"tokenBoundAccount","type":"address","indexed":false,"internalType":"address"},{"name":"nodeTokenContract","type":"address","indexed":false,"internalType":"address"}],"anonymous":false},{"type":"event","name":"NodeUpdated","inputs":[{"name":"nodeId","type":"bytes32","indexed":true,"internalType":"bytes32"},{"name":"author","type":"address","indexed":true,"internalType":"address"},{"name":"modelId","type":"string","indexed":false,"internalType":"string"}],"anonymous":false}],"bytecode":{"object":"0x608060405234620001075762001bdc803803806200001d816200011f565b9283398101606082820312620001075781516001600160401b0390818111620001075783019180601f84011215620001075782519182116200010b5760209262000070601f8401601f191685016200011f565b9183835284848301011162000107575f5b838110620000f35785620000ac6040620000a4885f818a8a010152840162000145565b920162000145565b600380546001600160a01b03199081166001600160a01b0394851617909155600480548216331790556005805490911691909216179055604051611a8190816200015b8239f35b818101850151838201860152840162000081565b5f80fd5b634e487b7160e01b5f52604160045260245ffd5b6040519190601f01601f191682016001600160401b038111838210176200010b57604052565b51906001600160a01b0382168203620001075756fe60406080815260049081361015610014575f80fd5b5f9160e05f35811c9081630181467014610e2557816306d48e6714610df257816307dde77714610d795781630b333cbe14610d515781632947ef38146107035781632b1f4ad61461069c57816339bf397e14610d3357816350c946fe14610c905781635ef268d114610c2757816363d0e0e414610bff5781636773234714610afe5781637a5f4f36146108d1578163a1174e7d14610846578163aa0980c914610749578163c45a015514610721578163cc7bed3f14610703578163d37684ff146106c4578163d56d229d1461069c578163d86e697d146105d1578163e5c222b01461048c57508063f8a45447146101655763fe72ae1314610113575f80fd5b346101615760203660031901126101615735600154811015610161576020925060015f527fb10e2d527612073b26eecdfd717e6a320cf44b4afac2b0732d9fcbe2b7fa0cf601549051908152f35b8280fd5b5090346104145761017536610f9e565b815f939293526020935f855261018f835f205415156114a7565b5f848152808652839020600301546001600160a01b039081163314801561047f575b6101ba906114e9565b845f525f8652835f2060ff6007820154165f14610444575080600554168451630332346360e41b815286848201525f81602481855afa90811561043a5789959493929161020e915f91610418575b50611723565b61021785611723565b8181111561036b576102299250611647565b816005541690813b1561036757859160a4839289519485938492635c534a8560e01b84528d8a850152602484015260606044840152601160648401527021b7b73a32b73a1032bc3830b739b4b7b760791b60848401525af1801561035d57908591610349575b50505b6005541691823b1561033b576102cc92868580948851968795869485936328fed50360e21b85528401528a60248401526044830190610e66565b03925af1801561033f57610327575b50506103217faff940cfa0fa5ad5a3bc6eee72da83064accfb42081dc9a0e11c7bfedddf5131915b83865285855260088187200190519182918683523396830190611008565b0390a380f35b61033090610ebb565b61033b57835f6102db565b8380fd5b83513d84823e3d90fd5b61035290610ebb565b61033b57835f61028f565b86513d87823e3d90fd5b8580fd5b9080821061037c575b505050610292565b61038a929394959650611647565b813b15610414575f9160a48392885194859384926346837d3560e11b84528c8a850152602484015260606044840152601160648401527021b7b73a32b73a103932b23ab1ba34b7b760791b60848401525af1801561040a576103f3575b90818089959493610374565b6104009193929750610ebb565b5f9590915f6103e7565b85513d5f823e3d90fd5b5f80fd5b61043491503d805f833e61042c8183610ee9565b8101906110c2565b5f610208565b86513d5f823e3d90fd5b7faff940cfa0fa5ad5a3bc6eee72da83064accfb42081dc9a0e11c7bfedddf513194925061047a91509260066103219401611540565b610303565b50600354811633146101b1565b91905034610414576060366003190112610414576001600160401b03918135838111610414576104bf9036908401610f25565b92604435908111610414576104d79036908401610f25565b9160025461058e5780546001600160a01b0391908216330361054b575093600161054695600354169180519561050c87610e8b565b5f875260208701528501526060840152610524611256565b6080840152610531611256565b60a084015260243560c084015282015261175b565b600255005b606490602087519162461bcd60e51b8352820152601b60248201527f4f6e6c7920666163746f72792063616e20696e697469616c697a6500000000006044820152fd5b606490602086519162461bcd60e51b8352820152601d60248201527f526f6f74206e6f646520616c726561647920696e697469616c697a65640000006044820152fd5b905034610414576020366003190112610414578260086106989284355f525f602052610684835f20805460018201549760018060a01b036003840154169083015460ff60058501541691610657895195610639876106328160068501611008565b0388610ee9565b61065060ff6007830154169b51809b819301611008565b0389610ee9565b8b519b8c9b610100958d5260208d01528b015260608a0152151560808901528060a0890152870190610e66565b92151560c086015284830390850152610e66565b0390f35b8334610414575f3660031901126104145760055490516001600160a01b039091168152602090f35b8284346104145760203660031901126104145761069891355f525f6020526106f06002825f2001611437565b9051918291602083526020830190610f6b565b8334610414575f366003190112610414576020906002549051908152f35b828434610414575f36600319011261041457905490516001600160a01b039091168152602090f35b50503461041457602090816003193601126104145780355f525f8252600a835f2001908154906001600160401b038211610833575091835192610791828260051b0185610ee9565b80845281840180935f52825f205f915b83831061080357505050508351928184019082855251809152848401948160051b85010192915f955b8287106107d75785850386f35b9091929382806107f3600193603f198a82030186528851610e66565b96019201960195929190926107ca565b60018581928a999799516108228161081b8189611008565b0382610ee9565b8152019201920191909593956107a1565b604190634e487b7160e01b5f525260245ffd5b8334610414575f366003190112610414578051600180548083525f828152602080850195937fb10e2d527612073b26eecdfd717e6a320cf44b4afac2b0732d9fcbe2b7fa0cf693909290915b8282106108bc5761069887876108aa828c0383610ee9565b51918291602083526020830190610f6b565b84548852968701969383019390830190610892565b5050346104145760603660031901126104145780356001600160401b03602435818111610414576109059036908501610f25565b906044359081116104145761091d9036908501610f25565b93825f526020945f8652610935825f205415156114a7565b5f8481528087528290206003015461096290336001600160a01b0391821614908115610af0575b506114e9565b5f9483870190865b865f525f8952600a855f20018054821015610ae35761099b61098f8361081b93611099565b50875192838092611008565b89815191012086518420146109b25760010161096a565b509091929394955060015b15610a43575b509481610a1e610a3e93610a1084899a7f357e5cb1694f912c3cfad0ec2ce0efd019b52b7b8f94154f0ca7a607a2337e349a5f525f82526009895f20018951809481938d51928391610e45565b820190815203019020611540565b610a318451958587968752860190610e66565b9184830390850152610e66565b0390a2005b855f525f8752600a845f2001805490600160401b821015610ad05790610a6e91600182018155611099565b919091610abe575091610a1e81610a10897f357e5cb1694f912c3cfad0ec2ce0efd019b52b7b8f94154f0ca7a607a2337e34999a95610ab08a610a3e99611540565b9550999850509350506109c3565b5f90634e487b7160e01b82525260245ffd5b604183634e487b7160e01b5f525260245ffd5b50509091929394956109bd565b90506003541633148861095c565b8383346104145760c0366003190112610414578035602435936001600160401b039485811161041457610b349036908501610f25565b9060443586811161041457610b4c9036908601610f25565b9560643581811161041457610b649036908701610f25565b9460843591821161041457610b7b91369101610f25565b9160a4359460018060a01b03861680960361041457602097610bf096865f525f8a52885f205415801590610bf7575b610bb39061120a565b610bbc84611723565b93895197610bc989610e8b565b88528a8801525f898801526060870152608086015260a085015260c084015282015261175b565b9051908152f35b508615610baa565b82843461041457602036600319011261041457610c1e60209235611487565b90519015158152f35b833461041457610c7761069891610c7e610c636020610c4536610f9e565b905f525f82526009855f200182865194838680955193849201610e45565b820190815203019020825193848092611008565b0383610ee9565b51918291602083526020830190610e66565b91905034610414576020366003190112610414578061069891355f525f6020526008845f2094855494610d1460018801549760018060a01b0360038201541695810154928060ff60058401541695610cfd610ced60028601611437565b946106508351809b819301611008565b80519b8c9b8c5260208c01528a0152880190610f6b565b9360608701526080860152151560a085015283820360c0850152610e66565b8334610414575f366003190112610414576020906001549051908152f35b8334610414575f3660031901126104145760035490516001600160a01b039091168152602090f35b8284346104145760a0366003190112610414576001600160401b039160243583811161041457610dac9036908301610f25565b926044359081151582036104145760643590811161041457610dd19036908401610f25565b608435916001600160a01b038316830361041457602095610bf09435611286565b82843461041457602036600319011261041457610e1261069892356111cd565b9051918291602083526020830190610e66565b82843461041457602036600319011261041457610e126106989235611120565b5f5b838110610e565750505f910152565b8181015183820152602001610e47565b90602091610e7f81518092818552858086019101610e45565b601f01601f1916010190565b61010081019081106001600160401b03821117610ea757604052565b634e487b7160e01b5f52604160045260245ffd5b6001600160401b038111610ea757604052565b602081019081106001600160401b03821117610ea757604052565b90601f801991011681019081106001600160401b03821117610ea757604052565b6001600160401b038111610ea757601f01601f191660200190565b81601f8201121561041457803590610f3c82610f0a565b92610f4a6040519485610ee9565b8284526020838301011161041457815f926020809301838601378301015290565b9081518082526020808093019301915f5b828110610f8a575050505090565b835185529381019392810192600101610f7c565b9060406003198301126104145760043591602435906001600160401b03821161041457610fcd91600401610f25565b90565b90600182811c92168015610ffe575b6020831014610fea57565b634e487b7160e01b5f52602260045260245ffd5b91607f1691610fdf565b80545f939261101682610fd0565b918282526020936001916001811690815f1461107a575060011461103c575b5050505050565b90939495505f92919252835f2092845f945b83861061106657505050500101905f80808080611035565b80548587018301529401938590820161104e565b60ff19168685015250505090151560051b010191505f80808080611035565b80548210156110ae575f5260205f2001905f90565b634e487b7160e01b5f52603260045260245ffd5b602081830312610414578051906001600160401b038211610414570181601f820112156104145780516110f481610f0a565b926111026040519485610ee9565b8184526020828401011161041457610fcd9160208085019101610e45565b805f525f602052604090815f2054156111bc57805f525f602052815f2060ff6007820154165f146111a657506005548251630332346360e41b815260048101929092525f90829060249082906001600160a01b03165afa91821561119d57505f91611189575090565b610fcd91503d805f833e61042c8183610ee9565b513d5f823e3d90fd5b610fcd915061081b600693518094819301611008565b50516111c781610ece565b5f815290565b805f525f60205260405f2054156111fd575f525f60205261081b610fcd600860405f200160405192838092611008565b506040516111c781610ece565b1561121157565b60405162461bcd60e51b815260206004820152601a60248201527f506172656e74206e6f646520646f6573206e6f742065786973740000000000006044820152606490fd5b60405190604082018281106001600160401b03821117610ea75760405260048252634e4f444560e01b6020830152565b929193835f526020915f8352604095865f20541580159061142f575b6112ab9061120a565b1561130b57610fcd95816112bf5f93611723565b948251976112cc89610e8b565b88528701528501526001600160a01b031660608401526112ea611256565b60808401526112f7611256565b60a084015260c083015260e082015261175b565b915f906113fd8560c0896113d68a99887f263caaab456acf4cc2344c2de129b8f7303103355f0e198a120bdd6983cb59a0999c61136760089f6113598e91519384928d840196429088611668565b03601f198101835282610ee9565b519020808952888852838920818155600181018d90556003810180546001600160a01b0319166001600160a01b03909f169e8f17905542600482015560058101805460ff19908116909155919e8f9c9092906113c69060068401611540565b6007820190815416905501611540565b6113df886116a8565b88611415575b805195869542875286015284015260c0830190610e66565b5f60608301525f60808301525f60a08301520390a490565b88865285855261142a886002838920016116ef565b6113e5565b5085156112a2565b90604051918281549182825260209260208301915f5260205f20935f905b82821061146d5750505061146b92500383610ee9565b565b855484526001958601958895509381019390910190611455565b5f525f60205260405f208054156114a2576007015460ff1690565b505f90565b156114ae57565b60405162461bcd60e51b8152602060048201526013602482015272139bd91948191bd95cc81b9bdd08195e1a5cdd606a1b6044820152606490fd5b156114f057565b60405162461bcd60e51b815260206004820152602260248201527f4e6f7420617574686f72697a656420746f207570646174652074686973206e6f604482015261646560f01b6064820152608490fd5b91909182516001600160401b038111610ea75761155d8254610fd0565b601f8111611602575b50602080601f83116001146115a15750819293945f92611596575b50508160011b915f199060031b1c1916179055565b015190505f80611581565b90601f19831695845f5260205f20925f905b8882106115ea575050836001959697106115d2575b505050811b019055565b01515f1960f88460031b161c191690555f80806115c8565b806001859682949686015181550195019301906115b3565b825f5260205f20601f830160051c8101916020841061163d575b601f0160051c01905b8181106116325750611566565b5f8155600101611625565b909150819061161c565b9190820391821161165457565b634e487b7160e01b5f52601160045260245ffd5b909160549493926bffffffffffffffffffffffff199060601b168252601482015261169d825180936020603485019101610e45565b019060348201520190565b600154600160401b811015610ea75760018101806001558110156110ae5760015f527fb10e2d527612073b26eecdfd717e6a320cf44b4afac2b0732d9fcbe2b7fa0cf60155565b8054600160401b811015610ea75761170c91600182018155611099565b819291549060031b91821b915f19901b1916179055565b5180156117365760021c80156117365790565b50600190565b9081602091031261041457516001600160a01b03811681036104145790565b6118066060820160018060a01b0392611878848351169460209283810196848851918351611799604094611359865193849287840196429088611668565b51902098895f525f8252825f208a8155845160018201558589511660038201906bffffffffffffffffffffffff60a01b82541617905542600482015560016007858701928d84511515946005830160ff199660ff88835416911617905560e08a019e8f5160088501611540565b61180f826116a8565b511580611a41575b611a25575b50019182541617905584600554168a5f878b5116935193608088015161189a60a08a01519160c08b01519261188b8b519e8f9a8b998a9863720257c960e11b8a5260048a0152602489015260c0604489015260c4880190610e66565b6003199384888303016064890152610e66565b91858303016084860152610e66565b9060a483015203925af1938415611a1b575f946119ec575b50600554815163abb23f5b60e01b815260048101869052929084168684602481845afa9384156119e25760249493929188915f956119c3575b50835195868092635d3dd4e960e01b82528a60048301525afa9384156119b957947f263caaab456acf4cc2344c2de129b8f7303103355f0e198a120bdd6983cb59a0969381938c9996936001985f9561197f575b509060c08461196793519d51169d519180519a8b9a428c528b015289015260c0880190610e66565b9460608701521660808501521660a08301520390a490565b61196792919550846119a860c0928b3d8d116119b2575b6119a08183610ee9565b81019061173c565b969293505061193f565b503d611996565b82513d5f823e3d90fd5b6119db919550823d84116119b2576119a08183610ee9565b935f6118eb565b83513d5f823e3d90fd5b9093508481813d8311611a14575b611a048183610ee9565b810103126104145751925f6118b2565b503d6119fa565b50513d5f823e3d90fd5b611a3b9089515f525f88526002895f20016116ef565b8d61181c565b508851151561181756fea2646970667358221220c112180793fd146238bb6ac9e6109b24368c06abb6d97c6b10f4b34add43d9b864736f6c63430008180033","linkReferences":{}},"methodIdentifiers":{"addNode(bytes32,string,bool,string,address)":"07dde777","addNodeWithToken(bytes32,string,string,string,string,address)":"67732347","allNodes(uint256)":"fe72ae13","factory()":"c45a0155","getAllNodes()":"a1174e7d","getChildren(bytes32)":"d37684ff","getNFTContract()":"2b1f4ad6","getNode(bytes32)":"50c946fe","getNodeContent(bytes32)":"01814670","getNodeCount()":"39bf397e","getNodeMetadata(bytes32,string)":"5ef268d1","getNodeMetadataKeys(bytes32)":"aa0980c9","getNodeModelId(bytes32)":"06d48e67","getRootId()":"2947ef38","initializeRootNodeWithToken(string,uint256,string)":"e5c222b0","nftContract()":"d56d229d","nodeHasNFT(bytes32)":"63d0e0e4","nodes(bytes32)":"d86e697d","rootId()":"cc7bed3f","setNodeMetadata(bytes32,string,string)":"7a5f4f36","treeOwner()":"0b333cbe","updateNodeContent(bytes32,string)":"f8a45447"},"id":4}