{"abi":[{"type":"constructor","inputs":[{"name":"","type":"string","internalType":"string"},{"name":"owner","type":"address","internalType":"address"},{"name":"nftContractAddress","type":"address","internalType":"address"}],"stateMutability":"nonpayable"},{"type":"function","name":"addNode","inputs":[{"name":"parentId","type":"bytes32","internalType":"bytes32"},{"name":"content","type":"string","internalType":"string"},{"name":"ipfsHash","type":"string","internalType":"string"},{"name":"createNFT","type":"bool","internalType":"bool"},{"name":"modelId","type":"string","internalType":"string"},{"name":"author","type":"address","internalType":"address"}],"outputs":[{"name":"","type":"bytes32","internalType":"bytes32"}],"stateMutability":"nonpayable"},{"type":"function","name":"addNodeWithToken","inputs":[{"name":"parentId","type":"bytes32","internalType":"bytes32"},{"name":"content","type":"string","internalType":"string"},{"name":"ipfsHash","type":"string","internalType":"string"},{"name":"tokenName","type":"string","internalType":"string"},{"name":"tokenSymbol","type":"string","internalType":"string"},{"name":"modelId","type":"string","internalType":"string"},{"name":"author","type":"address","internalType":"address"}],"outputs":[{"name":"","type":"bytes32","internalType":"bytes32"}],"stateMutability":"nonpayable"},{"type":"function","name":"allNodes","inputs":[{"name":"","type":"uint256","internalType":"uint256"}],"outputs":[{"name":"","type":"bytes32","internalType":"bytes32"}],"stateMutability":"view"},{"type":"function","name":"factory","inputs":[],"outputs":[{"name":"","type":"address","internalType":"address"}],"stateMutability":"view"},{"type":"function","name":"getAllNodes","inputs":[],"outputs":[{"name":"","type":"bytes32[]","internalType":"bytes32[]"}],"stateMutability":"view"},{"type":"function","name":"getChildren","inputs":[{"name":"nodeId","type":"bytes32","internalType":"bytes32"}],"outputs":[{"name":"","type":"bytes32[]","internalType":"bytes32[]"}],"stateMutability":"view"},{"type":"function","name":"getNFTContract","inputs":[],"outputs":[{"name":"","type":"address","internalType":"address"}],"stateMutability":"view"},{"type":"function","name":"getNode","inputs":[{"name":"nodeId","type":"bytes32","internalType":"bytes32"}],"outputs":[{"name":"id","type":"bytes32","internalType":"bytes32"},{"name":"parentId","type":"bytes32","internalType":"bytes32"},{"name":"children","type":"bytes32[]","internalType":"bytes32[]"},{"name":"author","type":"address","internalType":"address"},{"name":"timestamp","type":"uint256","internalType":"uint256"},{"name":"isRoot","type":"bool","internalType":"bool"},{"name":"modelId","type":"string","internalType":"string"}],"stateMutability":"view"},{"type":"function","name":"getNodeContent","inputs":[{"name":"nodeId","type":"bytes32","internalType":"bytes32"}],"outputs":[{"name":"","type":"string","internalType":"string"}],"stateMutability":"view"},{"type":"function","name":"getNodeCount","inputs":[],"outputs":[{"name":"","type":"uint256","internalType":"uint256"}],"stateMutability":"view"},{"type":"function","name":"getNodeMetadata","inputs":[{"name":"nodeId","type":"bytes32","internalType":"bytes32"},{"name":"key","type":"string","internalType":"string"}],"outputs":[{"name":"","type":"string","internalType":"string"}],"stateMutability":"view"},{"type":"function","name":"getNodeMetadataKeys","inputs":[{"name":"nodeId","type":"bytes32","internalType":"bytes32"}],"outputs":[{"name":"","type":"string[]","internalType":"string[]"}],"stateMutability":"view"},{"type":"function","name":"getNodeModelId","inputs":[{"name":"nodeId","type":"bytes32","internalType":"bytes32"}],"outputs":[{"name":"","type":"string","internalType":"string"}],"stateMutability":"view"},{"type":"function","name":"getRootId","inputs":[],"outputs":[{"name":"","type":"bytes32","internalType":"bytes32"}],"stateMutability":"view"},{"type":"function","name":"initializeRootNodeWithToken","inputs":[{"name":"rootContent","type":"string","internalType":"string"},{"name":"ipfsHash","type":"string","internalType":"string"},{"name":"tokenSupply","type":"uint256","internalType":"uint256"},{"name":"modelId","type":"string","internalType":"string"}],"outputs":[],"stateMutability":"nonpayable"},{"type":"function","name":"nftContract","inputs":[],"outputs":[{"name":"","type":"address","internalType":"contract LoomNodeNFT"}],"stateMutability":"view"},{"type":"function","name":"nodeHasNFT","inputs":[{"name":"nodeId","type":"bytes32","internalType":"bytes32"}],"outputs":[{"name":"","type":"bool","internalType":"bool"}],"stateMutability":"view"},{"type":"function","name":"nodes","inputs":[{"name":"","type":"bytes32","internalType":"bytes32"}],"outputs":[{"name":"id","type":"bytes32","internalType":"bytes32"},{"name":"parentId","type":"bytes32","internalType":"bytes32"},{"name":"author","type":"address","internalType":"address"},{"name":"timestamp","type":"uint256","internalType":"uint256"},{"name":"isRoot","type":"bool","internalType":"bool"},{"name":"content","type":"string","internalType":"string"},{"name":"ipfsHash","type":"string","internalType":"string"},{"name":"hasNFT","type":"bool","internalType":"bool"},{"name":"modelId","type":"string","internalType":"string"}],"stateMutability":"view"},{"type":"function","name":"rootId","inputs":[],"outputs":[{"name":"","type":"bytes32","internalType":"bytes32"}],"stateMutability":"view"},{"type":"function","name":"setNodeMetadata","inputs":[{"name":"nodeId","type":"bytes32","internalType":"bytes32"},{"name":"key","type":"string","internalType":"string"},{"name":"value","type":"string","internalType":"string"}],"outputs":[],"stateMutability":"nonpayable"},{"type":"function","name":"treeOwner","inputs":[],"outputs":[{"name":"","type":"address","internalType":"address"}],"stateMutability":"view"},{"type":"function","name":"updateNodeContent","inputs":[{"name":"nodeId","type":"bytes32","internalType":"bytes32"},{"name":"newContent","type":"string","internalType":"string"},{"name":"ipfsHash","type":"string","internalType":"string"}],"outputs":[],"stateMutability":"nonpayable"},{"type":"event","name":"MetadataSet","inputs":[{"name":"nodeId","type":"bytes32","indexed":true,"internalType":"bytes32"},{"name":"key","type":"string","indexed":false,"internalType":"string"},{"name":"value","type":"string","indexed":false,"internalType":"string"}],"anonymous":false},{"type":"event","name":"NodeCreated","inputs":[{"name":"nodeId","type":"bytes32","indexed":true,"internalType":"bytes32"},{"name":"parentId","type":"bytes32","indexed":true,"internalType":"bytes32"},{"name":"author","type":"address","indexed":true,"internalType":"address"},{"name":"timestamp","type":"uint256","indexed":false,"internalType":"uint256"},{"name":"hasNFT","type":"bool","indexed":false,"internalType":"bool"},{"name":"modelId","type":"string","indexed":false,"internalType":"string"},{"name":"content","type":"string","indexed":false,"internalType":"string"},{"name":"ipfsHash","type":"string","indexed":false,"internalType":"string"},{"name":"tokenId","type":"uint256","indexed":false,"internalType":"uint256"},{"name":"tokenBoundAccount","type":"address","indexed":false,"internalType":"address"},{"name":"nodeTokenContract","type":"address","indexed":false,"internalType":"address"}],"anonymous":false},{"type":"event","name":"NodeUpdated","inputs":[{"name":"nodeId","type":"bytes32","indexed":true,"internalType":"bytes32"},{"name":"author","type":"address","indexed":true,"internalType":"address"},{"name":"modelId","type":"string","indexed":false,"internalType":"string"},{"name":"content","type":"string","indexed":false,"internalType":"string"},{"name":"ipfsHash","type":"string","indexed":false,"internalType":"string"}],"anonymous":false}],"bytecode":{"object":"0x608060405234620001075762001def803803806200001d816200011f565b9283398101606082820312620001075781516001600160401b0390818111620001075783019180601f84011215620001075782519182116200010b5760209262000070601f8401601f191685016200011f565b9183835284848301011162000107575f5b838110620000f35785620000ac6040620000a4885f818a8a010152840162000145565b920162000145565b600380546001600160a01b03199081166001600160a01b0394851617909155600480548216331790556005805490911691909216179055604051611c9490816200015b8239f35b818101850151838201860152840162000081565b5f80fd5b634e487b7160e01b5f52604160045260245ffd5b6040519190601f01601f191682016001600160401b038111838210176200010b57604052565b51906001600160a01b0382168203620001075756fe60406080815260049081361015610014575f80fd5b5f9160e05f35811c9081630181467014610f4a57816306d48e6714610f175781630b333cbe14610eef5781632947ef38146106865781632b1f4ad614610ec7578163381064a114610db057816339bf397e14610d925781633d6b00ff14610cf757816350c946fe14610c4d5781635ef268d114610bc157816363d0e0e414610b995781637a5f4f36146109b9578163954ca52a14610854578163a1174e7d146107c9578163aa0980c9146106cc578163c45a0155146106a4578163cc7bed3f14610686578163d0335dd1146102d1578163d37684ff14610292578163d56d229d14610264578163d86e697d14610165575063fe72ae1314610113575f80fd5b346101615760203660031901126101615735600154811015610161576020925060015f527fb10e2d527612073b26eecdfd717e6a320cf44b4afac2b0732d9fcbe2b7fa0cf601549051908152f35b8280fd5b90508284346102615760203660031901126102615760096020936102488461025d9561023a958935815280895220948591825460018401549a60018060a01b036003860154169085015460ff600587015416918451946101d3866101cc8160068c01611144565b038761100e565b61020f60ff600883519a6101f58c6101ee8160078501611144565b038d61100e565b0154169c6102088351809e819301611144565b038c61100e565b80519e8f9e8f61012097815201528d015260608c0152151560808b01528060a08b0152890190610f8b565b9087820360c0890152610f8b565b92151590850152838203610100850152610f8b565b0390f35b80fd5b5050503461028e578160031936011261028e5760055490516001600160a01b039091168152602090f35b5080fd5b5050346101615760203660031901126101615760028261025d946102be933581528060205220016115e8565b9051918291602083526020830190611090565b5050346105ff576102e1366110c3565b93909192835f526020905f82526102fc835f20541515611658565b5f858152808352839020600301546001600160a01b039190821633148015610679575b6103289061169a565b8651156106725783516434b833399d60d91b848201526103666025828a51610356818d8a8686019101610f6a565b810103600581018452018261100e565b915b865f525f845261037d886007875f20016116f1565b865f525f8452845f2060ff6008820154165f1461062f575080600554168551630332346360e41b815288848201525f81602481855afa908115610625578b95949392916103d1915f91610603575b50611819565b6103da89611819565b81811115610557576103ec92506117f8565b816005541690813b1561052757859060a48b838b519586948593635c534a8560e01b85528a850152602484015260606044840152601160648401527021b7b73a32b73a1032bc3830b739b4b7b760791b60848401525af1801561054d57908591610539575b50505b6005541691823b156105355761048e92888580948951968795869485936328fed50360e21b85528401528b60248401526044830190610f8b565b03925af1801561052b5761050f575b5050916105096104ed926104fa7fdc0a1d972427c3825b553fd18d4b73f971928c6aab575e0d1184b63af61e2e10955b878a528981526009838b2001948351968796606088526060880190611144565b9186830390870152610f8b565b90838203908401523396610f8b565b0390a380f35b61051b90949294610fe0565b6105275791855f61049d565b8580fd5b84513d84823e3d90fd5b8380fd5b61054290610fe0565b61053557835f610451565b87513d87823e3d90fd5b90808210610568575b505050610454565b6105769293949596506117f8565b813b156105ff575f9060a48a838a5195869485936346837d3560e11b85528a850152602484015260606044840152601160648401527021b7b73a32b73a103932b23ab1ba34b7b760791b60848401525af180156105f5576105de575b9081808b959493610560565b6105eb9193929950610fe0565b5f9790915f6105d2565b86513d5f823e3d90fd5b5f80fd5b61061f91503d805f833e610617818361100e565b8101906111fe565b5f6103cb565b87513d5f823e3d90fd5b6104ed9592506104fa91509361066d6105099460067fdc0a1d972427c3825b553fd18d4b73f971928c6aab575e0d1184b63af61e2e109997016116f1565b6104cd565b8491610368565b506003548216331461031f565b83346105ff575f3660031901126105ff576020906002549051908152f35b8284346105ff575f3660031901126105ff57905490516001600160a01b039091168152602090f35b5050346105ff57602090816003193601126105ff5780355f525f8252600b835f2001908154906001600160401b0382116107b6575091835192610714828260051b018561100e565b80845281840180935f52825f205f915b83831061078657505050508351928184019082855251809152848401948160051b85010192915f955b82871061075a5785850386f35b909192938280610776600193603f198a82030186528851610f8b565b960192019601959291909261074d565b60018581928a999799516107a58161079e8189611144565b038261100e565b815201920192019190959395610724565b604190634e487b7160e01b5f525260245ffd5b83346105ff575f3660031901126105ff578051600180548083525f828152602080850195937fb10e2d527612073b26eecdfd717e6a320cf44b4afac2b0732d9fcbe2b7fa0cf693909290915b82821061083f5761025d878761082d828c038361100e565b51918291602083526020830190611090565b84548852968701969383019390830190610815565b919050346105ff5760803660031901126105ff576001600160401b039181358381116105ff57610887903690840161104a565b926024358181116105ff5761089f903690850161104a565b906064359081116105ff576108b7903690850161104a565b926002546109765780546001600160a01b0391908216330361093357509061092e959160035416918051956108eb87610fb0565b5f8752602087015285015260016060850152608084015261090a611392565b60a0840152610917611392565b60c084015260443590830152610100820152611908565b600255005b606490602088519162461bcd60e51b8352820152601b60248201527f4f6e6c7920666163746f72792063616e20696e697469616c697a6500000000006044820152fd5b606490602087519162461bcd60e51b8352820152601d60248201527f526f6f74206e6f646520616c726561647920696e697469616c697a65640000006044820152fd5b5050346105ff576109c9366110c3565b93825f526020945f86526109e1825f20541515611658565b5f84815280875282902060030154610a0e90336001600160a01b0391821614908115610b8b575b5061169a565b5f945f5b855f525f8852600b845f20018054821015610b7f57610a43610a378361079e936111d5565b50865192838092611144565b88815191012085518987012014610a5c57600101610a12565b5090919293945060015b15610aed575b508394610ae8917f357e5cb1694f912c3cfad0ec2ce0efd019b52b7b8f94154f0ca7a607a2337e34955f525f8252610ac881600a865f2001848751809282610aba8c84815193849201610f6a565b8201908152030190206116f1565b610adb8451958587968752860190610f8b565b9184830390850152610f8b565b0390a2005b845f525f8652600b835f2001805490600160401b821015610b6c5790610b18916001820181556111d5565b919091610b5a575094610ae891610b51857f357e5cb1694f912c3cfad0ec2ce0efd019b52b7b8f94154f0ca7a607a2337e3497986116f1565b91509493610a6c565b5f90634e487b7160e01b82525260245ffd5b604183634e487b7160e01b5f525260245ffd5b50509091929394610a66565b905060035416331488610a08565b8284346105ff5760203660031901126105ff57610bb860209235611638565b90519015158152f35b5050346105ff57816003193601126105ff57602435916001600160401b0383116105ff57610c3b610c206020610c3494610c0161025d973690830161104a565b90355f525f8252600a855f200182865194838680955193849201610f6a565b820190815203019020825193848092611144565b038361100e565b51918291602083526020830190610f8b565b919050346105ff5760203660031901126105ff578061025d91355f525f6020526009845f2094855494610cd860018801549760018060a01b0360038201541695810154928060ff60058401541695610cc1610caa600286016115e8565b94610cba8351809b819301611144565b038961100e565b80519b8c9b8c5260208c01528a0152880190611090565b9360608701526080860152151560a085015283820360c0850152610f8b565b8284346105ff5760c03660031901126105ff576001600160401b03916024358381116105ff57610d2a903690830161104a565b926044358181116105ff57610d42903690840161104a565b906064359081151582036105ff576084359081116105ff57610d67903690850161104a565b60a435929091906001600160a01b03841684036105ff57602096610d8b95356113c2565b9051908152f35b83346105ff575f3660031901126105ff576020906001549051908152f35b839150346105ff57806003193601126105ff578235602435936001600160401b03948581116105ff57610de6903690830161104a565b6044358681116105ff57610dfd903690840161104a565b936064358781116105ff57610e15903690850161104a565b966084358181116105ff57610e2d903690860161104a565b9360a4359182116105ff57610e449136910161104a565b9260c4359760018060a01b0389168099036105ff57602098610d8b97875f525f8b52895f205415801590610ebf575b610e7c90611346565b610e8586611819565b958a5198610e928a610fb0565b89528b890152898801525f6060880152608087015260a086015260c0850152830152610100820152611908565b508715610e73565b83346105ff575f3660031901126105ff5760055490516001600160a01b039091168152602090f35b83346105ff575f3660031901126105ff5760035490516001600160a01b039091168152602090f35b8284346105ff5760203660031901126105ff57610f3761025d9235611309565b9051918291602083526020830190610f8b565b8284346105ff5760203660031901126105ff57610f3761025d923561125c565b5f5b838110610f7b5750505f910152565b8181015183820152602001610f6c565b90602091610fa481518092818552858086019101610f6a565b601f01601f1916010190565b61012081019081106001600160401b03821117610fcc57604052565b634e487b7160e01b5f52604160045260245ffd5b6001600160401b038111610fcc57604052565b602081019081106001600160401b03821117610fcc57604052565b90601f801991011681019081106001600160401b03821117610fcc57604052565b6001600160401b038111610fcc57601f01601f191660200190565b81601f820112156105ff578035906110618261102f565b9261106f604051948561100e565b828452602083830101116105ff57815f926020809301838601378301015290565b9081518082526020808093019301915f5b8281106110af575050505090565b8351855293810193928101926001016110a1565b60606003198201126105ff57600435916001600160401b036024358181116105ff57836110f29160040161104a565b926044359182116105ff576111099160040161104a565b90565b90600182811c9216801561113a575b602083101461112657565b634e487b7160e01b5f52602260045260245ffd5b91607f169161111b565b80545f93926111528261110c565b918282526020936001916001811690815f146111b65750600114611178575b5050505050565b90939495505f92919252835f2092845f945b8386106111a257505050500101905f80808080611171565b80548587018301529401938590820161118a565b60ff19168685015250505090151560051b010191505f80808080611171565b80548210156111ea575f5260205f2001905f90565b634e487b7160e01b5f52603260045260245ffd5b6020818303126105ff578051906001600160401b0382116105ff570181601f820112156105ff5780516112308161102f565b9261123e604051948561100e565b818452602082840101116105ff576111099160208085019101610f6a565b805f525f602052604090815f2054156112f857805f525f602052815f2060ff6008820154165f146112e257506005548251630332346360e41b815260048101929092525f90829060249082906001600160a01b03165afa9182156112d957505f916112c5575090565b61110991503d805f833e610617818361100e565b513d5f823e3d90fd5b611109915061079e600693518094819301611144565b505161130381610ff3565b5f815290565b805f525f60205260405f205415611339575f525f60205261079e611109600960405f200160405192838092611144565b5060405161130381610ff3565b1561134d57565b60405162461bcd60e51b815260206004820152601a60248201527f506172656e74206e6f646520646f6573206e6f742065786973740000000000006044820152606490fd5b60405190604082018281106001600160401b03821117610fcc5760405260048252634e4f444560e01b6020830152565b939291949094845f526020925f8452604090815f2054158015906115e0575b6113ea90611346565b1561144f57866113fc61110998611819565b9482519761140989610fb0565b88528701528501525f60608501526001600160a01b0316608084015261142d611392565b60a084015261143a611392565b60c084015260e0830152610100820152611908565b6115a28396959492611594611586997fe89ecc3525af4a916e471dd1e3af5a8a6f18b5841c5c5c408deae049648636919685516114a5816114978d868c840196429088611833565b03601f19810183528261100e565b5190209a8b98895f525f885261155a875f208b81558c6001820155600381019d60018060a01b03169d8e6001600160601b0360a01b8254161790554260048201556005810160ff19908181541690556008820190815416905561150b83600983016116f1565b61151887600783016116f1565b888a88805115155f146115d457602561035692611552926006955194826434b833399d60d91b879485015282519283918686019101610f6a565b915b016116f1565b6115638a61186e565b8a6115ba575b5f8751988998610100928392428c528b0152890152870190610f8b565b908582036060870152610f8b565b908382036080850152610f8b565b5f60a08301525f60c08301525f60e08301520390a490565b8a5f525f88526115cf8a6002895f20016118b5565b611569565b50505060068591611554565b5086156113e1565b90604051918281549182825260209260208301915f5260205f20935f905b82821061161e5750505061161c9250038361100e565b565b855484526001958601958895509381019390910190611606565b5f525f60205260405f20805415611653576008015460ff1690565b505f90565b1561165f57565b60405162461bcd60e51b8152602060048201526013602482015272139bd91948191bd95cc81b9bdd08195e1a5cdd606a1b6044820152606490fd5b156116a157565b60405162461bcd60e51b815260206004820152602260248201527f4e6f7420617574686f72697a656420746f207570646174652074686973206e6f604482015261646560f01b6064820152608490fd5b91909182516001600160401b038111610fcc5761170e825461110c565b601f81116117b3575b50602080601f83116001146117525750819293945f92611747575b50508160011b915f199060031b1c1916179055565b015190505f80611732565b90601f19831695845f5260205f20925f905b88821061179b57505083600195969710611783575b505050811b019055565b01515f1960f88460031b161c191690555f8080611779565b80600185968294968601518155019501930190611764565b825f5260205f20601f830160051c810191602084106117ee575b601f0160051c01905b8181106117e35750611717565b5f81556001016117d6565b90915081906117cd565b9190820391821161180557565b634e487b7160e01b5f52601160045260245ffd5b51801561182d5760039004801561182d5790565b50600190565b909160549493926001600160601b03199060601b1682526014820152611863825180936020603485019101610f6a565b019060348201520190565b600154600160401b811015610fcc5760018101806001558110156111ea5760015f527fb10e2d527612073b26eecdfd717e6a320cf44b4afac2b0732d9fcbe2b7fa0cf60155565b8054600160401b811015610fcc576118d2916001820181556111d5565b819291549060031b91821b915f19901b1916179055565b908160209103126105ff57516001600160a01b03811681036105ff5790565b608081019060018060a01b0391828151166020808401805192855161193d604095611497875193849288840196429088611833565b51902095865f525f8352835f2095878755805160018801558186511660038801906001600160601b0360a01b8254161790554260048801556060810180511515906005890160ff199260ff84835416911617905561010091600160088486019b6119ab8d51600983016116f1565b8d8b8801956119be8751600785016116f1565b6119c78261186e565b511580611c54575b611c38575b500180549092161790558051805115611c2f57611a0f6025895180936434b833399d60d91b8b830152610356815180928d8686019101610f6a565b945b86856005541696868b5116978d60a0880151998c60c08a015160e08b015191519c8d968795869563720257c960e11b8752600487015260248601526044850160c0905260c48501611a6191610f8b565b906003199182868203016064870152611a7991610f8b565b90848203016084850152611a8c91610f8b565b9060a483015203915a905f91f1958615611c25575f96611bf6575b50600554885163abb23f5b60e01b815260048101889052949086168886602481845afa958615611bcd5760249695949392918a915f97611bd7575b508b5197888092635d3dd4e960e01b82528c60048301525afa958615611bcd579187969593918e9b9a999895935f97611b9c575b508590519c51169c519051915192808b519b8c9b428d528c01600190528b01528901611b4191610f8b565b88810360608a0152611b5291610f8b565b8781036080890152611b6391610f8b565b9460a08701521660c08501521660e0830152037fe89ecc3525af4a916e471dd1e3af5a8a6f18b5841c5c5c408deae0496486369191a490565b86919750611bbf908b3d8d11611bc6575b611bb7818361100e565b8101906118e9565b9690611b16565b503d611bad565b8a513d5f823e3d90fd5b611bef919750823d8411611bc657611bb7818361100e565b955f611ae2565b9095508681813d8311611c1e575b611c0e818361100e565b810103126105ff5751945f611aa7565b503d611c04565b88513d5f823e3d90fd5b50845194611a11565b611c4e9088515f525f8c5260028d5f20016118b5565b8d6119d4565b50875115156119cf56fea264697066735822122096461b4aacd26c3cab65dd12448827148e29aadfab36d91bf8ff7a5df498705364736f6c63430008180033","linkReferences":{}},"methodIdentifiers":{"addNode(bytes32,string,string,bool,string,address)":"3d6b00ff","addNodeWithToken(bytes32,string,string,string,string,string,address)":"381064a1","allNodes(uint256)":"fe72ae13","factory()":"c45a0155","getAllNodes()":"a1174e7d","getChildren(bytes32)":"d37684ff","getNFTContract()":"2b1f4ad6","getNode(bytes32)":"50c946fe","getNodeContent(bytes32)":"01814670","getNodeCount()":"39bf397e","getNodeMetadata(bytes32,string)":"5ef268d1","getNodeMetadataKeys(bytes32)":"aa0980c9","getNodeModelId(bytes32)":"06d48e67","getRootId()":"2947ef38","initializeRootNodeWithToken(string,string,uint256,string)":"954ca52a","nftContract()":"d56d229d","nodeHasNFT(bytes32)":"63d0e0e4","nodes(bytes32)":"d86e697d","rootId()":"cc7bed3f","setNodeMetadata(bytes32,string,string)":"7a5f4f36","treeOwner()":"0b333cbe","updateNodeContent(bytes32,string,string)":"d0335dd1"},"id":4}