{"abi":[{"type":"constructor","inputs":[{"name":"name","type":"string","internalType":"string"},{"name":"symbol","type":"string","internalType":"string"},{"name":"totalSupply","type":"uint256","internalType":"uint256"}],"stateMutability":"nonpayable"},{"type":"function","name":"allowance","inputs":[{"name":"owner","type":"address","internalType":"address"},{"name":"spender","type":"address","internalType":"address"}],"outputs":[{"name":"","type":"uint256","internalType":"uint256"}],"stateMutability":"view"},{"type":"function","name":"approve","inputs":[{"name":"spender","type":"address","internalType":"address"},{"name":"value","type":"uint256","internalType":"uint256"}],"outputs":[{"name":"","type":"bool","internalType":"bool"}],"stateMutability":"nonpayable"},{"type":"function","name":"balanceOf","inputs":[{"name":"account","type":"address","internalType":"address"}],"outputs":[{"name":"","type":"uint256","internalType":"uint256"}],"stateMutability":"view"},{"type":"function","name":"burn","inputs":[{"name":"from","type":"address","internalType":"address"},{"name":"amount","type":"uint256","internalType":"uint256"},{"name":"reason","type":"string","internalType":"string"}],"outputs":[],"stateMutability":"nonpayable"},{"type":"function","name":"decimals","inputs":[],"outputs":[{"name":"","type":"uint8","internalType":"uint8"}],"stateMutability":"view"},{"type":"function","name":"fromWei","inputs":[{"name":"weiAmount","type":"uint256","internalType":"uint256"}],"outputs":[{"name":"","type":"uint256","internalType":"uint256"}],"stateMutability":"view"},{"type":"function","name":"initialSupply","inputs":[],"outputs":[{"name":"","type":"uint256","internalType":"uint256"}],"stateMutability":"view"},{"type":"function","name":"mint","inputs":[{"name":"to","type":"address","internalType":"address"},{"name":"amount","type":"uint256","internalType":"uint256"},{"name":"reason","type":"string","internalType":"string"}],"outputs":[],"stateMutability":"nonpayable"},{"type":"function","name":"name","inputs":[],"outputs":[{"name":"","type":"string","internalType":"string"}],"stateMutability":"view"},{"type":"function","name":"owner","inputs":[],"outputs":[{"name":"","type":"address","internalType":"address"}],"stateMutability":"view"},{"type":"function","name":"renounceOwnership","inputs":[],"outputs":[],"stateMutability":"nonpayable"},{"type":"function","name":"symbol","inputs":[],"outputs":[{"name":"","type":"string","internalType":"string"}],"stateMutability":"view"},{"type":"function","name":"toWei","inputs":[{"name":"units","type":"uint256","internalType":"uint256"}],"outputs":[{"name":"","type":"uint256","internalType":"uint256"}],"stateMutability":"view"},{"type":"function","name":"totalSupply","inputs":[],"outputs":[{"name":"","type":"uint256","internalType":"uint256"}],"stateMutability":"view"},{"type":"function","name":"transfer","inputs":[{"name":"to","type":"address","internalType":"address"},{"name":"value","type":"uint256","internalType":"uint256"}],"outputs":[{"name":"","type":"bool","internalType":"bool"}],"stateMutability":"nonpayable"},{"type":"function","name":"transferFrom","inputs":[{"name":"from","type":"address","internalType":"address"},{"name":"to","type":"address","internalType":"address"},{"name":"value","type":"uint256","internalType":"uint256"}],"outputs":[{"name":"","type":"bool","internalType":"bool"}],"stateMutability":"nonpayable"},{"type":"function","name":"transferOwnership","inputs":[{"name":"newOwner","type":"address","internalType":"address"}],"outputs":[],"stateMutability":"nonpayable"},{"type":"event","name":"Approval","inputs":[{"name":"owner","type":"address","indexed":true,"internalType":"address"},{"name":"spender","type":"address","indexed":true,"internalType":"address"},{"name":"value","type":"uint256","indexed":false,"internalType":"uint256"}],"anonymous":false},{"type":"event","name":"OwnershipTransferred","inputs":[{"name":"previousOwner","type":"address","indexed":true,"internalType":"address"},{"name":"newOwner","type":"address","indexed":true,"internalType":"address"}],"anonymous":false},{"type":"event","name":"TokensBurned","inputs":[{"name":"from","type":"address","indexed":true,"internalType":"address"},{"name":"amount","type":"uint256","indexed":false,"internalType":"uint256"},{"name":"reason","type":"string","indexed":false,"internalType":"string"}],"anonymous":false},{"type":"event","name":"TokensMinted","inputs":[{"name":"to","type":"address","indexed":true,"internalType":"address"},{"name":"amount","type":"uint256","indexed":false,"internalType":"uint256"},{"name":"reason","type":"string","indexed":false,"internalType":"string"}],"anonymous":false},{"type":"event","name":"Transfer","inputs":[{"name":"from","type":"address","indexed":true,"internalType":"address"},{"name":"to","type":"address","indexed":true,"internalType":"address"},{"name":"value","type":"uint256","indexed":false,"internalType":"uint256"}],"anonymous":false},{"type":"error","name":"ERC20InsufficientAllowance","inputs":[{"name":"spender","type":"address","internalType":"address"},{"name":"allowance","type":"uint256","internalType":"uint256"},{"name":"needed","type":"uint256","internalType":"uint256"}]},{"type":"error","name":"ERC20InsufficientBalance","inputs":[{"name":"sender","type":"address","internalType":"address"},{"name":"balance","type":"uint256","internalType":"uint256"},{"name":"needed","type":"uint256","internalType":"uint256"}]},{"type":"error","name":"ERC20InvalidApprover","inputs":[{"name":"approver","type":"address","internalType":"address"}]},{"type":"error","name":"ERC20InvalidReceiver","inputs":[{"name":"receiver","type":"address","internalType":"address"}]},{"type":"error","name":"ERC20InvalidSender","inputs":[{"name":"sender","type":"address","internalType":"address"}]},{"type":"error","name":"ERC20InvalidSpender","inputs":[{"name":"spender","type":"address","internalType":"address"}]},{"type":"error","name":"OwnableInvalidOwner","inputs":[{"name":"owner","type":"address","internalType":"address"}]},{"type":"error","name":"OwnableUnauthorizedAccount","inputs":[{"name":"account","type":"address","internalType":"address"}]}],"bytecode":{"object":"0x60406080815234620003e557620010ed803803806200001e81620003e9565b9283398101606082820312620003e55781516001600160401b039290838111620003e55782620000509183016200040f565b60209283830151858111620003e55786916200006e9185016200040f565b920151938151818111620002f0576003908154906001948583811c93168015620003da575b88841014620003c6578190601f9384811162000373575b50889084831160011462000310575f9262000304575b50505f1982851b1c191690851b1782555b8451928311620002f05760049485548581811c91168015620002e5575b88821014620002d2578281116200028a575b508691841160011462000223579383949184925f9562000217575b50501b925f19911b1c19161781555b3315620002015760058054336001600160a01b0319821681179092556001600160a01b03167f8be0079c531659141344cd1fd0a4f28419497f9722a3daafe3b4186f6b6457e05f80a3670de0b6b3a764000092838102938185041490151715620001ee578260065560025490838201809211620001ee57505f917fddf252ad1be2c89b69c2b068fc378daa952ba7f163c4a11628f55a4df523b3ef9160025533835282815284832084815401905584519384523393a351610c6d9081620004808239f35b601190634e487b7160e01b5f525260245ffd5b6024905f855191631e4fbdf760e01b8352820152fd5b015193505f806200011b565b9190601f19841692865f5284885f20945f5b8a8983831062000272575050501062000258575b50505050811b0181556200012a565b01519060f8845f19921b161c191690555f80808062000249565b86860151895590970196948501948893500162000235565b865f52875f208380870160051c8201928a8810620002c8575b0160051c019086905b828110620002bc57505062000100565b5f8155018690620002ac565b92508192620002a3565b602287634e487b7160e01b5f525260245ffd5b90607f1690620000ee565b634e487b7160e01b5f52604160045260245ffd5b015190505f80620000c0565b90879350601f19831691865f528a5f20925f5b8c8282106200035c575050841162000344575b505050811b018255620000d1565b01515f1983871b60f8161c191690555f808062000336565b8385015186558b9790950194938401930162000323565b909150845f52885f208480850160051c8201928b8610620003bc575b918991869594930160051c01915b828110620003ad575050620000aa565b5f81558594508991016200039d565b925081926200038f565b634e487b7160e01b5f52602260045260245ffd5b92607f169262000093565b5f80fd5b6040519190601f01601f191682016001600160401b03811183821017620002f057604052565b919080601f84011215620003e55782516001600160401b038111620002f05760209062000445601f8201601f19168301620003e9565b92818452828287010111620003e5575f5b8181106200046b5750825f9394955001015290565b85810183015184820184015282016200045656fe608060409080825260049081361015610016575f80fd5b5f3560e01c90816306fdde03146108bf57508063095ea7b31461081657806315f570dc1461068a57806318160ddd1461066c57806323b872dd1461057b578063313ce56714610560578063378dc3dc14610542578063669dafe8146104f657806370a08231146104c0578063715018a6146104655780638da5cb5b1461043d57806395d89b4114610323578063a9059cbb146102f3578063d3fc9864146101db578063dd62ed3e14610192578063e65d15221461016c5763f2fde38b146100db575f80fd5b34610168576020366003190112610168576100f46109fb565b906100fd610b31565b6001600160a01b03918216928315610152575050600554826bffffffffffffffffffffffff60a01b821617600555167f8be0079c531659141344cd1fd0a4f28419497f9722a3daafe3b4186f6b6457e05f80a3005b905f6024925191631e4fbdf760e01b8352820152fd5b5f80fd5b503461016857602036600319011261016857670de0b6b3a7640000602092519135048152f35b82346101685780600319360112610168576020906101ae6109fb565b6101b6610a11565b9060018060a01b038091165f5260018452825f2091165f528252805f20549051908152f35b5034610168576101ea36610a5d565b93916101f4610b31565b6001600160a01b03169283156102b05761020f821515610ae5565b6002549082820180921161029d57507f9d89e36eadf856db0ad9ffb5a569e07f95634dddd9501141ecf04820484ad0dc939461029891600255855f525f602052835f20838154019055855f7fddf252ad1be2c89b69c2b068fc378daa952ba7f163c4a11628f55a4df523b3ef60208751878152a3835193849384528060208501528301906109bd565b0390a2005b601190634e487b7160e01b5f525260245ffd5b606490602084519162461bcd60e51b8352820152601b60248201527f43616e6e6f74206d696e7420746f207a65726f206164647265737300000000006044820152fd5b823461016857806003193601126101685760209061031c6103126109fb565b6024359033610b5d565b5160018152f35b509034610168575f366003190112610168578051905f9083549160018360011c9060018516968715610433575b602095868410891461042057868899858a98999a5291825f146103f957505060011461039d575b505050610399929161038a910385610a27565b519282849384528301906109bd565b0390f35b5f90815286935091907f8a35acfbc15ff81a39ae7d344fd709f28e8600b4aa8c65c6b64bfe7fe36bd19b5b8284106103e1575050508201018161038a610399610377565b8054848a0186015288955087949093019281016103c8565b60ff19168782015293151560051b8601909301935084925061038a91506103999050610377565b602282634e487b7160e01b5f525260245ffd5b91607f1691610350565b8234610168575f3660031901126101685760055490516001600160a01b039091168152602090f35b34610168575f3660031901126101685761047d610b31565b600580546001600160a01b031981169091555f906001600160a01b03167f8be0079c531659141344cd1fd0a4f28419497f9722a3daafe3b4186f6b6457e08280a3005b8234610168576020366003190112610168576020906001600160a01b036104e56109fb565b165f525f8252805f20549051908152f35b50903461016857602036600319011261016857670de0b6b3a764000082358181029291811591840414171561052f576020925051908152f35b601183634e487b7160e01b5f525260245ffd5b8234610168575f366003190112610168576020906006549051908152f35b8234610168575f366003190112610168576020905160128152f35b5034610168576060366003190112610168576105956109fb565b61059d610a11565b906044359260018060a01b038216805f526001602052855f20335f52602052855f2054915f1983106105d8575b60208761031c888888610b5d565b85831061064057811561062a57331561061457505f9081526001602090815286822033835281529086902091859003909155829061031c6105ca565b6024905f885191634a1406b160e11b8352820152fd5b6024905f88519163e602df0560e01b8352820152fd5b8651637dc7a0d960e11b8152339181019182526020820193909352604081018690528291506060010390fd5b8234610168575f366003190112610168576020906002549051908152f35b50346101685761069936610a5d565b936106a2610b31565b6001600160a01b0383169384156107d4576106be831515610ae5565b845f526020935f855283835f20541061079257855f525f8552825f20549184831061075e57505094610298918386977ffad31924d655455395c87544c8aa1ffdb5a7505a22a3c2e03f28003b6556a75f975f525f875203815f205583600254036002555f877fddf252ad1be2c89b69c2b068fc378daa952ba7f163c4a11628f55a4df523b3ef878451888152a380805195869586528501528301906109bd565b835163391434e360e21b81526001600160a01b03909216908201908152602081018390526040810185905281906060010390fd5b5083606492519162461bcd60e51b8352820152601c60248201527f496e73756666696369656e742062616c616e636520746f206275726e000000006044820152fd5b6020606492519162461bcd60e51b8352820152601d60248201527f43616e6e6f74206275726e2066726f6d207a65726f20616464726573730000006044820152fd5b5090346101685780600319360112610168576108306109fb565b6024359033156108a9576001600160a01b03169081156108935760209350335f5260018452825f20825f52845280835f205582519081527f8c5be1e5ebec7d5bd14f71427d1e84f3dd0314c0f7b2291e5b200ac8c7c3b925843392a35160018152f35b8251634a1406b160e11b81525f81860152602490fd5b825163e602df0560e01b81525f81860152602490fd5b90508234610168575f366003190112610168575f906003549160018360011c90600185169485156109b3575b60209586841081146109a05783885287949392918790821561097e575050600114610923575b5050610399929161038a910385610a27565b9085925060035f527fc2575a0e9e593c00f959f8c92f12db2869c3395a3b0502d05e2516446f71f85b915f925b828410610966575050508201018161038a610911565b8054848a018601528895508794909301928101610950565b60ff19168682015292151560051b8501909201925083915061038a9050610911565b602289634e487b7160e01b5f525260245ffd5b91607f16916108eb565b91908251928382525f5b8481106109e7575050825f602080949584010152601f8019910116010190565b6020818301810151848301820152016109c7565b600435906001600160a01b038216820361016857565b602435906001600160a01b038216820361016857565b90601f8019910116810190811067ffffffffffffffff821117610a4957604052565b634e487b7160e01b5f52604160045260245ffd5b6060600319820112610168576004356001600160a01b038116810361016857916024359167ffffffffffffffff6044358181116101685782602382011215610168578060040135918211610a495760405192610ac3601f8401601f191660200185610a27565b8284526024838301011161016857815f92602460209301838601378301015290565b15610aec57565b60405162461bcd60e51b815260206004820152601d60248201527f416d6f756e74206d7573742062652067726561746572207468616e20300000006044820152606490fd5b6005546001600160a01b03163303610b4557565b60405163118cdaa760e01b8152336004820152602490fd5b916001600160a01b03808416928315610c1f5716928315610c0757825f525f60205260405f205490828210610bd55750817fddf252ad1be2c89b69c2b068fc378daa952ba7f163c4a11628f55a4df523b3ef92602092855f525f84520360405f2055845f5260405f20818154019055604051908152a3565b60405163391434e360e21b81526001600160a01b03919091166004820152602481019190915260448101829052606490fd5b60405163ec442f0560e01b81525f6004820152602490fd5b604051634b637e8f60e11b81525f6004820152602490fdfea264697066735822122044331042eba9aeacf012920601a85181d7d19980b04811393b499030531fee4c64736f6c63430008180033","linkReferences":{}},"methodIdentifiers":{"allowance(address,address)":"dd62ed3e","approve(address,uint256)":"095ea7b3","balanceOf(address)":"70a08231","burn(address,uint256,string)":"15f570dc","decimals()":"313ce567","fromWei(uint256)":"e65d1522","initialSupply()":"378dc3dc","mint(address,uint256,string)":"d3fc9864","name()":"06fdde03","owner()":"8da5cb5b","renounceOwnership()":"715018a6","symbol()":"95d89b41","toWei(uint256)":"669dafe8","totalSupply()":"18160ddd","transfer(address,uint256)":"a9059cbb","transferFrom(address,address,uint256)":"23b872dd","transferOwnership(address)":"f2fde38b"},"id":4}